{
	"data": {
		"bytecode": {
			"linkReferences": {},
			"object": "6080604052600280546001600160a01b0319908116732859e4544c4bb03966803b044a93563bd2d0dd4d1790915560038054821673bb4cdb9cbd36b01bd1cbaebf2de08d9173bc095c17905560048054821661dead9081179091556005805483169055600680549092161790556200007a6009600a62000669565b6200008d9066038d7ea4c6800062000754565b600755620000ae6101906007546200052060201b62001c2a1790919060201c565b60085560c8600e81905561012c600f556103206010556064601181905561057860125561271060135560196016556017819055601c91909155601d55610708601f556020805460ff199081169091556207a120602955602a8054909116600117905560075462000122906107d090620005fb565b602b55602c805461ff00199081169091556276a700602e556033805460ff19166001179091166101001790553480156200015b57600080fd5b5060405162004a2e38038062004a2e8339810160408190526200017e91620005af565b600080546001600160a01b0319908116339081178355825260016020818152604093849020805460ff1916909217909155601880546001600160a01b03868116919094161790819055835163c45a015560e01b8152935192169263c45a01559260048083019392829003018186803b158015620001fa57600080fd5b505afa1580156200020f573d6000803e3d6000fd5b505050506040513d601f19601f82011682018060405250810190620002359190620005af565b6003546040516364e329cb60e11b81526001600160a01b039283169263c9c65396926200026a929116903090600401620005d8565b602060405180830381600087803b1580156200028557600080fd5b505af11580156200029a573d6000803e3d6000fd5b505050506040513d601f19601f82011682018060405250810190620002c09190620005af565b601980546001600160a01b0319166001600160a01b03928316179055600754306000908152600a6020908152604080832060188054871685529083529281902093909355905482516315ab88c960e31b8152925193169263ad5c4648926004808201939291829003018186803b1580156200033a57600080fd5b505afa1580156200034f573d6000803e3d6000fd5b505050506040513d601f19601f82011682018060405250810190620003759190620005af565b600360006101000a8154816001600160a01b0302191690836001600160a01b031602179055508030604051620003ab90620005a1565b620003b8929190620005d8565b604051809103906000f080158015620003d5573d6000803e3d6000fd5b50602780546001600160a01b039283166001600160a01b0319918216179182905560288054821692841692909217909155336000818152600b60209081526040808320805460ff199081166001908117909255600c8452828520805482168317905560195488168552600d84528285208054821683179055308552828520805482168317905560045490971684528184208054881682179055848452602190925290912080549094161790925560148054821683179055601580549091169091179055600754620004a890829062000535565b50601954600754620004c4916001600160a01b03169062000535565b50600754336000818152600960205260408082208490554260325551919290917fddf252ad1be2c89b69c2b068fc378daa952ba7f163c4a11628f55a4df523b3ef916200051191620005f2565b60405180910390a3506200078c565b60006200052e8284620005fb565b9392505050565b336000818152600a602090815260408083206001600160a01b038716808552925280832085905551919290917f8c5be1e5ebec7d5bd14f71427d1e84f3dd0314c0f7b2291e5b200ac8c7c3b9259062000590908690620005f2565b60405180910390a350600192915050565b61138280620036ac83390190565b600060208284031215620005c1578081fd5b81516001600160a01b03811681146200052e578182fd5b6001600160a01b0392831681529116602082015260400190565b90815260200190565b6000826200061757634e487b7160e01b81526012600452602481fd5b500490565b80825b600180861162000630575062000660565b81870482111562000645576200064562000776565b808616156200065357918102915b9490941c9380026200061f565b94509492505050565b60006200052e60001960ff85168460008262000688575060016200052e565b8162000697575060006200052e565b8160018114620006b05760028114620006bb57620006ef565b60019150506200052e565b60ff841115620006cf57620006cf62000776565b6001841b915084821115620006e857620006e862000776565b506200052e565b5060208310610133831016604e8410600b841016171562000727575081810a8381111562000721576200072162000776565b6200052e565b6200073684848460016200061c565b8086048211156200074b576200074b62000776565b02949350505050565b600081600019048311821515161562000771576200077162000776565b500290565b634e487b7160e01b600052601160045260246000fd5b612f10806200079c6000396000f3fe6080604052600436106103e85760003560e01c80638fe42f4611610208578063d3cd253c11610118578063e96fada2116100ab578063f5cfec0a1161007a578063f5cfec0a14610ad7578063f708a64f14610af7578063f84ba65d14610b17578063f887ea4014610b37578063fe9fbb8014610b4c576103ef565b8063e96fada214610a62578063f0b37c0414610a77578063f1f3bca314610a97578063f2fde38b14610ab7576103ef565b8063dd62ed3e116100e7578063dd62ed3e146109ed578063df20fd4914610a0d578063e74ef52e14610a2d578063e91f214e14610a4d576103ef565b8063d3cd253c1461098e578063d51ed1c8146109a3578063d806d12f146109c3578063db882e04146109d8576103ef565b8063b210b06d1161019b578063bf56b3711161016a578063bf56b37114610927578063c0f71b801461093c578063c6d2577d1461095c578063ca33e64c14610971578063d0e30db014610986576103ef565b8063b210b06d146108b2578063b6a5d7de146108c7578063b83f9599146108e7578063bf3aa77914610907576103ef565b8063a4b45c00116101d7578063a4b45c0014610848578063a51af4c514610868578063a8aa1b311461087d578063a9059cbb14610892576103ef565b80638fe42f46146107d157806395d89b41146107f15780639d1944f514610806578063a39fac1214610826576103ef565b80632d48e89611610303578063658d4b7f116102965780637d1db4a5116102655780637d1db4a5146107505780638272319214610765578063893d20e8146107855780638dd95002146107a75780638f14fb8c146107bc576103ef565b8063658d4b7f146106db5780636ddd1713146106fb57806370a0823114610710578063725ddf4a14610730576103ef565b806340f0a14a116102d257806340f0a14a1461065b578063571ac8b01461067b5780635c85974f1461069b578063606ab752146106bb576103ef565b80632d48e896146105e45780632f54bf6e14610604578063313ce567146106245780633bb8a8d414610646576103ef565b80631bbcce441161037b57806325449ac41161034a57806325449ac41461057a5780632846b9511461059a5780632b0ea03d146105af5780632b112e49146105cf576103ef565b80631bbcce44146104fa578063201e79911461051a5780632375ce401461053a57806323b872dd1461055a576103ef565b806306fdde03116103b757806306fdde0314610476578063095ea7b3146104985780631161ae39146104c557806318160ddd146104e5576103ef565b806301339c21146103f45780630445b6671461040b578063048c7baf1461043657806304a66b4814610456576103ef565b366103ef57005b600080fd5b34801561040057600080fd5b50610409610b6c565b005b34801561041757600080fd5b50610420610bc4565b60405161042d9190612dd2565b60405180910390f35b34801561044257600080fd5b50610409610451366004612a0e565b610bca565b34801561046257600080fd5b50610409610471366004612b15565b610c18565b34801561048257600080fd5b5061048b610c8e565b60405161042d9190612c4d565b3480156104a457600080fd5b506104b86104b33660046129a7565b610cb4565b60405161042d9190612c0d565b3480156104d157600080fd5b506104b86104e0366004612a9c565b610d1e565b3480156104f157600080fd5b50610420610d32565b34801561050657600080fd5b506104096105153660046129b9565b610d38565b34801561052657600080fd5b50610409610535366004612a9c565b610d77565b34801561054657600080fd5b50610409610555366004612abd565b610da7565b34801561056657600080fd5b506104b861057536600461293a565b610dfc565b34801561058657600080fd5b506104096105953660046129a7565b610ec0565b3480156105a657600080fd5b506104b8610f75565b3480156105bb57600080fd5b506104206105ca3660046128bb565b610f83565b3480156105db57600080fd5b50610420610fda565b3480156105f057600080fd5b506104096105ff366004612a9c565b611023565b34801561061057600080fd5b506104b861061f3660046128bb565b6110b0565b34801561063057600080fd5b506106396110c4565b60405161042d9190612e25565b34801561065257600080fd5b506104b86110c9565b34801561066757600080fd5b506104096106763660046129b9565b6110d2565b34801561068757600080fd5b506104b86106963660046128bb565b61110a565b3480156106a757600080fd5b506104096106b6366004612a48565b61111e565b3480156106c757600080fd5b506104206106d63660046128bb565b611165565b3480156106e757600080fd5b506104096106f636600461297a565b611180565b34801561070757600080fd5b506104b86111d0565b34801561071c57600080fd5b5061042061072b3660046128bb565b6111d9565b34801561073c57600080fd5b5061040961074b3660046129b9565b6111f4565b34801561075c57600080fd5b50610420611233565b34801561077157600080fd5b506104096107803660046129a7565b611239565b34801561079157600080fd5b5061079a611290565b60405161042d9190612b92565b3480156107b357600080fd5b5061079a61129f565b3480156107c857600080fd5b506104206112ae565b3480156107dd57600080fd5b506104096107ec3660046128bb565b6112b4565b3480156107fd57600080fd5b5061048b6112fd565b34801561081257600080fd5b50610409610821366004612a48565b61131d565b34801561083257600080fd5b5061083b611366565b60405161042d9190612bfa565b34801561085457600080fd5b50610409610863366004612902565b6113c8565b34801561087457600080fd5b5061079a61141b565b34801561088957600080fd5b5061079a61142a565b34801561089e57600080fd5b506104b86108ad3660046129a7565b611439565b3480156108be57600080fd5b50610409611446565b3480156108d357600080fd5b506104096108e23660046128bb565b611472565b3480156108f357600080fd5b506104096109023660046128bb565b6114be565b34801561091357600080fd5b506104206109223660046128bb565b611504565b34801561093357600080fd5b5061042061159a565b34801561094857600080fd5b506104096109573660046128d7565b6115a0565b34801561096857600080fd5b50610420611641565b34801561097d57600080fd5b5061079a611647565b610409611656565b34801561099a57600080fd5b506104206116e1565b3480156109af57600080fd5b506104206109be366004612a48565b6116e5565b3480156109cf57600080fd5b50610420611725565b3480156109e457600080fd5b506104096117dd565b3480156109f957600080fd5b50610420610a08366004612902565b611806565b348015610a1957600080fd5b50610409610a283660046129f1565b611831565b348015610a3957600080fd5b50610409610a48366004612a48565b61186d565b348015610a5957600080fd5b506104206118b9565b348015610a6e57600080fd5b5061079a6118cd565b348015610a8357600080fd5b50610409610a923660046128bb565b6118dc565b348015610aa357600080fd5b50610420610ab23660046129b9565b611922565b348015610ac357600080fd5b50610409610ad23660046128bb565b611964565b348015610ae357600080fd5b50610409610af2366004612a78565b6119f9565b348015610b0357600080fd5b50610409610b1236600461297a565b611a7d565b348015610b2357600080fd5b50610409610b3236600461297a565b611bad565b348015610b4357600080fd5b5061079a611bfd565b348015610b5857600080fd5b506104b8610b673660046128bb565b611c0c565b610b7533611c0c565b610b9a5760405162461bcd60e51b8152600401610b9190612dad565b60405180910390fd5b601a5415610bba5760405162461bcd60e51b8152600401610b9190612d28565b43601a5542601b55565b602b5481565b610bd333611c0c565b610bef5760405162461bcd60e51b8152600401610b9190612dad565b6020805460ff191694151594909417909355602291909155600060235560245560255543602655565b610c2133611c0c565b610c3d5760405162461bcd60e51b8152600401610b9190612dad565b600e859055600f84905560108390556011829055610c6782610c6185818989611c36565b90611c36565b6012556013819055610c7a600382612e4b565b60125410610c8757600080fd5b5050505050565b60408051808201909152600b81526a582d536869626120496e7560a81b60208201525b90565b336000818152600a602090815260408083206001600160a01b038716808552925280832085905551919290917f8c5be1e5ebec7d5bd14f71427d1e84f3dd0314c0f7b2291e5b200ac8c7c3b92590610d0d908690612dd2565b60405180910390a350600192915050565b600082610d2a836116e5565b119392505050565b60075490565b610d41336110b0565b610d5d5760405162461bcd60e51b8152600401610b9190612d56565b603380549115156101000261ff0019909216919091179055565b610d8033611c0c565b610d9c5760405162461bcd60e51b8152600401610b9190612dad565b601691909155601755565b610db033611c0c565b610dcc5760405162461bcd60e51b8152600401610b9190612dad565b6005610dd88385612e4b565b11158015610de557508183115b610dee57600080fd5b601c92909255601d55601f55565b6007546001600160a01b0384166000908152600a60209081526040808320338452909152812054909114610eab576040805180820182526016815275496e73756666696369656e7420416c6c6f77616e636560501b6020808301919091526001600160a01b0387166000908152600a82528381203382529091529190912054610e86918490611c42565b6001600160a01b0385166000908152600a602090815260408083203384529091529020555b610eb6848484611c6e565b90505b9392505050565b610ec933611c0c565b610ee55760405162461bcd60e51b8152600401610b9190612dad565b60405163a9059cbb60e01b815273bb4cdb9cbd36b01bd1cbaebf2de08d9173bc095c9063a9059cbb90610f1e9085908590600401612ba6565b602060405180830381600087803b158015610f3857600080fd5b505af1158015610f4c573d6000803e3d6000fd5b505050506040513d601f19601f82011682018060405250810190610f7091906129d5565b505050565b602c54610100900460ff1690565b6001600160a01b0381166000908152602f60205260408120548015610fb457610fac8142612e8a565b915050610fd5565b610fbd836110b0565b15610fcf57603254610fac9042612e8a565b60009150505b919050565b60055460009061101e90610ff6906001600160a01b03166111d9565b6004546110189061100f906001600160a01b03166111d9565b60075490612134565b90612134565b905090565b61102c33611c0c565b6110485760405162461bcd60e51b8152600401610b9190612dad565b6027546040516316a4744b60e11b81526001600160a01b0390911690632d48e8969061107a9085908590600401612e17565b600060405180830381600087803b15801561109457600080fd5b505af11580156110a8573d6000803e3d6000fd5b505050505050565b6000546001600160a01b0390811691161490565b600990565b60205460ff1681565b6110db336110b0565b6110f75760405162461bcd60e51b8152600401610b9190612d56565b6033805460ff1916911515919091179055565b600061111882600754610cb4565b92915050565b61112733611c0c565b6111435760405162461bcd60e51b8152600401610b9190612dad565b620f42406007546111549190612e4b565b81101561116057600080fd5b600855565b6001600160a01b03166000908152602d602052604090205490565b61118933611c0c565b6111a55760405162461bcd60e51b8152600401610b9190612dad565b6001600160a01b03919091166000908152600b60205260409020805460ff1916911515919091179055565b602a5460ff1681565b6001600160a01b031660009081526009602052604090205490565b6111fd33611c0c565b6112195760405162461bcd60e51b8152600401610b9190612dad565b602c80549115156101000261ff0019909216919091179055565b60085481565b611242336110b0565b61125e5760405162461bcd60e51b8152600401610b9190612d56565b60275460405163413918c960e11b81526001600160a01b039091169063827231929061107a9085908590600401612ba6565b6000546001600160a01b031690565b6003546001600160a01b031681565b602e5490565b6112bd33611c0c565b6112d95760405162461bcd60e51b8152600401610b9190612dad565b6001600160a01b03166000908152603060205260409020805460ff19166001179055565b60408051808201909152600681526558534849424160d01b602082015290565b61132633611c0c565b6113425760405162461bcd60e51b8152600401610b9190612dad565b603354610100900460ff161561136157620b71b0811061136157600080fd5b602955565b606060318054806020026020016040519081016040528092919081815260200182805480156113be57602002820191906000526020600020905b81546001600160a01b031681526001909101906020018083116113a0575b5050505050905090565b6113d133611c0c565b6113ed5760405162461bcd60e51b8152600401610b9190612dad565b601480546001600160a01b039384166001600160a01b03199182161790915560158054929093169116179055565b6028546001600160a01b031681565b6019546001600160a01b031681565b6000610eb9338484611c6e565b61144f33611c0c565b61146b5760405162461bcd60e51b8152600401610b9190612dad565b6000601e55565b61147b336110b0565b6114975760405162461bcd60e51b8152600401610b9190612d56565b6001600160a01b03166000908152600160208190526040909120805460ff19169091179055565b6114c733611c0c565b6114e35760405162461bcd60e51b8152600401610b9190612dad565b6001600160a01b03166000908152603060205260409020805460ff19169055565b6040516370a0823160e01b8152600090732859e4544c4bb03966803b044a93563bd2d0dd4d90829082906370a0823190611542908790600401612b92565b60206040518083038186803b15801561155a57600080fd5b505afa15801561156e573d6000803e3d6000fd5b505050506040513d601f19601f820116820180604052508101906115929190612a60565b949350505050565b601a5481565b6115a933611c0c565b6115c55760405162461bcd60e51b8152600401610b9190612dad565b6000826001600160a01b0316826040516115de90610cb1565b60006040518083038185875af1925050503d806000811461161b576040519150601f19603f3d011682016040523d82523d6000602084013e611620565b606091505b5050905080610f705760405162461bcd60e51b8152600401610b9190612ccb565b601b5481565b6014546001600160a01b031681565b61165f336110b0565b61167b5760405162461bcd60e51b8152600401610b9190612d56565b602760009054906101000a90046001600160a01b03166001600160a01b031663d0e30db0346040518263ffffffff1660e01b81526004016000604051808303818588803b1580156116cb57600080fd5b505af1935050505080156116dd575060015b505b565b4290565b60006111186116f2610fda565b60195461171f9061171890600290611712906001600160a01b03166111d9565b90612140565b8590612140565b90611c2a565b60004261173f601f54601e54611c3690919063ffffffff16565b11156117b957600061176242611018601f54601e54611c3690919063ffffffff16565b90506000611789601254611018601d5461171f601c5460125461214090919063ffffffff16565b90506117b06117a7601f5461171f858561214090919063ffffffff16565b60125490611c36565b92505050610cb1565b6117d660135461171f61411b60125461214090919063ffffffff16565b9050610cb1565b33600090815260096020526040902054156116df57336000908152602d60205260409020429055565b6001600160a01b039182166000908152600a6020908152604080832093909416825291909152205490565b61183a33611c0c565b6118565760405162461bcd60e51b8152600401610b9190612dad565b602a805460ff191692151592909217909155602b55565b61187633611c0c565b6118925760405162461bcd60e51b8152600401610b9190612dad565b61189d816018612e6b565b6118a890603c612e6b565b6118b390603c612e6b565b602e5550565b6fffffffffffffffffffffffffffffffff81565b6015546001600160a01b031681565b6118e5336110b0565b6119015760405162461bcd60e51b8152600401610b9190612d56565b6001600160a01b03166000908152600160205260409020805460ff19169055565b600043601a5460016119349190612e33565b1061194e57601354611947906001612134565b9050610fd5565b811561195c57611947611725565b505060125490565b61196d336110b0565b6119895760405162461bcd60e51b8152600401610b9190612d56565b600080546001600160a01b0319166001600160a01b0383169081178255815260016020819052604091829020805460ff19169091179055517f04dba622d284ed0014ee4b9a6a68386be1a4c08a4913ae272de89199cc686163906119ee908390612b92565b60405180910390a150565b611a0233611c0c565b611a1e5760405162461bcd60e51b8152600401610b9190612dad565b600454611a359083906001600160a01b031661214c565b8015611a795742601e55601f546040517f39d2389ec5c1fa77b2c0d374bc61b6d7bd97ccba280fcdeb4e9c7644898d7c3a91611a7091612dd2565b60405180910390a15b5050565b611a8633611c0c565b611aa25760405162461bcd60e51b8152600401610b9190612dad565b6001600160a01b0382163014801590611ac957506019546001600160a01b03838116911614155b611ad257600080fd5b6001600160a01b0382166000908152600d60205260409020805460ff19168215801591909117909155611b6957602754604051630a5b654b60e11b81526001600160a01b03909116906314b6ca9690611b32908590600090600401612ba6565b600060405180830381600087803b158015611b4c57600080fd5b505af1158015611b60573d6000803e3d6000fd5b50505050611a79565b6027546001600160a01b0383811660009081526009602052604090819020549051630a5b654b60e11b815291909216916314b6ca969161107a918691600401612ba6565b611bb633611c0c565b611bd25760405162461bcd60e51b8152600401610b9190612dad565b6001600160a01b03919091166000908152600c60205260409020805460ff1916911515919091179055565b6018546001600160a01b031681565b6001600160a01b031660009081526001602052604090205460ff1690565b6000610eb98284612e4b565b6000610eb98284612e33565b60008184841115611c665760405162461bcd60e51b8152600401610b919190612c4d565b505050900390565b6001600160a01b03831660009081526030602052604081205460ff16158015611cb057506001600160a01b03831660009081526030602052604090205460ff16155b611ccc5760405162461bcd60e51b8152600401610b9190612d76565b602c5460ff1615611ce957611ce2848484612271565b9050610eb9565b611cf38483612314565b611cfb612359565b15611d0857611d086123a8565b611d10612742565b15611d1d57611d1d61279d565b6040805180820182526014815273496e73756666696369656e742042616c616e636560601b6020808301919091526001600160a01b038716600090815260099091529190912054611d6f918490611c42565b6001600160a01b038516600090815260096020526040812091909155611d94856127e3565b611d9e5782611da9565b611da9858585612802565b6019549091506001600160a01b03858116911614801590611de057506001600160a01b038416600090815260096020526040902054155b15611e3157603180546001810182556000919091527fc54045fa7c6ec765e825df7f9e9bf9dec12c5cef146f93a5eee56772ee647fbc0180546001600160a01b0319166001600160a01b0386161790555b6001600160a01b038416600090815260096020526040902054611e549082611c36565b6001600160a01b038086166000908152600960209081526040808320949094559188168152600d909152205460ff16611ef8576027546001600160a01b0386811660009081526009602052604090819020549051630a5b654b60e11b815291909216916314b6ca9691611ecb918991600401612ba6565b600060405180830381600087803b158015611ee557600080fd5b505af1925050508015611ef6575060015b505b6001600160a01b0384166000908152600d602052604090205460ff16611f89576027546001600160a01b0385811660009081526009602052604090819020549051630a5b654b60e11b815291909216916314b6ca9691611f5c918891600401612ba6565b600060405180830381600087803b158015611f7657600080fd5b505af1925050508015611f87575060015b505b6019546001600160a01b03858116911614612038576001600160a01b0384166000908152602d60209081526040808320429055602f909152902054611fe4576001600160a01b0384166000908152602f602052604090204290555b6019546001600160a01b03868116911614612033576001600160a01b038516600090815260096020526040902054831115612033576001600160a01b0385166000908152602f60205260408120555b612072565b6001600160a01b038516600090815260096020526040902054831115612072576001600160a01b0385166000908152602f60205260408120555b60335460ff16156120de576027546029546040516001624d3b8760e01b031981526001600160a01b039092169163ffb2c479916120b191600401612dd2565b600060405180830381600087803b1580156120cb57600080fd5b505af19250505080156120dc575060015b505b836001600160a01b0316856001600160a01b03167fddf252ad1be2c89b69c2b068fc378daa952ba7f163c4a11628f55a4df523b3ef836040516121219190612dd2565b60405180910390a3506001949350505050565b6000610eb98284612e8a565b6000610eb98284612e6b565b602c805460ff19166001179055604080516002808252606082018352600092602083019080368337505060035482519293506001600160a01b0316918391506000906121a857634e487b7160e01b600052603260045260246000fd5b60200260200101906001600160a01b031690816001600160a01b03168152505030816001815181106121ea57634e487b7160e01b600052603260045260246000fd5b6001600160a01b03928316602091820292909201015260185460405163b6f9de9560e01b815291169063b6f9de9590859061223090600090869088904290600401612c18565b6000604051808303818588803b15801561224957600080fd5b505af115801561225d573d6000803e3d6000fd5b5050602c805460ff19169055505050505050565b6040805180820182526014815273496e73756666696369656e742042616c616e636560601b6020808301919091526001600160a01b03861660009081526009909152918220546122c2918490611c42565b6001600160a01b0380861660009081526009602052604080822093909355908516815220546122f19083611c36565b6001600160a01b0384166000908152600960205260409020555060019392505050565b6008548111158061233d57506001600160a01b0382166000908152600c602052604090205460ff165b611a795760405162461bcd60e51b8152600401610b9190612ca0565b6019546000906001600160a01b0316331480159061237a5750602c5460ff16155b80156123885750602a5460ff165b801561101e575050602b5430600090815260096020526040902054101590565b602c805460ff191660011790556016546017546000916123c791610d1e565b6123d357600e546123d6565b60005b905060006123fa600261171f60125461171f86602b5461214090919063ffffffff16565b9050600061241382602b5461213490919063ffffffff16565b6040805160028082526060820183529293506000929091602083019080368337019050509050308160008151811061245b57634e487b7160e01b600052603260045260246000fd5b6001600160a01b03928316602091820292909201015260035482519116908290600190811061249a57634e487b7160e01b600052603260045260246000fd5b6001600160a01b03928316602091820292909201015260185460405163791ac94760e01b81524792919091169063791ac947906124e4908690600090879030904290600401612ddb565b600060405180830381600087803b1580156124fe57600080fd5b505af1158015612512573d6000803e3d6000fd5b50505050600061252b824761213490919063ffffffff16565b9050600061254661253d886002611c2a565b60125490612134565b9050600061255b600261171f8481878d612140565b905060006125788361171f6010548761214090919063ffffffff16565b905060006125958461171f6011548861214090919063ffffffff16565b9050602760009054906101000a90046001600160a01b03166001600160a01b031663d0e30db0836040518263ffffffff1660e01b81526004016000604051808303818588803b1580156125e757600080fd5b505af1935050505080156125f9575060015b506015546040516001600160a01b039091169082156108fc029083906000818181858888f19350505050158015612634573d6000803e3d6000fd5b50881561272c57601860009054906101000a90046001600160a01b03166001600160a01b031663f305d71984308c600080601460009054906101000a90046001600160a01b0316426040518863ffffffff1660e01b815260040161269d96959493929190612bbf565b6060604051808303818588803b1580156126b657600080fd5b505af11580156126ca573d6000803e3d6000fd5b50505050506040513d601f19601f820116820180604052508101906126ef9190612ae8565b5050507f424db2872186fa7e7afa7a5e902ed3b49a2ef19c2f5431e672462495dd6b4506838a604051612723929190612e17565b60405180910390a15b5050602c805460ff191690555050505050505050565b6019546000906001600160a01b031633148015906127635750602c5460ff16155b8015612771575060205460ff165b801561278c5750436025546026546127899190612e33565b11155b801561101e57505060245447101590565b6024546004546127b691906001600160a01b031661214c565b436026556024546023546127c991611c36565b602381905560225410156116df576020805460ff19169055565b6001600160a01b03166000908152600b602052604090205460ff161590565b6013546019546000918291612834919061171f9061282d906001600160a01b03898116911614611922565b8690612140565b306000908152600960205260409020549091506128519082611c36565b30600081815260096020526040908190209290925590516001600160a01b038716907fddf252ad1be2c89b69c2b068fc378daa952ba7f163c4a11628f55a4df523b3ef906128a0908590612dd2565b60405180910390a36128b28382612134565b95945050505050565b6000602082840312156128cc578081fd5b8135610eb981612eb7565b600080604083850312156128e9578081fd5b82356128f481612eb7565b946020939093013593505050565b60008060408385031215612914578182fd5b823561291f81612eb7565b9150602083013561292f81612eb7565b809150509250929050565b60008060006060848603121561294e578081fd5b833561295981612eb7565b9250602084013561296981612eb7565b929592945050506040919091013590565b6000806040838503121561298c578182fd5b823561299781612eb7565b9150602083013561292f81612ecc565b600080604083850312156128e9578182fd5b6000602082840312156129ca578081fd5b8135610eb981612ecc565b6000602082840312156129e6578081fd5b8151610eb981612ecc565b60008060408385031215612a03578182fd5b82356128f481612ecc565b60008060008060808587031215612a23578081fd5b8435612a2e81612ecc565b966020860135965060408601359560600135945092505050565b600060208284031215612a59578081fd5b5035919050565b600060208284031215612a71578081fd5b5051919050565b60008060408385031215612a8a578182fd5b82359150602083013561292f81612ecc565b60008060408385031215612aae578182fd5b50508035926020909101359150565b600080600060608486031215612ad1578283fd5b505081359360208301359350604090920135919050565b600080600060608486031215612afc578081fd5b8351925060208401519150604084015190509250925092565b600080600080600060a08688031215612b2c578283fd5b505083359560208501359550604085013594606081013594506080013592509050565b6000815180845260208085019450808401835b83811015612b875781516001600160a01b031687529582019590820190600101612b62565b509495945050505050565b6001600160a01b0391909116815260200190565b6001600160a01b03929092168252602082015260400190565b6001600160a01b039687168152602081019590955260408501939093526060840191909152909216608082015260a081019190915260c00190565b600060208252610eb96020830184612b4f565b901515815260200190565b600085825260806020830152612c316080830186612b4f565b6001600160a01b03949094166040830152506060015292915050565b6000602080835283518082850152825b81811015612c7957858101830151858201604001528201612c5d565b81811115612c8a5783604083870101525b50601f01601f1916929092016040019392505050565b602080825260119082015270151608131a5b5a5d08115e18d959591959607a1b604082015260600190565b60208082526038908201527f416464726573733a20756e61626c6520746f2073656e642076616c75652c206360408201527f686172697479206d617920686176652072657665727465640000000000000000606082015260800190565b602080825260149082015273416c7265616479206c61756e6368656420626f6960601b604082015260600190565b60208082526006908201526510a7aba722a960d11b604082015260600190565b6020808252601c908201527f5472616e73666572206465636c696e656420666f722077616c6c657400000000604082015260600190565b6020808252600b908201526a085055551213d49256915160aa1b604082015260600190565b90815260200190565b600086825285602083015260a06040830152612dfa60a0830186612b4f565b6001600160a01b0394909416606083015250608001529392505050565b918252602082015260400190565b60ff91909116815260200190565b60008219821115612e4657612e46612ea1565b500190565b600082612e6657634e487b7160e01b81526012600452602481fd5b500490565b6000816000190483118215151615612e8557612e85612ea1565b500290565b600082821015612e9c57612e9c612ea1565b500390565b634e487b7160e01b600052601160045260246000fd5b6001600160a01b03811681146116dd57600080fd5b80151581146116dd57600080fdfea2646970667358221220627abda3c3ba7b548d38ea3bed7071bfe6aacd390b1684759002ec8031be43e764736f6c634300080000336080604052600180546001600160a01b0319908116732859e4544c4bb03966803b044a93563bd2d0dd4d179091556002805490911673bb4cdb9cbd36b01bd1cbaebf2de08d9173bc095c1790556ec097ce7bc90715b34b9f1000000000600d5562015180600e55690a968163f0a57b400000600f5534801561008057600080fd5b5060405161138238038061138283398101604081905261009f91610124565b6001600160a01b0382166100c7577310ed43c718714eb63d5aa57b78b54704e256024e6100c9565b815b600380546001600160a01b039283166001600160a01b031991821617909155600080548216331790556004805493909216921691909117905550610156565b80516001600160a01b038116811461011f57600080fd5b919050565b60008060408385031215610136578182fd5b61013f83610108565b915061014d60208401610108565b90509250929050565b61121d806101656000396000f3fe6080604052600436106100fe5760003560e01c80638272319211610095578063e2d2e21911610064578063e2d2e2191461025b578063efca2eed14610270578063f0fc6bca14610285578063ffb2c4791461029a578063ffd49c84146102ba576100fe565b806382723192146101ef578063997664d71461020f578063ce7c2ac214610224578063d0e30db014610253576100fe565b80632d48e896116100d15780632d48e896146101905780633a98ef39146101b05780633b59f935146101c55780634fab0ae8146101da576100fe565b8063092b32dd1461010357806311ce023d1461013957806314b6ca961461014e57806328fd319814610170575b600080fd5b34801561010f57600080fd5b5061012361011e366004610fdf565b6102cf565b6040516101309190611129565b60405180910390f35b34801561014557600080fd5b5061012361033d565b34801561015a57600080fd5b5061016e610169366004610ff9565b610343565b005b34801561017c57600080fd5b5061012361018b366004610fdf565b610468565b34801561019c57600080fd5b5061016e6101ab366004611072565b6104f2565b3480156101bc57600080fd5b50610123610514565b3480156101d157600080fd5b5061012361051a565b3480156101e657600080fd5b50610123610574565b3480156101fb57600080fd5b5061016e61020a366004610ff9565b61057a565b34801561021b57600080fd5b50610123610654565b34801561023057600080fd5b5061024461023f366004610fdf565b61065a565b60405161013093929190611132565b61016e61067b565b34801561026757600080fd5b506101236108e8565b34801561027c57600080fd5b506101236108ee565b34801561029157600080fd5b5061016e6108f4565b3480156102a657600080fd5b5061016e6102b5366004611042565b610923565b3480156102c657600080fd5b50610123610a42565b600e546001600160a01b03821660009081526007602052604081205490916102f691611148565b42111561030557506000610338565b6001600160a01b038216600090815260076020526040902054610328904261119f565b600e54610335919061119f565b90505b919050565b600d5481565b6000546001600160a01b0316331461035a57600080fd5b6001600160a01b038216600090815260086020526040902054156103815761038182610a48565b6000811180156103a757506001600160a01b038216600090815260086020526040902054155b156103ba576103b582610b73565b6103ed565b801580156103df57506001600160a01b03821660009081526008602052604090205415155b156103ed576103ed82610bd4565b6001600160a01b03821660009081526008602052604090205460095461041e91839161041891610d21565b90610d34565b6009556001600160a01b038216600090815260086020526040902081905561044581610d40565b6001600160a01b0390921660009081526008602052604090206001019190915550565b6001600160a01b03811660009081526008602052604081205461048d57506000610338565b6001600160a01b0382166000908152600860205260408120546104af90610d40565b6001600160a01b0384166000908152600860205260409020600101549091508082116104e057600092505050610338565b6104ea8282610d21565b949350505050565b6000546001600160a01b0316331461050957600080fd5b600e91909155600f55565b60095481565b600e5433600090815260076020526040812054909161053891611148565b42111561054757506000610571565b33600090815260076020526040902054610561904261119f565b600e5461056e919061119f565b90505b90565b600f5481565b6000546001600160a01b0316331461059157600080fd5b60015460405163a9059cbb60e01b81526001600160a01b039091169063a9059cbb906105c390859085906004016110a7565b602060405180830381600087803b1580156105dd57600080fd5b505af11580156105f1573d6000803e3d6000fd5b505050506040513d601f19601f820116820180604052508101906106159190611022565b50600a546106239082610d21565b600a55600954600d5461064d916106449161063e9085610d5d565b90610d69565b600c5490610d21565b600c555050565b600a5481565b60086020526000908152604090208054600182015460029092015490919083565b6000546001600160a01b0316331461069257600080fd5b6001546040516370a0823160e01b81526000916001600160a01b0316906370a08231906106c3903090600401611093565b60206040518083038186803b1580156106db57600080fd5b505afa1580156106ef573d6000803e3d6000fd5b505050506040513d601f19601f82011682018060405250810190610713919061105a565b6040805160028082526060820183529293506000929091602083019080368337505060025482519293506001600160a01b03169183915060009061076757634e487b7160e01b600052603260045260246000fd5b6001600160a01b03928316602091820292909201015260018054835192169183919081106107a557634e487b7160e01b600052603260045260246000fd5b6001600160a01b03928316602091820292909201015260035460405163b6f9de9560e01b815291169063b6f9de959034906107eb906000908690309042906004016110c0565b6000604051808303818588803b15801561080457600080fd5b505af1158015610818573d6000803e3d6000fd5b50506001546040516370a0823160e01b8152600094506108ac93508692506001600160a01b03909116906370a0823190610856903090600401611093565b60206040518083038186803b15801561086e57600080fd5b505afa158015610882573d6000803e3d6000fd5b505050506040513d601f19601f820116820180604052508101906108a6919061105a565b90610d21565b600a549091506108bc9082610d34565b600a55600954600d546108e0916108d79161063e9085610d5d565b600c5490610d34565b600c55505050565b600c5481565b600b5481565b600e5433600090815260076020526040902054429161091291611148565b10156109215761092133610a48565b565b6000546001600160a01b0316331461093a57600080fd5b600554806109485750610a3f565b6000805a905060005b848310801561095f57508381105b15610a3a5783601054106109735760006010555b6109b360056010548154811061099957634e487b7160e01b600052603260045260246000fd5b6000918252602090912001546001600160a01b0316610d75565b156109f8576109f86005601054815481106109de57634e487b7160e01b600052603260045260246000fd5b6000918252602090912001546001600160a01b0316610a48565b610a0d610a065a8490610d21565b8490610d34565b92505a601080549193506000610a22836111b6565b91905055508080610a32906111b6565b915050610951565b505050505b50565b600e5481565b6001600160a01b038116600090815260086020526040902054610a6a57610a3f565b6000610a7582610468565b90508015610b6f57600b54610a8a9082610d34565b600b5560015460405163a9059cbb60e01b81526001600160a01b039091169063a9059cbb90610abf90859085906004016110a7565b602060405180830381600087803b158015610ad957600080fd5b505af1158015610aed573d6000803e3d6000fd5b505050506040513d601f19601f82011682018060405250810190610b119190611022565b506001600160a01b03821660009081526007602090815260408083204290556008909152902060020154610b459082610d34565b6001600160a01b038316600090815260086020526040902060028101919091555461044590610d40565b5050565b600580546001600160a01b039092166000818152600660205260408120849055600184018355919091527f036b6384b5eca791c62761152d0c79bb0604c104a5fb6f4eb0703f3154bb3db090910180546001600160a01b0319169091179055565b60058054610be49060019061119f565b81548110610c0257634e487b7160e01b600052603260045260246000fd5b60009182526020808320909101546001600160a01b0384811684526006909252604090922054600580549290931692918110610c4e57634e487b7160e01b600052603260045260246000fd5b600091825260208083209190910180546001600160a01b0319166001600160a01b03948516179055918316815260069182905260408120546005805491939291610c9a9060019061119f565b81548110610cb857634e487b7160e01b600052603260045260246000fd5b60009182526020808320909101546001600160a01b031683528201929092526040019020556005805480610cfc57634e487b7160e01b600052603160045260246000fd5b600082815260209020810160001990810180546001600160a01b031916905501905550565b6000610d2d828461119f565b9392505050565b6000610d2d8284611148565b6000610335600d5461063e600c5485610d5d90919063ffffffff16565b6000610d2d8284611180565b6000610d2d8284611160565b600e546001600160a01b03821660009081526007602052604081205490914291610d9f9190611148565b108015610db55750600f54610db383610468565b115b801561033557506004805460408051632846b95160e01b815290516001600160a01b0390921692632846b951928282019260209290829003018186803b158015610dfe57600080fd5b505afa158015610e12573d6000803e3d6000fd5b505050506040513d601f19601f82011682018060405250810190610e369190611022565b158061033557506004805460408051632846b95160e01b815290516001600160a01b0390921692632846b951928282019260209290829003018186803b158015610e7f57600080fd5b505afa158015610e93573d6000803e3d6000fd5b505050506040513d601f19601f82011682018060405250810190610eb79190611022565b8015610335575060048054604080516323c53ee360e21b815290516001600160a01b0390921692638f14fb8c928282019260209290829003018186803b158015610f0057600080fd5b505afa158015610f14573d6000803e3d6000fd5b505050506040513d601f19601f82011682018060405250810190610f38919061105a565b600480546040516330355ba960e11b81526001600160a01b039091169163606ab75291610f6791879101611093565b60206040518083038186803b158015610f7f57600080fd5b505afa158015610f93573d6000803e3d6000fd5b505050506040513d601f19601f82011682018060405250810190610fb7919061105a565b610fc1904261119f565b1092915050565b80356001600160a01b038116811461033857600080fd5b600060208284031215610ff0578081fd5b610d2d82610fc8565b6000806040838503121561100b578081fd5b61101483610fc8565b946020939093013593505050565b600060208284031215611033578081fd5b81518015158114610d2d578182fd5b600060208284031215611053578081fd5b5035919050565b60006020828403121561106b578081fd5b5051919050565b60008060408385031215611084578182fd5b50508035926020909101359150565b6001600160a01b0391909116815260200190565b6001600160a01b03929092168252602082015260400190565b600060808201868352602060808185015281875180845260a0860191508289019350845b818110156111095784516001600160a01b0316835293830193918301916001016110e4565b50506001600160a01b039690961660408501525050506060015292915050565b90815260200190565b9283526020830191909152604082015260600190565b6000821982111561115b5761115b6111d1565b500190565b60008261117b57634e487b7160e01b81526012600452602481fd5b500490565b600081600019048311821515161561119a5761119a6111d1565b500290565b6000828210156111b1576111b16111d1565b500390565b60006000198214156111ca576111ca6111d1565b5060010190565b634e487b7160e01b600052601160045260246000fdfea2646970667358221220bf9beb365119c720af1f4a0f82856c6a0e8a39f52e6a838f8ceff3c81ba36fa864736f6c63430008000033",
			"opcodes": "PUSH1 0x80 PUSH1 0x40 MSTORE PUSH1 0x2 DUP1 SLOAD PUSH1 0x1 PUSH1 0x1 PUSH1 0xA0 SHL SUB NOT SWAP1 DUP2 AND PUSH20 0x2859E4544C4BB03966803B044A93563BD2D0DD4D OR SWAP1 SWAP2 SSTORE PUSH1 0x3 DUP1 SLOAD DUP3 AND PUSH20 0xBB4CDB9CBD36B01BD1CBAEBF2DE08D9173BC095C OR SWAP1 SSTORE PUSH1 0x4 DUP1 SLOAD DUP3 AND PUSH2 0xDEAD SWAP1 DUP2 OR SWAP1 SWAP2 SSTORE PUSH1 0x5 DUP1 SLOAD DUP4 AND SWAP1 SSTORE PUSH1 0x6 DUP1 SLOAD SWAP1 SWAP3 AND OR SWAP1 SSTORE PUSH3 0x7A PUSH1 0x9 PUSH1 0xA PUSH3 0x669 JUMP JUMPDEST PUSH3 0x8D SWAP1 PUSH7 0x38D7EA4C68000 PUSH3 0x754 JUMP JUMPDEST PUSH1 0x7 SSTORE PUSH3 0xAE PUSH2 0x190 PUSH1 0x7 SLOAD PUSH3 0x520 PUSH1 0x20 SHL PUSH3 0x1C2A OR SWAP1 SWAP2 SWAP1 PUSH1 0x20 SHR JUMP JUMPDEST PUSH1 0x8 SSTORE PUSH1 0xC8 PUSH1 0xE DUP2 SWAP1 SSTORE PUSH2 0x12C PUSH1 0xF SSTORE PUSH2 0x320 PUSH1 0x10 SSTORE PUSH1 0x64 PUSH1 0x11 DUP2 SWAP1 SSTORE PUSH2 0x578 PUSH1 0x12 SSTORE PUSH2 0x2710 PUSH1 0x13 SSTORE PUSH1 0x19 PUSH1 0x16 SSTORE PUSH1 0x17 DUP2 SWAP1 SSTORE PUSH1 0x1C SWAP2 SWAP1 SWAP2 SSTORE PUSH1 0x1D SSTORE PUSH2 0x708 PUSH1 0x1F SSTORE PUSH1 0x20 DUP1 SLOAD PUSH1 0xFF NOT SWAP1 DUP2 AND SWAP1 SWAP2 SSTORE PUSH3 0x7A120 PUSH1 0x29 SSTORE PUSH1 0x2A DUP1 SLOAD SWAP1 SWAP2 AND PUSH1 0x1 OR SWAP1 SSTORE PUSH1 0x7 SLOAD PUSH3 0x122 SWAP1 PUSH2 0x7D0 SWAP1 PUSH3 0x5FB JUMP JUMPDEST PUSH1 0x2B SSTORE PUSH1 0x2C DUP1 SLOAD PUSH2 0xFF00 NOT SWAP1 DUP2 AND SWAP1 SWAP2 SSTORE PUSH3 0x76A700 PUSH1 0x2E SSTORE PUSH1 0x33 DUP1 SLOAD PUSH1 0xFF NOT AND PUSH1 0x1 OR SWAP1 SWAP2 AND PUSH2 0x100 OR SWAP1 SSTORE CALLVALUE DUP1 ISZERO PUSH3 0x15B JUMPI PUSH1 0x0 DUP1 REVERT JUMPDEST POP PUSH1 0x40 MLOAD PUSH3 0x4A2E CODESIZE SUB DUP1 PUSH3 0x4A2E DUP4 CODECOPY DUP2 ADD PUSH1 0x40 DUP2 SWAP1 MSTORE PUSH3 0x17E SWAP2 PUSH3 0x5AF JUMP JUMPDEST PUSH1 0x0 DUP1 SLOAD PUSH1 0x1 PUSH1 0x1 PUSH1 0xA0 SHL SUB NOT SWAP1 DUP2 AND CALLER SWAP1 DUP2 OR DUP4 SSTORE DUP3 MSTORE PUSH1 0x1 PUSH1 0x20 DUP2 DUP2 MSTORE PUSH1 0x40 SWAP4 DUP5 SWAP1 KECCAK256 DUP1 SLOAD PUSH1 0xFF NOT AND SWAP1 SWAP3 OR SWAP1 SWAP2 SSTORE PUSH1 0x18 DUP1 SLOAD PUSH1 0x1 PUSH1 0x1 PUSH1 0xA0 SHL SUB DUP7 DUP2 AND SWAP2 SWAP1 SWAP5 AND OR SWAP1 DUP2 SWAP1 SSTORE DUP4 MLOAD PUSH4 0xC45A0155 PUSH1 0xE0 SHL DUP2 MSTORE SWAP4 MLOAD SWAP3 AND SWAP3 PUSH4 0xC45A0155 SWAP3 PUSH1 0x4 DUP1 DUP4 ADD SWAP4 SWAP3 DUP3 SWAP1 SUB ADD DUP2 DUP7 DUP1 EXTCODESIZE ISZERO DUP1 ISZERO PUSH3 0x1FA JUMPI PUSH1 0x0 DUP1 REVERT JUMPDEST POP GAS STATICCALL ISZERO DUP1 ISZERO PUSH3 0x20F JUMPI RETURNDATASIZE PUSH1 0x0 DUP1 RETURNDATACOPY RETURNDATASIZE PUSH1 0x0 REVERT JUMPDEST POP POP POP POP PUSH1 0x40 MLOAD RETURNDATASIZE PUSH1 0x1F NOT PUSH1 0x1F DUP3 ADD AND DUP3 ADD DUP1 PUSH1 0x40 MSTORE POP DUP2 ADD SWAP1 PUSH3 0x235 SWAP2 SWAP1 PUSH3 0x5AF JUMP JUMPDEST PUSH1 0x3 SLOAD PUSH1 0x40 MLOAD PUSH4 0x64E329CB PUSH1 0xE1 SHL DUP2 MSTORE PUSH1 0x1 PUSH1 0x1 PUSH1 0xA0 SHL SUB SWAP3 DUP4 AND SWAP3 PUSH4 0xC9C65396 SWAP3 PUSH3 0x26A SWAP3 SWAP2 AND SWAP1 ADDRESS SWAP1 PUSH1 0x4 ADD PUSH3 0x5D8 JUMP JUMPDEST PUSH1 0x20 PUSH1 0x40 MLOAD DUP1 DUP4 SUB DUP2 PUSH1 0x0 DUP8 DUP1 EXTCODESIZE ISZERO DUP1 ISZERO PUSH3 0x285 JUMPI PUSH1 0x0 DUP1 REVERT JUMPDEST POP GAS CALL ISZERO DUP1 ISZERO PUSH3 0x29A JUMPI RETURNDATASIZE PUSH1 0x0 DUP1 RETURNDATACOPY RETURNDATASIZE PUSH1 0x0 REVERT JUMPDEST POP POP POP POP PUSH1 0x40 MLOAD RETURNDATASIZE PUSH1 0x1F NOT PUSH1 0x1F DUP3 ADD AND DUP3 ADD DUP1 PUSH1 0x40 MSTORE POP DUP2 ADD SWAP1 PUSH3 0x2C0 SWAP2 SWAP1 PUSH3 0x5AF JUMP JUMPDEST PUSH1 0x19 DUP1 SLOAD PUSH1 0x1 PUSH1 0x1 PUSH1 0xA0 SHL SUB NOT AND PUSH1 0x1 PUSH1 0x1 PUSH1 0xA0 SHL SUB SWAP3 DUP4 AND OR SWAP1 SSTORE PUSH1 0x7 SLOAD ADDRESS PUSH1 0x0 SWAP1 DUP2 MSTORE PUSH1 0xA PUSH1 0x20 SWAP1 DUP2 MSTORE PUSH1 0x40 DUP1 DUP4 KECCAK256 PUSH1 0x18 DUP1 SLOAD DUP8 AND DUP6 MSTORE SWAP1 DUP4 MSTORE SWAP3 DUP2 SWAP1 KECCAK256 SWAP4 SWAP1 SWAP4 SSTORE SWAP1 SLOAD DUP3 MLOAD PUSH4 0x15AB88C9 PUSH1 0xE3 SHL DUP2 MSTORE SWAP3 MLOAD SWAP4 AND SWAP3 PUSH4 0xAD5C4648 SWAP3 PUSH1 0x4 DUP1 DUP3 ADD SWAP4 SWAP3 SWAP2 DUP3 SWAP1 SUB ADD DUP2 DUP7 DUP1 EXTCODESIZE ISZERO DUP1 ISZERO PUSH3 0x33A JUMPI PUSH1 0x0 DUP1 REVERT JUMPDEST POP GAS STATICCALL ISZERO DUP1 ISZERO PUSH3 0x34F JUMPI RETURNDATASIZE PUSH1 0x0 DUP1 RETURNDATACOPY RETURNDATASIZE PUSH1 0x0 REVERT JUMPDEST POP POP POP POP PUSH1 0x40 MLOAD RETURNDATASIZE PUSH1 0x1F NOT PUSH1 0x1F DUP3 ADD AND DUP3 ADD DUP1 PUSH1 0x40 MSTORE POP DUP2 ADD SWAP1 PUSH3 0x375 SWAP2 SWAP1 PUSH3 0x5AF JUMP JUMPDEST PUSH1 0x3 PUSH1 0x0 PUSH2 0x100 EXP DUP2 SLOAD DUP2 PUSH1 0x1 PUSH1 0x1 PUSH1 0xA0 SHL SUB MUL NOT AND SWAP1 DUP4 PUSH1 0x1 PUSH1 0x1 PUSH1 0xA0 SHL SUB AND MUL OR SWAP1 SSTORE POP DUP1 ADDRESS PUSH1 0x40 MLOAD PUSH3 0x3AB SWAP1 PUSH3 0x5A1 JUMP JUMPDEST PUSH3 0x3B8 SWAP3 SWAP2 SWAP1 PUSH3 0x5D8 JUMP JUMPDEST PUSH1 0x40 MLOAD DUP1 SWAP2 SUB SWAP1 PUSH1 0x0 CREATE DUP1 ISZERO DUP1 ISZERO PUSH3 0x3D5 JUMPI RETURNDATASIZE PUSH1 0x0 DUP1 RETURNDATACOPY RETURNDATASIZE PUSH1 0x0 REVERT JUMPDEST POP PUSH1 0x27 DUP1 SLOAD PUSH1 0x1 PUSH1 0x1 PUSH1 0xA0 SHL SUB SWAP3 DUP4 AND PUSH1 0x1 PUSH1 0x1 PUSH1 0xA0 SHL SUB NOT SWAP2 DUP3 AND OR SWAP2 DUP3 SWAP1 SSTORE PUSH1 0x28 DUP1 SLOAD DUP3 AND SWAP3 DUP5 AND SWAP3 SWAP1 SWAP3 OR SWAP1 SWAP2 SSTORE CALLER PUSH1 0x0 DUP2 DUP2 MSTORE PUSH1 0xB PUSH1 0x20 SWAP1 DUP2 MSTORE PUSH1 0x40 DUP1 DUP4 KECCAK256 DUP1 SLOAD PUSH1 0xFF NOT SWAP1 DUP2 AND PUSH1 0x1 SWAP1 DUP2 OR SWAP1 SWAP3 SSTORE PUSH1 0xC DUP5 MSTORE DUP3 DUP6 KECCAK256 DUP1 SLOAD DUP3 AND DUP4 OR SWAP1 SSTORE PUSH1 0x19 SLOAD DUP9 AND DUP6 MSTORE PUSH1 0xD DUP5 MSTORE DUP3 DUP6 KECCAK256 DUP1 SLOAD DUP3 AND DUP4 OR SWAP1 SSTORE ADDRESS DUP6 MSTORE DUP3 DUP6 KECCAK256 DUP1 SLOAD DUP3 AND DUP4 OR SWAP1 SSTORE PUSH1 0x4 SLOAD SWAP1 SWAP8 AND DUP5 MSTORE DUP2 DUP5 KECCAK256 DUP1 SLOAD DUP9 AND DUP3 OR SWAP1 SSTORE DUP5 DUP5 MSTORE PUSH1 0x21 SWAP1 SWAP3 MSTORE SWAP1 SWAP2 KECCAK256 DUP1 SLOAD SWAP1 SWAP5 AND OR SWAP1 SWAP3 SSTORE PUSH1 0x14 DUP1 SLOAD DUP3 AND DUP4 OR SWAP1 SSTORE PUSH1 0x15 DUP1 SLOAD SWAP1 SWAP2 AND SWAP1 SWAP2 OR SWAP1 SSTORE PUSH1 0x7 SLOAD PUSH3 0x4A8 SWAP1 DUP3 SWAP1 PUSH3 0x535 JUMP JUMPDEST POP PUSH1 0x19 SLOAD PUSH1 0x7 SLOAD PUSH3 0x4C4 SWAP2 PUSH1 0x1 PUSH1 0x1 PUSH1 0xA0 SHL SUB AND SWAP1 PUSH3 0x535 JUMP JUMPDEST POP PUSH1 0x7 SLOAD CALLER PUSH1 0x0 DUP2 DUP2 MSTORE PUSH1 0x9 PUSH1 0x20 MSTORE PUSH1 0x40 DUP1 DUP3 KECCAK256 DUP5 SWAP1 SSTORE TIMESTAMP PUSH1 0x32 SSTORE MLOAD SWAP2 SWAP3 SWAP1 SWAP2 PUSH32 0xDDF252AD1BE2C89B69C2B068FC378DAA952BA7F163C4A11628F55A4DF523B3EF SWAP2 PUSH3 0x511 SWAP2 PUSH3 0x5F2 JUMP JUMPDEST PUSH1 0x40 MLOAD DUP1 SWAP2 SUB SWAP1 LOG3 POP PUSH3 0x78C JUMP JUMPDEST PUSH1 0x0 PUSH3 0x52E DUP3 DUP5 PUSH3 0x5FB JUMP JUMPDEST SWAP4 SWAP3 POP POP POP JUMP JUMPDEST CALLER PUSH1 0x0 DUP2 DUP2 MSTORE PUSH1 0xA PUSH1 0x20 SWAP1 DUP2 MSTORE PUSH1 0x40 DUP1 DUP4 KECCAK256 PUSH1 0x1 PUSH1 0x1 PUSH1 0xA0 SHL SUB DUP8 AND DUP1 DUP6 MSTORE SWAP3 MSTORE DUP1 DUP4 KECCAK256 DUP6 SWAP1 SSTORE MLOAD SWAP2 SWAP3 SWAP1 SWAP2 PUSH32 0x8C5BE1E5EBEC7D5BD14F71427D1E84F3DD0314C0F7B2291E5B200AC8C7C3B925 SWAP1 PUSH3 0x590 SWAP1 DUP7 SWAP1 PUSH3 0x5F2 JUMP JUMPDEST PUSH1 0x40 MLOAD DUP1 SWAP2 SUB SWAP1 LOG3 POP PUSH1 0x1 SWAP3 SWAP2 POP POP JUMP JUMPDEST PUSH2 0x1382 DUP1 PUSH3 0x36AC DUP4 CODECOPY ADD SWAP1 JUMP JUMPDEST PUSH1 0x0 PUSH1 0x20 DUP3 DUP5 SUB SLT ISZERO PUSH3 0x5C1 JUMPI DUP1 DUP2 REVERT JUMPDEST DUP2 MLOAD PUSH1 0x1 PUSH1 0x1 PUSH1 0xA0 SHL SUB DUP2 AND DUP2 EQ PUSH3 0x52E JUMPI DUP2 DUP3 REVERT JUMPDEST PUSH1 0x1 PUSH1 0x1 PUSH1 0xA0 SHL SUB SWAP3 DUP4 AND DUP2 MSTORE SWAP2 AND PUSH1 0x20 DUP3 ADD MSTORE PUSH1 0x40 ADD SWAP1 JUMP JUMPDEST SWAP1 DUP2 MSTORE PUSH1 0x20 ADD SWAP1 JUMP JUMPDEST PUSH1 0x0 DUP3 PUSH3 0x617 JUMPI PUSH4 0x4E487B71 PUSH1 0xE0 SHL DUP2 MSTORE PUSH1 0x12 PUSH1 0x4 MSTORE PUSH1 0x24 DUP2 REVERT JUMPDEST POP DIV SWAP1 JUMP JUMPDEST DUP1 DUP3 JUMPDEST PUSH1 0x1 DUP1 DUP7 GT PUSH3 0x630 JUMPI POP PUSH3 0x660 JUMP JUMPDEST DUP2 DUP8 DIV DUP3 GT ISZERO PUSH3 0x645 JUMPI PUSH3 0x645 PUSH3 0x776 JUMP JUMPDEST DUP1 DUP7 AND ISZERO PUSH3 0x653 JUMPI SWAP2 DUP2 MUL SWAP2 JUMPDEST SWAP5 SWAP1 SWAP5 SHR SWAP4 DUP1 MUL PUSH3 0x61F JUMP JUMPDEST SWAP5 POP SWAP5 SWAP3 POP POP POP JUMP JUMPDEST PUSH1 0x0 PUSH3 0x52E PUSH1 0x0 NOT PUSH1 0xFF DUP6 AND DUP5 PUSH1 0x0 DUP3 PUSH3 0x688 JUMPI POP PUSH1 0x1 PUSH3 0x52E JUMP JUMPDEST DUP2 PUSH3 0x697 JUMPI POP PUSH1 0x0 PUSH3 0x52E JUMP JUMPDEST DUP2 PUSH1 0x1 DUP2 EQ PUSH3 0x6B0 JUMPI PUSH1 0x2 DUP2 EQ PUSH3 0x6BB JUMPI PUSH3 0x6EF JUMP JUMPDEST PUSH1 0x1 SWAP2 POP POP PUSH3 0x52E JUMP JUMPDEST PUSH1 0xFF DUP5 GT ISZERO PUSH3 0x6CF JUMPI PUSH3 0x6CF PUSH3 0x776 JUMP JUMPDEST PUSH1 0x1 DUP5 SHL SWAP2 POP DUP5 DUP3 GT ISZERO PUSH3 0x6E8 JUMPI PUSH3 0x6E8 PUSH3 0x776 JUMP JUMPDEST POP PUSH3 0x52E JUMP JUMPDEST POP PUSH1 0x20 DUP4 LT PUSH2 0x133 DUP4 LT AND PUSH1 0x4E DUP5 LT PUSH1 0xB DUP5 LT AND OR ISZERO PUSH3 0x727 JUMPI POP DUP2 DUP2 EXP DUP4 DUP2 GT ISZERO PUSH3 0x721 JUMPI PUSH3 0x721 PUSH3 0x776 JUMP JUMPDEST PUSH3 0x52E JUMP JUMPDEST PUSH3 0x736 DUP5 DUP5 DUP5 PUSH1 0x1 PUSH3 0x61C JUMP JUMPDEST DUP1 DUP7 DIV DUP3 GT ISZERO PUSH3 0x74B JUMPI PUSH3 0x74B PUSH3 0x776 JUMP JUMPDEST MUL SWAP5 SWAP4 POP POP POP POP JUMP JUMPDEST PUSH1 0x0 DUP2 PUSH1 0x0 NOT DIV DUP4 GT DUP3 ISZERO ISZERO AND ISZERO PUSH3 0x771 JUMPI PUSH3 0x771 PUSH3 0x776 JUMP JUMPDEST POP MUL SWAP1 JUMP JUMPDEST PUSH4 0x4E487B71 PUSH1 0xE0 SHL PUSH1 0x0 MSTORE PUSH1 0x11 PUSH1 0x4 MSTORE PUSH1 0x24 PUSH1 0x0 REVERT JUMPDEST PUSH2 0x2F10 DUP1 PUSH3 0x79C PUSH1 0x0 CODECOPY PUSH1 0x0 RETURN INVALID PUSH1 0x80 PUSH1 0x40 MSTORE PUSH1 0x4 CALLDATASIZE LT PUSH2 0x3E8 JUMPI PUSH1 0x0 CALLDATALOAD PUSH1 0xE0 SHR DUP1 PUSH4 0x8FE42F46 GT PUSH2 0x208 JUMPI DUP1 PUSH4 0xD3CD253C GT PUSH2 0x118 JUMPI DUP1 PUSH4 0xE96FADA2 GT PUSH2 0xAB JUMPI DUP1 PUSH4 0xF5CFEC0A GT PUSH2 0x7A JUMPI DUP1 PUSH4 0xF5CFEC0A EQ PUSH2 0xAD7 JUMPI DUP1 PUSH4 0xF708A64F EQ PUSH2 0xAF7 JUMPI DUP1 PUSH4 0xF84BA65D EQ PUSH2 0xB17 JUMPI DUP1 PUSH4 0xF887EA40 EQ PUSH2 0xB37 JUMPI DUP1 PUSH4 0xFE9FBB80 EQ PUSH2 0xB4C JUMPI PUSH2 0x3EF JUMP JUMPDEST DUP1 PUSH4 0xE96FADA2 EQ PUSH2 0xA62 JUMPI DUP1 PUSH4 0xF0B37C04 EQ PUSH2 0xA77 JUMPI DUP1 PUSH4 0xF1F3BCA3 EQ PUSH2 0xA97 JUMPI DUP1 PUSH4 0xF2FDE38B EQ PUSH2 0xAB7 JUMPI PUSH2 0x3EF JUMP JUMPDEST DUP1 PUSH4 0xDD62ED3E GT PUSH2 0xE7 JUMPI DUP1 PUSH4 0xDD62ED3E EQ PUSH2 0x9ED JUMPI DUP1 PUSH4 0xDF20FD49 EQ PUSH2 0xA0D JUMPI DUP1 PUSH4 0xE74EF52E EQ PUSH2 0xA2D JUMPI DUP1 PUSH4 0xE91F214E EQ PUSH2 0xA4D JUMPI PUSH2 0x3EF JUMP JUMPDEST DUP1 PUSH4 0xD3CD253C EQ PUSH2 0x98E JUMPI DUP1 PUSH4 0xD51ED1C8 EQ PUSH2 0x9A3 JUMPI DUP1 PUSH4 0xD806D12F EQ PUSH2 0x9C3 JUMPI DUP1 PUSH4 0xDB882E04 EQ PUSH2 0x9D8 JUMPI PUSH2 0x3EF JUMP JUMPDEST DUP1 PUSH4 0xB210B06D GT PUSH2 0x19B JUMPI DUP1 PUSH4 0xBF56B371 GT PUSH2 0x16A JUMPI DUP1 PUSH4 0xBF56B371 EQ PUSH2 0x927 JUMPI DUP1 PUSH4 0xC0F71B80 EQ PUSH2 0x93C JUMPI DUP1 PUSH4 0xC6D2577D EQ PUSH2 0x95C JUMPI DUP1 PUSH4 0xCA33E64C EQ PUSH2 0x971 JUMPI DUP1 PUSH4 0xD0E30DB0 EQ PUSH2 0x986 JUMPI PUSH2 0x3EF JUMP JUMPDEST DUP1 PUSH4 0xB210B06D EQ PUSH2 0x8B2 JUMPI DUP1 PUSH4 0xB6A5D7DE EQ PUSH2 0x8C7 JUMPI DUP1 PUSH4 0xB83F9599 EQ PUSH2 0x8E7 JUMPI DUP1 PUSH4 0xBF3AA779 EQ PUSH2 0x907 JUMPI PUSH2 0x3EF JUMP JUMPDEST DUP1 PUSH4 0xA4B45C00 GT PUSH2 0x1D7 JUMPI DUP1 PUSH4 0xA4B45C00 EQ PUSH2 0x848 JUMPI DUP1 PUSH4 0xA51AF4C5 EQ PUSH2 0x868 JUMPI DUP1 PUSH4 0xA8AA1B31 EQ PUSH2 0x87D JUMPI DUP1 PUSH4 0xA9059CBB EQ PUSH2 0x892 JUMPI PUSH2 0x3EF JUMP JUMPDEST DUP1 PUSH4 0x8FE42F46 EQ PUSH2 0x7D1 JUMPI DUP1 PUSH4 0x95D89B41 EQ PUSH2 0x7F1 JUMPI DUP1 PUSH4 0x9D1944F5 EQ PUSH2 0x806 JUMPI DUP1 PUSH4 0xA39FAC12 EQ PUSH2 0x826 JUMPI PUSH2 0x3EF JUMP JUMPDEST DUP1 PUSH4 0x2D48E896 GT PUSH2 0x303 JUMPI DUP1 PUSH4 0x658D4B7F GT PUSH2 0x296 JUMPI DUP1 PUSH4 0x7D1DB4A5 GT PUSH2 0x265 JUMPI DUP1 PUSH4 0x7D1DB4A5 EQ PUSH2 0x750 JUMPI DUP1 PUSH4 0x82723192 EQ PUSH2 0x765 JUMPI DUP1 PUSH4 0x893D20E8 EQ PUSH2 0x785 JUMPI DUP1 PUSH4 0x8DD95002 EQ PUSH2 0x7A7 JUMPI DUP1 PUSH4 0x8F14FB8C EQ PUSH2 0x7BC JUMPI PUSH2 0x3EF JUMP JUMPDEST DUP1 PUSH4 0x658D4B7F EQ PUSH2 0x6DB JUMPI DUP1 PUSH4 0x6DDD1713 EQ PUSH2 0x6FB JUMPI DUP1 PUSH4 0x70A08231 EQ PUSH2 0x710 JUMPI DUP1 PUSH4 0x725DDF4A EQ PUSH2 0x730 JUMPI PUSH2 0x3EF JUMP JUMPDEST DUP1 PUSH4 0x40F0A14A GT PUSH2 0x2D2 JUMPI DUP1 PUSH4 0x40F0A14A EQ PUSH2 0x65B JUMPI DUP1 PUSH4 0x571AC8B0 EQ PUSH2 0x67B JUMPI DUP1 PUSH4 0x5C85974F EQ PUSH2 0x69B JUMPI DUP1 PUSH4 0x606AB752 EQ PUSH2 0x6BB JUMPI PUSH2 0x3EF JUMP JUMPDEST DUP1 PUSH4 0x2D48E896 EQ PUSH2 0x5E4 JUMPI DUP1 PUSH4 0x2F54BF6E EQ PUSH2 0x604 JUMPI DUP1 PUSH4 0x313CE567 EQ PUSH2 0x624 JUMPI DUP1 PUSH4 0x3BB8A8D4 EQ PUSH2 0x646 JUMPI PUSH2 0x3EF JUMP JUMPDEST DUP1 PUSH4 0x1BBCCE44 GT PUSH2 0x37B JUMPI DUP1 PUSH4 0x25449AC4 GT PUSH2 0x34A JUMPI DUP1 PUSH4 0x25449AC4 EQ PUSH2 0x57A JUMPI DUP1 PUSH4 0x2846B951 EQ PUSH2 0x59A JUMPI DUP1 PUSH4 0x2B0EA03D EQ PUSH2 0x5AF JUMPI DUP1 PUSH4 0x2B112E49 EQ PUSH2 0x5CF JUMPI PUSH2 0x3EF JUMP JUMPDEST DUP1 PUSH4 0x1BBCCE44 EQ PUSH2 0x4FA JUMPI DUP1 PUSH4 0x201E7991 EQ PUSH2 0x51A JUMPI DUP1 PUSH4 0x2375CE40 EQ PUSH2 0x53A JUMPI DUP1 PUSH4 0x23B872DD EQ PUSH2 0x55A JUMPI PUSH2 0x3EF JUMP JUMPDEST DUP1 PUSH4 0x6FDDE03 GT PUSH2 0x3B7 JUMPI DUP1 PUSH4 0x6FDDE03 EQ PUSH2 0x476 JUMPI DUP1 PUSH4 0x95EA7B3 EQ PUSH2 0x498 JUMPI DUP1 PUSH4 0x1161AE39 EQ PUSH2 0x4C5 JUMPI DUP1 PUSH4 0x18160DDD EQ PUSH2 0x4E5 JUMPI PUSH2 0x3EF JUMP JUMPDEST DUP1 PUSH4 0x1339C21 EQ PUSH2 0x3F4 JUMPI DUP1 PUSH4 0x445B667 EQ PUSH2 0x40B JUMPI DUP1 PUSH4 0x48C7BAF EQ PUSH2 0x436 JUMPI DUP1 PUSH4 0x4A66B48 EQ PUSH2 0x456 JUMPI PUSH2 0x3EF JUMP JUMPDEST CALLDATASIZE PUSH2 0x3EF JUMPI STOP JUMPDEST PUSH1 0x0 DUP1 REVERT JUMPDEST CALLVALUE DUP1 ISZERO PUSH2 0x400 JUMPI PUSH1 0x0 DUP1 REVERT JUMPDEST POP PUSH2 0x409 PUSH2 0xB6C JUMP JUMPDEST STOP JUMPDEST CALLVALUE DUP1 ISZERO PUSH2 0x417 JUMPI PUSH1 0x0 DUP1 REVERT JUMPDEST POP PUSH2 0x420 PUSH2 0xBC4 JUMP JUMPDEST PUSH1 0x40 MLOAD PUSH2 0x42D SWAP2 SWAP1 PUSH2 0x2DD2 JUMP JUMPDEST PUSH1 0x40 MLOAD DUP1 SWAP2 SUB SWAP1 RETURN JUMPDEST CALLVALUE DUP1 ISZERO PUSH2 0x442 JUMPI PUSH1 0x0 DUP1 REVERT JUMPDEST POP PUSH2 0x409 PUSH2 0x451 CALLDATASIZE PUSH1 0x4 PUSH2 0x2A0E JUMP JUMPDEST PUSH2 0xBCA JUMP JUMPDEST CALLVALUE DUP1 ISZERO PUSH2 0x462 JUMPI PUSH1 0x0 DUP1 REVERT JUMPDEST POP PUSH2 0x409 PUSH2 0x471 CALLDATASIZE PUSH1 0x4 PUSH2 0x2B15 JUMP JUMPDEST PUSH2 0xC18 JUMP JUMPDEST CALLVALUE DUP1 ISZERO PUSH2 0x482 JUMPI PUSH1 0x0 DUP1 REVERT JUMPDEST POP PUSH2 0x48B PUSH2 0xC8E JUMP JUMPDEST PUSH1 0x40 MLOAD PUSH2 0x42D SWAP2 SWAP1 PUSH2 0x2C4D JUMP JUMPDEST CALLVALUE DUP1 ISZERO PUSH2 0x4A4 JUMPI PUSH1 0x0 DUP1 REVERT JUMPDEST POP PUSH2 0x4B8 PUSH2 0x4B3 CALLDATASIZE PUSH1 0x4 PUSH2 0x29A7 JUMP JUMPDEST PUSH2 0xCB4 JUMP JUMPDEST PUSH1 0x40 MLOAD PUSH2 0x42D SWAP2 SWAP1 PUSH2 0x2C0D JUMP JUMPDEST CALLVALUE DUP1 ISZERO PUSH2 0x4D1 JUMPI PUSH1 0x0 DUP1 REVERT JUMPDEST POP PUSH2 0x4B8 PUSH2 0x4E0 CALLDATASIZE PUSH1 0x4 PUSH2 0x2A9C JUMP JUMPDEST PUSH2 0xD1E JUMP JUMPDEST CALLVALUE DUP1 ISZERO PUSH2 0x4F1 JUMPI PUSH1 0x0 DUP1 REVERT JUMPDEST POP PUSH2 0x420 PUSH2 0xD32 JUMP JUMPDEST CALLVALUE DUP1 ISZERO PUSH2 0x506 JUMPI PUSH1 0x0 DUP1 REVERT JUMPDEST POP PUSH2 0x409 PUSH2 0x515 CALLDATASIZE PUSH1 0x4 PUSH2 0x29B9 JUMP JUMPDEST PUSH2 0xD38 JUMP JUMPDEST CALLVALUE DUP1 ISZERO PUSH2 0x526 JUMPI PUSH1 0x0 DUP1 REVERT JUMPDEST POP PUSH2 0x409 PUSH2 0x535 CALLDATASIZE PUSH1 0x4 PUSH2 0x2A9C JUMP JUMPDEST PUSH2 0xD77 JUMP JUMPDEST CALLVALUE DUP1 ISZERO PUSH2 0x546 JUMPI PUSH1 0x0 DUP1 REVERT JUMPDEST POP PUSH2 0x409 PUSH2 0x555 CALLDATASIZE PUSH1 0x4 PUSH2 0x2ABD JUMP JUMPDEST PUSH2 0xDA7 JUMP JUMPDEST CALLVALUE DUP1 ISZERO PUSH2 0x566 JUMPI PUSH1 0x0 DUP1 REVERT JUMPDEST POP PUSH2 0x4B8 PUSH2 0x575 CALLDATASIZE PUSH1 0x4 PUSH2 0x293A JUMP JUMPDEST PUSH2 0xDFC JUMP JUMPDEST CALLVALUE DUP1 ISZERO PUSH2 0x586 JUMPI PUSH1 0x0 DUP1 REVERT JUMPDEST POP PUSH2 0x409 PUSH2 0x595 CALLDATASIZE PUSH1 0x4 PUSH2 0x29A7 JUMP JUMPDEST PUSH2 0xEC0 JUMP JUMPDEST CALLVALUE DUP1 ISZERO PUSH2 0x5A6 JUMPI PUSH1 0x0 DUP1 REVERT JUMPDEST POP PUSH2 0x4B8 PUSH2 0xF75 JUMP JUMPDEST CALLVALUE DUP1 ISZERO PUSH2 0x5BB JUMPI PUSH1 0x0 DUP1 REVERT JUMPDEST POP PUSH2 0x420 PUSH2 0x5CA CALLDATASIZE PUSH1 0x4 PUSH2 0x28BB JUMP JUMPDEST PUSH2 0xF83 JUMP JUMPDEST CALLVALUE DUP1 ISZERO PUSH2 0x5DB JUMPI PUSH1 0x0 DUP1 REVERT JUMPDEST POP PUSH2 0x420 PUSH2 0xFDA JUMP JUMPDEST CALLVALUE DUP1 ISZERO PUSH2 0x5F0 JUMPI PUSH1 0x0 DUP1 REVERT JUMPDEST POP PUSH2 0x409 PUSH2 0x5FF CALLDATASIZE PUSH1 0x4 PUSH2 0x2A9C JUMP JUMPDEST PUSH2 0x1023 JUMP JUMPDEST CALLVALUE DUP1 ISZERO PUSH2 0x610 JUMPI PUSH1 0x0 DUP1 REVERT JUMPDEST POP PUSH2 0x4B8 PUSH2 0x61F CALLDATASIZE PUSH1 0x4 PUSH2 0x28BB JUMP JUMPDEST PUSH2 0x10B0 JUMP JUMPDEST CALLVALUE DUP1 ISZERO PUSH2 0x630 JUMPI PUSH1 0x0 DUP1 REVERT JUMPDEST POP PUSH2 0x639 PUSH2 0x10C4 JUMP JUMPDEST PUSH1 0x40 MLOAD PUSH2 0x42D SWAP2 SWAP1 PUSH2 0x2E25 JUMP JUMPDEST CALLVALUE DUP1 ISZERO PUSH2 0x652 JUMPI PUSH1 0x0 DUP1 REVERT JUMPDEST POP PUSH2 0x4B8 PUSH2 0x10C9 JUMP JUMPDEST CALLVALUE DUP1 ISZERO PUSH2 0x667 JUMPI PUSH1 0x0 DUP1 REVERT JUMPDEST POP PUSH2 0x409 PUSH2 0x676 CALLDATASIZE PUSH1 0x4 PUSH2 0x29B9 JUMP JUMPDEST PUSH2 0x10D2 JUMP JUMPDEST CALLVALUE DUP1 ISZERO PUSH2 0x687 JUMPI PUSH1 0x0 DUP1 REVERT JUMPDEST POP PUSH2 0x4B8 PUSH2 0x696 CALLDATASIZE PUSH1 0x4 PUSH2 0x28BB JUMP JUMPDEST PUSH2 0x110A JUMP JUMPDEST CALLVALUE DUP1 ISZERO PUSH2 0x6A7 JUMPI PUSH1 0x0 DUP1 REVERT JUMPDEST POP PUSH2 0x409 PUSH2 0x6B6 CALLDATASIZE PUSH1 0x4 PUSH2 0x2A48 JUMP JUMPDEST PUSH2 0x111E JUMP JUMPDEST CALLVALUE DUP1 ISZERO PUSH2 0x6C7 JUMPI PUSH1 0x0 DUP1 REVERT JUMPDEST POP PUSH2 0x420 PUSH2 0x6D6 CALLDATASIZE PUSH1 0x4 PUSH2 0x28BB JUMP JUMPDEST PUSH2 0x1165 JUMP JUMPDEST CALLVALUE DUP1 ISZERO PUSH2 0x6E7 JUMPI PUSH1 0x0 DUP1 REVERT JUMPDEST POP PUSH2 0x409 PUSH2 0x6F6 CALLDATASIZE PUSH1 0x4 PUSH2 0x297A JUMP JUMPDEST PUSH2 0x1180 JUMP JUMPDEST CALLVALUE DUP1 ISZERO PUSH2 0x707 JUMPI PUSH1 0x0 DUP1 REVERT JUMPDEST POP PUSH2 0x4B8 PUSH2 0x11D0 JUMP JUMPDEST CALLVALUE DUP1 ISZERO PUSH2 0x71C JUMPI PUSH1 0x0 DUP1 REVERT JUMPDEST POP PUSH2 0x420 PUSH2 0x72B CALLDATASIZE PUSH1 0x4 PUSH2 0x28BB JUMP JUMPDEST PUSH2 0x11D9 JUMP JUMPDEST CALLVALUE DUP1 ISZERO PUSH2 0x73C JUMPI PUSH1 0x0 DUP1 REVERT JUMPDEST POP PUSH2 0x409 PUSH2 0x74B CALLDATASIZE PUSH1 0x4 PUSH2 0x29B9 JUMP JUMPDEST PUSH2 0x11F4 JUMP JUMPDEST CALLVALUE DUP1 ISZERO PUSH2 0x75C JUMPI PUSH1 0x0 DUP1 REVERT JUMPDEST POP PUSH2 0x420 PUSH2 0x1233 JUMP JUMPDEST CALLVALUE DUP1 ISZERO PUSH2 0x771 JUMPI PUSH1 0x0 DUP1 REVERT JUMPDEST POP PUSH2 0x409 PUSH2 0x780 CALLDATASIZE PUSH1 0x4 PUSH2 0x29A7 JUMP JUMPDEST PUSH2 0x1239 JUMP JUMPDEST CALLVALUE DUP1 ISZERO PUSH2 0x791 JUMPI PUSH1 0x0 DUP1 REVERT JUMPDEST POP PUSH2 0x79A PUSH2 0x1290 JUMP JUMPDEST PUSH1 0x40 MLOAD PUSH2 0x42D SWAP2 SWAP1 PUSH2 0x2B92 JUMP JUMPDEST CALLVALUE DUP1 ISZERO PUSH2 0x7B3 JUMPI PUSH1 0x0 DUP1 REVERT JUMPDEST POP PUSH2 0x79A PUSH2 0x129F JUMP JUMPDEST CALLVALUE DUP1 ISZERO PUSH2 0x7C8 JUMPI PUSH1 0x0 DUP1 REVERT JUMPDEST POP PUSH2 0x420 PUSH2 0x12AE JUMP JUMPDEST CALLVALUE DUP1 ISZERO PUSH2 0x7DD JUMPI PUSH1 0x0 DUP1 REVERT JUMPDEST POP PUSH2 0x409 PUSH2 0x7EC CALLDATASIZE PUSH1 0x4 PUSH2 0x28BB JUMP JUMPDEST PUSH2 0x12B4 JUMP JUMPDEST CALLVALUE DUP1 ISZERO PUSH2 0x7FD JUMPI PUSH1 0x0 DUP1 REVERT JUMPDEST POP PUSH2 0x48B PUSH2 0x12FD JUMP JUMPDEST CALLVALUE DUP1 ISZERO PUSH2 0x812 JUMPI PUSH1 0x0 DUP1 REVERT JUMPDEST POP PUSH2 0x409 PUSH2 0x821 CALLDATASIZE PUSH1 0x4 PUSH2 0x2A48 JUMP JUMPDEST PUSH2 0x131D JUMP JUMPDEST CALLVALUE DUP1 ISZERO PUSH2 0x832 JUMPI PUSH1 0x0 DUP1 REVERT JUMPDEST POP PUSH2 0x83B PUSH2 0x1366 JUMP JUMPDEST PUSH1 0x40 MLOAD PUSH2 0x42D SWAP2 SWAP1 PUSH2 0x2BFA JUMP JUMPDEST CALLVALUE DUP1 ISZERO PUSH2 0x854 JUMPI PUSH1 0x0 DUP1 REVERT JUMPDEST POP PUSH2 0x409 PUSH2 0x863 CALLDATASIZE PUSH1 0x4 PUSH2 0x2902 JUMP JUMPDEST PUSH2 0x13C8 JUMP JUMPDEST CALLVALUE DUP1 ISZERO PUSH2 0x874 JUMPI PUSH1 0x0 DUP1 REVERT JUMPDEST POP PUSH2 0x79A PUSH2 0x141B JUMP JUMPDEST CALLVALUE DUP1 ISZERO PUSH2 0x889 JUMPI PUSH1 0x0 DUP1 REVERT JUMPDEST POP PUSH2 0x79A PUSH2 0x142A JUMP JUMPDEST CALLVALUE DUP1 ISZERO PUSH2 0x89E JUMPI PUSH1 0x0 DUP1 REVERT JUMPDEST POP PUSH2 0x4B8 PUSH2 0x8AD CALLDATASIZE PUSH1 0x4 PUSH2 0x29A7 JUMP JUMPDEST PUSH2 0x1439 JUMP JUMPDEST CALLVALUE DUP1 ISZERO PUSH2 0x8BE JUMPI PUSH1 0x0 DUP1 REVERT JUMPDEST POP PUSH2 0x409 PUSH2 0x1446 JUMP JUMPDEST CALLVALUE DUP1 ISZERO PUSH2 0x8D3 JUMPI PUSH1 0x0 DUP1 REVERT JUMPDEST POP PUSH2 0x409 PUSH2 0x8E2 CALLDATASIZE PUSH1 0x4 PUSH2 0x28BB JUMP JUMPDEST PUSH2 0x1472 JUMP JUMPDEST CALLVALUE DUP1 ISZERO PUSH2 0x8F3 JUMPI PUSH1 0x0 DUP1 REVERT JUMPDEST POP PUSH2 0x409 PUSH2 0x902 CALLDATASIZE PUSH1 0x4 PUSH2 0x28BB JUMP JUMPDEST PUSH2 0x14BE JUMP JUMPDEST CALLVALUE DUP1 ISZERO PUSH2 0x913 JUMPI PUSH1 0x0 DUP1 REVERT JUMPDEST POP PUSH2 0x420 PUSH2 0x922 CALLDATASIZE PUSH1 0x4 PUSH2 0x28BB JUMP JUMPDEST PUSH2 0x1504 JUMP JUMPDEST CALLVALUE DUP1 ISZERO PUSH2 0x933 JUMPI PUSH1 0x0 DUP1 REVERT JUMPDEST POP PUSH2 0x420 PUSH2 0x159A JUMP JUMPDEST CALLVALUE DUP1 ISZERO PUSH2 0x948 JUMPI PUSH1 0x0 DUP1 REVERT JUMPDEST POP PUSH2 0x409 PUSH2 0x957 CALLDATASIZE PUSH1 0x4 PUSH2 0x28D7 JUMP JUMPDEST PUSH2 0x15A0 JUMP JUMPDEST CALLVALUE DUP1 ISZERO PUSH2 0x968 JUMPI PUSH1 0x0 DUP1 REVERT JUMPDEST POP PUSH2 0x420 PUSH2 0x1641 JUMP JUMPDEST CALLVALUE DUP1 ISZERO PUSH2 0x97D JUMPI PUSH1 0x0 DUP1 REVERT JUMPDEST POP PUSH2 0x79A PUSH2 0x1647 JUMP JUMPDEST PUSH2 0x409 PUSH2 0x1656 JUMP JUMPDEST CALLVALUE DUP1 ISZERO PUSH2 0x99A JUMPI PUSH1 0x0 DUP1 REVERT JUMPDEST POP PUSH2 0x420 PUSH2 0x16E1 JUMP JUMPDEST CALLVALUE DUP1 ISZERO PUSH2 0x9AF JUMPI PUSH1 0x0 DUP1 REVERT JUMPDEST POP PUSH2 0x420 PUSH2 0x9BE CALLDATASIZE PUSH1 0x4 PUSH2 0x2A48 JUMP JUMPDEST PUSH2 0x16E5 JUMP JUMPDEST CALLVALUE DUP1 ISZERO PUSH2 0x9CF JUMPI PUSH1 0x0 DUP1 REVERT JUMPDEST POP PUSH2 0x420 PUSH2 0x1725 JUMP JUMPDEST CALLVALUE DUP1 ISZERO PUSH2 0x9E4 JUMPI PUSH1 0x0 DUP1 REVERT JUMPDEST POP PUSH2 0x409 PUSH2 0x17DD JUMP JUMPDEST CALLVALUE DUP1 ISZERO PUSH2 0x9F9 JUMPI PUSH1 0x0 DUP1 REVERT JUMPDEST POP PUSH2 0x420 PUSH2 0xA08 CALLDATASIZE PUSH1 0x4 PUSH2 0x2902 JUMP JUMPDEST PUSH2 0x1806 JUMP JUMPDEST CALLVALUE DUP1 ISZERO PUSH2 0xA19 JUMPI PUSH1 0x0 DUP1 REVERT JUMPDEST POP PUSH2 0x409 PUSH2 0xA28 CALLDATASIZE PUSH1 0x4 PUSH2 0x29F1 JUMP JUMPDEST PUSH2 0x1831 JUMP JUMPDEST CALLVALUE DUP1 ISZERO PUSH2 0xA39 JUMPI PUSH1 0x0 DUP1 REVERT JUMPDEST POP PUSH2 0x409 PUSH2 0xA48 CALLDATASIZE PUSH1 0x4 PUSH2 0x2A48 JUMP JUMPDEST PUSH2 0x186D JUMP JUMPDEST CALLVALUE DUP1 ISZERO PUSH2 0xA59 JUMPI PUSH1 0x0 DUP1 REVERT JUMPDEST POP PUSH2 0x420 PUSH2 0x18B9 JUMP JUMPDEST CALLVALUE DUP1 ISZERO PUSH2 0xA6E JUMPI PUSH1 0x0 DUP1 REVERT JUMPDEST POP PUSH2 0x79A PUSH2 0x18CD JUMP JUMPDEST CALLVALUE DUP1 ISZERO PUSH2 0xA83 JUMPI PUSH1 0x0 DUP1 REVERT JUMPDEST POP PUSH2 0x409 PUSH2 0xA92 CALLDATASIZE PUSH1 0x4 PUSH2 0x28BB JUMP JUMPDEST PUSH2 0x18DC JUMP JUMPDEST CALLVALUE DUP1 ISZERO PUSH2 0xAA3 JUMPI PUSH1 0x0 DUP1 REVERT JUMPDEST POP PUSH2 0x420 PUSH2 0xAB2 CALLDATASIZE PUSH1 0x4 PUSH2 0x29B9 JUMP JUMPDEST PUSH2 0x1922 JUMP JUMPDEST CALLVALUE DUP1 ISZERO PUSH2 0xAC3 JUMPI PUSH1 0x0 DUP1 REVERT JUMPDEST POP PUSH2 0x409 PUSH2 0xAD2 CALLDATASIZE PUSH1 0x4 PUSH2 0x28BB JUMP JUMPDEST PUSH2 0x1964 JUMP JUMPDEST CALLVALUE DUP1 ISZERO PUSH2 0xAE3 JUMPI PUSH1 0x0 DUP1 REVERT JUMPDEST POP PUSH2 0x409 PUSH2 0xAF2 CALLDATASIZE PUSH1 0x4 PUSH2 0x2A78 JUMP JUMPDEST PUSH2 0x19F9 JUMP JUMPDEST CALLVALUE DUP1 ISZERO PUSH2 0xB03 JUMPI PUSH1 0x0 DUP1 REVERT JUMPDEST POP PUSH2 0x409 PUSH2 0xB12 CALLDATASIZE PUSH1 0x4 PUSH2 0x297A JUMP JUMPDEST PUSH2 0x1A7D JUMP JUMPDEST CALLVALUE DUP1 ISZERO PUSH2 0xB23 JUMPI PUSH1 0x0 DUP1 REVERT JUMPDEST POP PUSH2 0x409 PUSH2 0xB32 CALLDATASIZE PUSH1 0x4 PUSH2 0x297A JUMP JUMPDEST PUSH2 0x1BAD JUMP JUMPDEST CALLVALUE DUP1 ISZERO PUSH2 0xB43 JUMPI PUSH1 0x0 DUP1 REVERT JUMPDEST POP PUSH2 0x79A PUSH2 0x1BFD JUMP JUMPDEST CALLVALUE DUP1 ISZERO PUSH2 0xB58 JUMPI PUSH1 0x0 DUP1 REVERT JUMPDEST POP PUSH2 0x4B8 PUSH2 0xB67 CALLDATASIZE PUSH1 0x4 PUSH2 0x28BB JUMP JUMPDEST PUSH2 0x1C0C JUMP JUMPDEST PUSH2 0xB75 CALLER PUSH2 0x1C0C JUMP JUMPDEST PUSH2 0xB9A JUMPI PUSH1 0x40 MLOAD PUSH3 0x461BCD PUSH1 0xE5 SHL DUP2 MSTORE PUSH1 0x4 ADD PUSH2 0xB91 SWAP1 PUSH2 0x2DAD JUMP JUMPDEST PUSH1 0x40 MLOAD DUP1 SWAP2 SUB SWAP1 REVERT JUMPDEST PUSH1 0x1A SLOAD ISZERO PUSH2 0xBBA JUMPI PUSH1 0x40 MLOAD PUSH3 0x461BCD PUSH1 0xE5 SHL DUP2 MSTORE PUSH1 0x4 ADD PUSH2 0xB91 SWAP1 PUSH2 0x2D28 JUMP JUMPDEST NUMBER PUSH1 0x1A SSTORE TIMESTAMP PUSH1 0x1B SSTORE JUMP JUMPDEST PUSH1 0x2B SLOAD DUP2 JUMP JUMPDEST PUSH2 0xBD3 CALLER PUSH2 0x1C0C JUMP JUMPDEST PUSH2 0xBEF JUMPI PUSH1 0x40 MLOAD PUSH3 0x461BCD PUSH1 0xE5 SHL DUP2 MSTORE PUSH1 0x4 ADD PUSH2 0xB91 SWAP1 PUSH2 0x2DAD JUMP JUMPDEST PUSH1 0x20 DUP1 SLOAD PUSH1 0xFF NOT AND SWAP5 ISZERO ISZERO SWAP5 SWAP1 SWAP5 OR SWAP1 SWAP4 SSTORE PUSH1 0x22 SWAP2 SWAP1 SWAP2 SSTORE PUSH1 0x0 PUSH1 0x23 SSTORE PUSH1 0x24 SSTORE PUSH1 0x25 SSTORE NUMBER PUSH1 0x26 SSTORE JUMP JUMPDEST PUSH2 0xC21 CALLER PUSH2 0x1C0C JUMP JUMPDEST PUSH2 0xC3D JUMPI PUSH1 0x40 MLOAD PUSH3 0x461BCD PUSH1 0xE5 SHL DUP2 MSTORE PUSH1 0x4 ADD PUSH2 0xB91 SWAP1 PUSH2 0x2DAD JUMP JUMPDEST PUSH1 0xE DUP6 SWAP1 SSTORE PUSH1 0xF DUP5 SWAP1 SSTORE PUSH1 0x10 DUP4 SWAP1 SSTORE PUSH1 0x11 DUP3 SWAP1 SSTORE PUSH2 0xC67 DUP3 PUSH2 0xC61 DUP6 DUP2 DUP10 DUP10 PUSH2 0x1C36 JUMP JUMPDEST SWAP1 PUSH2 0x1C36 JUMP JUMPDEST PUSH1 0x12 SSTORE PUSH1 0x13 DUP2 SWAP1 SSTORE PUSH2 0xC7A PUSH1 0x3 DUP3 PUSH2 0x2E4B JUMP JUMPDEST PUSH1 0x12 SLOAD LT PUSH2 0xC87 JUMPI PUSH1 0x0 DUP1 REVERT JUMPDEST POP POP POP POP POP JUMP JUMPDEST PUSH1 0x40 DUP1 MLOAD DUP1 DUP3 ADD SWAP1 SWAP2 MSTORE PUSH1 0xB DUP2 MSTORE PUSH11 0x582D536869626120496E75 PUSH1 0xA8 SHL PUSH1 0x20 DUP3 ADD MSTORE JUMPDEST SWAP1 JUMP JUMPDEST CALLER PUSH1 0x0 DUP2 DUP2 MSTORE PUSH1 0xA PUSH1 0x20 SWAP1 DUP2 MSTORE PUSH1 0x40 DUP1 DUP4 KECCAK256 PUSH1 0x1 PUSH1 0x1 PUSH1 0xA0 SHL SUB DUP8 AND DUP1 DUP6 MSTORE SWAP3 MSTORE DUP1 DUP4 KECCAK256 DUP6 SWAP1 SSTORE MLOAD SWAP2 SWAP3 SWAP1 SWAP2 PUSH32 0x8C5BE1E5EBEC7D5BD14F71427D1E84F3DD0314C0F7B2291E5B200AC8C7C3B925 SWAP1 PUSH2 0xD0D SWAP1 DUP7 SWAP1 PUSH2 0x2DD2 JUMP JUMPDEST PUSH1 0x40 MLOAD DUP1 SWAP2 SUB SWAP1 LOG3 POP PUSH1 0x1 SWAP3 SWAP2 POP POP JUMP JUMPDEST PUSH1 0x0 DUP3 PUSH2 0xD2A DUP4 PUSH2 0x16E5 JUMP JUMPDEST GT SWAP4 SWAP3 POP POP POP JUMP JUMPDEST PUSH1 0x7 SLOAD SWAP1 JUMP JUMPDEST PUSH2 0xD41 CALLER PUSH2 0x10B0 JUMP JUMPDEST PUSH2 0xD5D JUMPI PUSH1 0x40 MLOAD PUSH3 0x461BCD PUSH1 0xE5 SHL DUP2 MSTORE PUSH1 0x4 ADD PUSH2 0xB91 SWAP1 PUSH2 0x2D56 JUMP JUMPDEST PUSH1 0x33 DUP1 SLOAD SWAP2 ISZERO ISZERO PUSH2 0x100 MUL PUSH2 0xFF00 NOT SWAP1 SWAP3 AND SWAP2 SWAP1 SWAP2 OR SWAP1 SSTORE JUMP JUMPDEST PUSH2 0xD80 CALLER PUSH2 0x1C0C JUMP JUMPDEST PUSH2 0xD9C JUMPI PUSH1 0x40 MLOAD PUSH3 0x461BCD PUSH1 0xE5 SHL DUP2 MSTORE PUSH1 0x4 ADD PUSH2 0xB91 SWAP1 PUSH2 0x2DAD JUMP JUMPDEST PUSH1 0x16 SWAP2 SWAP1 SWAP2 SSTORE PUSH1 0x17 SSTORE JUMP JUMPDEST PUSH2 0xDB0 CALLER PUSH2 0x1C0C JUMP JUMPDEST PUSH2 0xDCC JUMPI PUSH1 0x40 MLOAD PUSH3 0x461BCD PUSH1 0xE5 SHL DUP2 MSTORE PUSH1 0x4 ADD PUSH2 0xB91 SWAP1 PUSH2 0x2DAD JUMP JUMPDEST PUSH1 0x5 PUSH2 0xDD8 DUP4 DUP6 PUSH2 0x2E4B JUMP JUMPDEST GT ISZERO DUP1 ISZERO PUSH2 0xDE5 JUMPI POP DUP2 DUP4 GT JUMPDEST PUSH2 0xDEE JUMPI PUSH1 0x0 DUP1 REVERT JUMPDEST PUSH1 0x1C SWAP3 SWAP1 SWAP3 SSTORE PUSH1 0x1D SSTORE PUSH1 0x1F SSTORE JUMP JUMPDEST PUSH1 0x7 SLOAD PUSH1 0x1 PUSH1 0x1 PUSH1 0xA0 SHL SUB DUP5 AND PUSH1 0x0 SWAP1 DUP2 MSTORE PUSH1 0xA PUSH1 0x20 SWAP1 DUP2 MSTORE PUSH1 0x40 DUP1 DUP4 KECCAK256 CALLER DUP5 MSTORE SWAP1 SWAP2 MSTORE DUP2 KECCAK256 SLOAD SWAP1 SWAP2 EQ PUSH2 0xEAB JUMPI PUSH1 0x40 DUP1 MLOAD DUP1 DUP3 ADD DUP3 MSTORE PUSH1 0x16 DUP2 MSTORE PUSH22 0x496E73756666696369656E7420416C6C6F77616E6365 PUSH1 0x50 SHL PUSH1 0x20 DUP1 DUP4 ADD SWAP2 SWAP1 SWAP2 MSTORE PUSH1 0x1 PUSH1 0x1 PUSH1 0xA0 SHL SUB DUP8 AND PUSH1 0x0 SWAP1 DUP2 MSTORE PUSH1 0xA DUP3 MSTORE DUP4 DUP2 KECCAK256 CALLER DUP3 MSTORE SWAP1 SWAP2 MSTORE SWAP2 SWAP1 SWAP2 KECCAK256 SLOAD PUSH2 0xE86 SWAP2 DUP5 SWAP1 PUSH2 0x1C42 JUMP JUMPDEST PUSH1 0x1 PUSH1 0x1 PUSH1 0xA0 SHL SUB DUP6 AND PUSH1 0x0 SWAP1 DUP2 MSTORE PUSH1 0xA PUSH1 0x20 SWAP1 DUP2 MSTORE PUSH1 0x40 DUP1 DUP4 KECCAK256 CALLER DUP5 MSTORE SWAP1 SWAP2 MSTORE SWAP1 KECCAK256 SSTORE JUMPDEST PUSH2 0xEB6 DUP5 DUP5 DUP5 PUSH2 0x1C6E JUMP JUMPDEST SWAP1 POP JUMPDEST SWAP4 SWAP3 POP POP POP JUMP JUMPDEST PUSH2 0xEC9 CALLER PUSH2 0x1C0C JUMP JUMPDEST PUSH2 0xEE5 JUMPI PUSH1 0x40 MLOAD PUSH3 0x461BCD PUSH1 0xE5 SHL DUP2 MSTORE PUSH1 0x4 ADD PUSH2 0xB91 SWAP1 PUSH2 0x2DAD JUMP JUMPDEST PUSH1 0x40 MLOAD PUSH4 0xA9059CBB PUSH1 0xE0 SHL DUP2 MSTORE PUSH20 0xBB4CDB9CBD36B01BD1CBAEBF2DE08D9173BC095C SWAP1 PUSH4 0xA9059CBB SWAP1 PUSH2 0xF1E SWAP1 DUP6 SWAP1 DUP6 SWAP1 PUSH1 0x4 ADD PUSH2 0x2BA6 JUMP JUMPDEST PUSH1 0x20 PUSH1 0x40 MLOAD DUP1 DUP4 SUB DUP2 PUSH1 0x0 DUP8 DUP1 EXTCODESIZE ISZERO DUP1 ISZERO PUSH2 0xF38 JUMPI PUSH1 0x0 DUP1 REVERT JUMPDEST POP GAS CALL ISZERO DUP1 ISZERO PUSH2 0xF4C JUMPI RETURNDATASIZE PUSH1 0x0 DUP1 RETURNDATACOPY RETURNDATASIZE PUSH1 0x0 REVERT JUMPDEST POP POP POP POP PUSH1 0x40 MLOAD RETURNDATASIZE PUSH1 0x1F NOT PUSH1 0x1F DUP3 ADD AND DUP3 ADD DUP1 PUSH1 0x40 MSTORE POP DUP2 ADD SWAP1 PUSH2 0xF70 SWAP2 SWAP1 PUSH2 0x29D5 JUMP JUMPDEST POP POP POP JUMP JUMPDEST PUSH1 0x2C SLOAD PUSH2 0x100 SWAP1 DIV PUSH1 0xFF AND SWAP1 JUMP JUMPDEST PUSH1 0x1 PUSH1 0x1 PUSH1 0xA0 SHL SUB DUP2 AND PUSH1 0x0 SWAP1 DUP2 MSTORE PUSH1 0x2F PUSH1 0x20 MSTORE PUSH1 0x40 DUP2 KECCAK256 SLOAD DUP1 ISZERO PUSH2 0xFB4 JUMPI PUSH2 0xFAC DUP2 TIMESTAMP PUSH2 0x2E8A JUMP JUMPDEST SWAP2 POP POP PUSH2 0xFD5 JUMP JUMPDEST PUSH2 0xFBD DUP4 PUSH2 0x10B0 JUMP JUMPDEST ISZERO PUSH2 0xFCF JUMPI PUSH1 0x32 SLOAD PUSH2 0xFAC SWAP1 TIMESTAMP PUSH2 0x2E8A JUMP JUMPDEST PUSH1 0x0 SWAP2 POP POP JUMPDEST SWAP2 SWAP1 POP JUMP JUMPDEST PUSH1 0x5 SLOAD PUSH1 0x0 SWAP1 PUSH2 0x101E SWAP1 PUSH2 0xFF6 SWAP1 PUSH1 0x1 PUSH1 0x1 PUSH1 0xA0 SHL SUB AND PUSH2 0x11D9 JUMP JUMPDEST PUSH1 0x4 SLOAD PUSH2 0x1018 SWAP1 PUSH2 0x100F SWAP1 PUSH1 0x1 PUSH1 0x1 PUSH1 0xA0 SHL SUB AND PUSH2 0x11D9 JUMP JUMPDEST PUSH1 0x7 SLOAD SWAP1 PUSH2 0x2134 JUMP JUMPDEST SWAP1 PUSH2 0x2134 JUMP JUMPDEST SWAP1 POP SWAP1 JUMP JUMPDEST PUSH2 0x102C CALLER PUSH2 0x1C0C JUMP JUMPDEST PUSH2 0x1048 JUMPI PUSH1 0x40 MLOAD PUSH3 0x461BCD PUSH1 0xE5 SHL DUP2 MSTORE PUSH1 0x4 ADD PUSH2 0xB91 SWAP1 PUSH2 0x2DAD JUMP JUMPDEST PUSH1 0x27 SLOAD PUSH1 0x40 MLOAD PUSH4 0x16A4744B PUSH1 0xE1 SHL DUP2 MSTORE PUSH1 0x1 PUSH1 0x1 PUSH1 0xA0 SHL SUB SWAP1 SWAP2 AND SWAP1 PUSH4 0x2D48E896 SWAP1 PUSH2 0x107A SWAP1 DUP6 SWAP1 DUP6 SWAP1 PUSH1 0x4 ADD PUSH2 0x2E17 JUMP JUMPDEST PUSH1 0x0 PUSH1 0x40 MLOAD DUP1 DUP4 SUB DUP2 PUSH1 0x0 DUP8 DUP1 EXTCODESIZE ISZERO DUP1 ISZERO PUSH2 0x1094 JUMPI PUSH1 0x0 DUP1 REVERT JUMPDEST POP GAS CALL ISZERO DUP1 ISZERO PUSH2 0x10A8 JUMPI RETURNDATASIZE PUSH1 0x0 DUP1 RETURNDATACOPY RETURNDATASIZE PUSH1 0x0 REVERT JUMPDEST POP POP POP POP POP POP JUMP JUMPDEST PUSH1 0x0 SLOAD PUSH1 0x1 PUSH1 0x1 PUSH1 0xA0 SHL SUB SWAP1 DUP2 AND SWAP2 AND EQ SWAP1 JUMP JUMPDEST PUSH1 0x9 SWAP1 JUMP JUMPDEST PUSH1 0x20 SLOAD PUSH1 0xFF AND DUP2 JUMP JUMPDEST PUSH2 0x10DB CALLER PUSH2 0x10B0 JUMP JUMPDEST PUSH2 0x10F7 JUMPI PUSH1 0x40 MLOAD PUSH3 0x461BCD PUSH1 0xE5 SHL DUP2 MSTORE PUSH1 0x4 ADD PUSH2 0xB91 SWAP1 PUSH2 0x2D56 JUMP JUMPDEST PUSH1 0x33 DUP1 SLOAD PUSH1 0xFF NOT AND SWAP2 ISZERO ISZERO SWAP2 SWAP1 SWAP2 OR SWAP1 SSTORE JUMP JUMPDEST PUSH1 0x0 PUSH2 0x1118 DUP3 PUSH1 0x7 SLOAD PUSH2 0xCB4 JUMP JUMPDEST SWAP3 SWAP2 POP POP JUMP JUMPDEST PUSH2 0x1127 CALLER PUSH2 0x1C0C JUMP JUMPDEST PUSH2 0x1143 JUMPI PUSH1 0x40 MLOAD PUSH3 0x461BCD PUSH1 0xE5 SHL DUP2 MSTORE PUSH1 0x4 ADD PUSH2 0xB91 SWAP1 PUSH2 0x2DAD JUMP JUMPDEST PUSH3 0xF4240 PUSH1 0x7 SLOAD PUSH2 0x1154 SWAP2 SWAP1 PUSH2 0x2E4B JUMP JUMPDEST DUP2 LT ISZERO PUSH2 0x1160 JUMPI PUSH1 0x0 DUP1 REVERT JUMPDEST PUSH1 0x8 SSTORE JUMP JUMPDEST PUSH1 0x1 PUSH1 0x1 PUSH1 0xA0 SHL SUB AND PUSH1 0x0 SWAP1 DUP2 MSTORE PUSH1 0x2D PUSH1 0x20 MSTORE PUSH1 0x40 SWAP1 KECCAK256 SLOAD SWAP1 JUMP JUMPDEST PUSH2 0x1189 CALLER PUSH2 0x1C0C JUMP JUMPDEST PUSH2 0x11A5 JUMPI PUSH1 0x40 MLOAD PUSH3 0x461BCD PUSH1 0xE5 SHL DUP2 MSTORE PUSH1 0x4 ADD PUSH2 0xB91 SWAP1 PUSH2 0x2DAD JUMP JUMPDEST PUSH1 0x1 PUSH1 0x1 PUSH1 0xA0 SHL SUB SWAP2 SWAP1 SWAP2 AND PUSH1 0x0 SWAP1 DUP2 MSTORE PUSH1 0xB PUSH1 0x20 MSTORE PUSH1 0x40 SWAP1 KECCAK256 DUP1 SLOAD PUSH1 0xFF NOT AND SWAP2 ISZERO ISZERO SWAP2 SWAP1 SWAP2 OR SWAP1 SSTORE JUMP JUMPDEST PUSH1 0x2A SLOAD PUSH1 0xFF AND DUP2 JUMP JUMPDEST PUSH1 0x1 PUSH1 0x1 PUSH1 0xA0 SHL SUB AND PUSH1 0x0 SWAP1 DUP2 MSTORE PUSH1 0x9 PUSH1 0x20 MSTORE PUSH1 0x40 SWAP1 KECCAK256 SLOAD SWAP1 JUMP JUMPDEST PUSH2 0x11FD CALLER PUSH2 0x1C0C JUMP JUMPDEST PUSH2 0x1219 JUMPI PUSH1 0x40 MLOAD PUSH3 0x461BCD PUSH1 0xE5 SHL DUP2 MSTORE PUSH1 0x4 ADD PUSH2 0xB91 SWAP1 PUSH2 0x2DAD JUMP JUMPDEST PUSH1 0x2C DUP1 SLOAD SWAP2 ISZERO ISZERO PUSH2 0x100 MUL PUSH2 0xFF00 NOT SWAP1 SWAP3 AND SWAP2 SWAP1 SWAP2 OR SWAP1 SSTORE JUMP JUMPDEST PUSH1 0x8 SLOAD DUP2 JUMP JUMPDEST PUSH2 0x1242 CALLER PUSH2 0x10B0 JUMP JUMPDEST PUSH2 0x125E JUMPI PUSH1 0x40 MLOAD PUSH3 0x461BCD PUSH1 0xE5 SHL DUP2 MSTORE PUSH1 0x4 ADD PUSH2 0xB91 SWAP1 PUSH2 0x2D56 JUMP JUMPDEST PUSH1 0x27 SLOAD PUSH1 0x40 MLOAD PUSH4 0x413918C9 PUSH1 0xE1 SHL DUP2 MSTORE PUSH1 0x1 PUSH1 0x1 PUSH1 0xA0 SHL SUB SWAP1 SWAP2 AND SWAP1 PUSH4 0x82723192 SWAP1 PUSH2 0x107A SWAP1 DUP6 SWAP1 DUP6 SWAP1 PUSH1 0x4 ADD PUSH2 0x2BA6 JUMP JUMPDEST PUSH1 0x0 SLOAD PUSH1 0x1 PUSH1 0x1 PUSH1 0xA0 SHL SUB AND SWAP1 JUMP JUMPDEST PUSH1 0x3 SLOAD PUSH1 0x1 PUSH1 0x1 PUSH1 0xA0 SHL SUB AND DUP2 JUMP JUMPDEST PUSH1 0x2E SLOAD SWAP1 JUMP JUMPDEST PUSH2 0x12BD CALLER PUSH2 0x1C0C JUMP JUMPDEST PUSH2 0x12D9 JUMPI PUSH1 0x40 MLOAD PUSH3 0x461BCD PUSH1 0xE5 SHL DUP2 MSTORE PUSH1 0x4 ADD PUSH2 0xB91 SWAP1 PUSH2 0x2DAD JUMP JUMPDEST PUSH1 0x1 PUSH1 0x1 PUSH1 0xA0 SHL SUB AND PUSH1 0x0 SWAP1 DUP2 MSTORE PUSH1 0x30 PUSH1 0x20 MSTORE PUSH1 0x40 SWAP1 KECCAK256 DUP1 SLOAD PUSH1 0xFF NOT AND PUSH1 0x1 OR SWAP1 SSTORE JUMP JUMPDEST PUSH1 0x40 DUP1 MLOAD DUP1 DUP3 ADD SWAP1 SWAP2 MSTORE PUSH1 0x6 DUP2 MSTORE PUSH6 0x585348494241 PUSH1 0xD0 SHL PUSH1 0x20 DUP3 ADD MSTORE SWAP1 JUMP JUMPDEST PUSH2 0x1326 CALLER PUSH2 0x1C0C JUMP JUMPDEST PUSH2 0x1342 JUMPI PUSH1 0x40 MLOAD PUSH3 0x461BCD PUSH1 0xE5 SHL DUP2 MSTORE PUSH1 0x4 ADD PUSH2 0xB91 SWAP1 PUSH2 0x2DAD JUMP JUMPDEST PUSH1 0x33 SLOAD PUSH2 0x100 SWAP1 DIV PUSH1 0xFF AND ISZERO PUSH2 0x1361 JUMPI PUSH3 0xB71B0 DUP2 LT PUSH2 0x1361 JUMPI PUSH1 0x0 DUP1 REVERT JUMPDEST PUSH1 0x29 SSTORE JUMP JUMPDEST PUSH1 0x60 PUSH1 0x31 DUP1 SLOAD DUP1 PUSH1 0x20 MUL PUSH1 0x20 ADD PUSH1 0x40 MLOAD SWAP1 DUP2 ADD PUSH1 0x40 MSTORE DUP1 SWAP3 SWAP2 SWAP1 DUP2 DUP2 MSTORE PUSH1 0x20 ADD DUP3 DUP1 SLOAD DUP1 ISZERO PUSH2 0x13BE JUMPI PUSH1 0x20 MUL DUP3 ADD SWAP2 SWAP1 PUSH1 0x0 MSTORE PUSH1 0x20 PUSH1 0x0 KECCAK256 SWAP1 JUMPDEST DUP2 SLOAD PUSH1 0x1 PUSH1 0x1 PUSH1 0xA0 SHL SUB AND DUP2 MSTORE PUSH1 0x1 SWAP1 SWAP2 ADD SWAP1 PUSH1 0x20 ADD DUP1 DUP4 GT PUSH2 0x13A0 JUMPI JUMPDEST POP POP POP POP POP SWAP1 POP SWAP1 JUMP JUMPDEST PUSH2 0x13D1 CALLER PUSH2 0x1C0C JUMP JUMPDEST PUSH2 0x13ED JUMPI PUSH1 0x40 MLOAD PUSH3 0x461BCD PUSH1 0xE5 SHL DUP2 MSTORE PUSH1 0x4 ADD PUSH2 0xB91 SWAP1 PUSH2 0x2DAD JUMP JUMPDEST PUSH1 0x14 DUP1 SLOAD PUSH1 0x1 PUSH1 0x1 PUSH1 0xA0 SHL SUB SWAP4 DUP5 AND PUSH1 0x1 PUSH1 0x1 PUSH1 0xA0 SHL SUB NOT SWAP2 DUP3 AND OR SWAP1 SWAP2 SSTORE PUSH1 0x15 DUP1 SLOAD SWAP3 SWAP1 SWAP4 AND SWAP2 AND OR SWAP1 SSTORE JUMP JUMPDEST PUSH1 0x28 SLOAD PUSH1 0x1 PUSH1 0x1 PUSH1 0xA0 SHL SUB AND DUP2 JUMP JUMPDEST PUSH1 0x19 SLOAD PUSH1 0x1 PUSH1 0x1 PUSH1 0xA0 SHL SUB AND DUP2 JUMP JUMPDEST PUSH1 0x0 PUSH2 0xEB9 CALLER DUP5 DUP5 PUSH2 0x1C6E JUMP JUMPDEST PUSH2 0x144F CALLER PUSH2 0x1C0C JUMP JUMPDEST PUSH2 0x146B JUMPI PUSH1 0x40 MLOAD PUSH3 0x461BCD PUSH1 0xE5 SHL DUP2 MSTORE PUSH1 0x4 ADD PUSH2 0xB91 SWAP1 PUSH2 0x2DAD JUMP JUMPDEST PUSH1 0x0 PUSH1 0x1E SSTORE JUMP JUMPDEST PUSH2 0x147B CALLER PUSH2 0x10B0 JUMP JUMPDEST PUSH2 0x1497 JUMPI PUSH1 0x40 MLOAD PUSH3 0x461BCD PUSH1 0xE5 SHL DUP2 MSTORE PUSH1 0x4 ADD PUSH2 0xB91 SWAP1 PUSH2 0x2D56 JUMP JUMPDEST PUSH1 0x1 PUSH1 0x1 PUSH1 0xA0 SHL SUB AND PUSH1 0x0 SWAP1 DUP2 MSTORE PUSH1 0x1 PUSH1 0x20 DUP2 SWAP1 MSTORE PUSH1 0x40 SWAP1 SWAP2 KECCAK256 DUP1 SLOAD PUSH1 0xFF NOT AND SWAP1 SWAP2 OR SWAP1 SSTORE JUMP JUMPDEST PUSH2 0x14C7 CALLER PUSH2 0x1C0C JUMP JUMPDEST PUSH2 0x14E3 JUMPI PUSH1 0x40 MLOAD PUSH3 0x461BCD PUSH1 0xE5 SHL DUP2 MSTORE PUSH1 0x4 ADD PUSH2 0xB91 SWAP1 PUSH2 0x2DAD JUMP JUMPDEST PUSH1 0x1 PUSH1 0x1 PUSH1 0xA0 SHL SUB AND PUSH1 0x0 SWAP1 DUP2 MSTORE PUSH1 0x30 PUSH1 0x20 MSTORE PUSH1 0x40 SWAP1 KECCAK256 DUP1 SLOAD PUSH1 0xFF NOT AND SWAP1 SSTORE JUMP JUMPDEST PUSH1 0x40 MLOAD PUSH4 0x70A08231 PUSH1 0xE0 SHL DUP2 MSTORE PUSH1 0x0 SWAP1 PUSH20 0x2859E4544C4BB03966803B044A93563BD2D0DD4D SWAP1 DUP3 SWAP1 DUP3 SWAP1 PUSH4 0x70A08231 SWAP1 PUSH2 0x1542 SWAP1 DUP8 SWAP1 PUSH1 0x4 ADD PUSH2 0x2B92 JUMP JUMPDEST PUSH1 0x20 PUSH1 0x40 MLOAD DUP1 DUP4 SUB DUP2 DUP7 DUP1 EXTCODESIZE ISZERO DUP1 ISZERO PUSH2 0x155A JUMPI PUSH1 0x0 DUP1 REVERT JUMPDEST POP GAS STATICCALL ISZERO DUP1 ISZERO PUSH2 0x156E JUMPI RETURNDATASIZE PUSH1 0x0 DUP1 RETURNDATACOPY RETURNDATASIZE PUSH1 0x0 REVERT JUMPDEST POP POP POP POP PUSH1 0x40 MLOAD RETURNDATASIZE PUSH1 0x1F NOT PUSH1 0x1F DUP3 ADD AND DUP3 ADD DUP1 PUSH1 0x40 MSTORE POP DUP2 ADD SWAP1 PUSH2 0x1592 SWAP2 SWAP1 PUSH2 0x2A60 JUMP JUMPDEST SWAP5 SWAP4 POP POP POP POP JUMP JUMPDEST PUSH1 0x1A SLOAD DUP2 JUMP JUMPDEST PUSH2 0x15A9 CALLER PUSH2 0x1C0C JUMP JUMPDEST PUSH2 0x15C5 JUMPI PUSH1 0x40 MLOAD PUSH3 0x461BCD PUSH1 0xE5 SHL DUP2 MSTORE PUSH1 0x4 ADD PUSH2 0xB91 SWAP1 PUSH2 0x2DAD JUMP JUMPDEST PUSH1 0x0 DUP3 PUSH1 0x1 PUSH1 0x1 PUSH1 0xA0 SHL SUB AND DUP3 PUSH1 0x40 MLOAD PUSH2 0x15DE SWAP1 PUSH2 0xCB1 JUMP JUMPDEST PUSH1 0x0 PUSH1 0x40 MLOAD DUP1 DUP4 SUB DUP2 DUP6 DUP8 GAS CALL SWAP3 POP POP POP RETURNDATASIZE DUP1 PUSH1 0x0 DUP2 EQ PUSH2 0x161B JUMPI PUSH1 0x40 MLOAD SWAP2 POP PUSH1 0x1F NOT PUSH1 0x3F RETURNDATASIZE ADD AND DUP3 ADD PUSH1 0x40 MSTORE RETURNDATASIZE DUP3 MSTORE RETURNDATASIZE PUSH1 0x0 PUSH1 0x20 DUP5 ADD RETURNDATACOPY PUSH2 0x1620 JUMP JUMPDEST PUSH1 0x60 SWAP2 POP JUMPDEST POP POP SWAP1 POP DUP1 PUSH2 0xF70 JUMPI PUSH1 0x40 MLOAD PUSH3 0x461BCD PUSH1 0xE5 SHL DUP2 MSTORE PUSH1 0x4 ADD PUSH2 0xB91 SWAP1 PUSH2 0x2CCB JUMP JUMPDEST PUSH1 0x1B SLOAD DUP2 JUMP JUMPDEST PUSH1 0x14 SLOAD PUSH1 0x1 PUSH1 0x1 PUSH1 0xA0 SHL SUB AND DUP2 JUMP JUMPDEST PUSH2 0x165F CALLER PUSH2 0x10B0 JUMP JUMPDEST PUSH2 0x167B JUMPI PUSH1 0x40 MLOAD PUSH3 0x461BCD PUSH1 0xE5 SHL DUP2 MSTORE PUSH1 0x4 ADD PUSH2 0xB91 SWAP1 PUSH2 0x2D56 JUMP JUMPDEST PUSH1 0x27 PUSH1 0x0 SWAP1 SLOAD SWAP1 PUSH2 0x100 EXP SWAP1 DIV PUSH1 0x1 PUSH1 0x1 PUSH1 0xA0 SHL SUB AND PUSH1 0x1 PUSH1 0x1 PUSH1 0xA0 SHL SUB AND PUSH4 0xD0E30DB0 CALLVALUE PUSH1 0x40 MLOAD DUP3 PUSH4 0xFFFFFFFF AND PUSH1 0xE0 SHL DUP2 MSTORE PUSH1 0x4 ADD PUSH1 0x0 PUSH1 0x40 MLOAD DUP1 DUP4 SUB DUP2 DUP6 DUP9 DUP1 EXTCODESIZE ISZERO DUP1 ISZERO PUSH2 0x16CB JUMPI PUSH1 0x0 DUP1 REVERT JUMPDEST POP GAS CALL SWAP4 POP POP POP POP DUP1 ISZERO PUSH2 0x16DD JUMPI POP PUSH1 0x1 JUMPDEST POP JUMPDEST JUMP JUMPDEST TIMESTAMP SWAP1 JUMP JUMPDEST PUSH1 0x0 PUSH2 0x1118 PUSH2 0x16F2 PUSH2 0xFDA JUMP JUMPDEST PUSH1 0x19 SLOAD PUSH2 0x171F SWAP1 PUSH2 0x1718 SWAP1 PUSH1 0x2 SWAP1 PUSH2 0x1712 SWAP1 PUSH1 0x1 PUSH1 0x1 PUSH1 0xA0 SHL SUB AND PUSH2 0x11D9 JUMP JUMPDEST SWAP1 PUSH2 0x2140 JUMP JUMPDEST DUP6 SWAP1 PUSH2 0x2140 JUMP JUMPDEST SWAP1 PUSH2 0x1C2A JUMP JUMPDEST PUSH1 0x0 TIMESTAMP PUSH2 0x173F PUSH1 0x1F SLOAD PUSH1 0x1E SLOAD PUSH2 0x1C36 SWAP1 SWAP2 SWAP1 PUSH4 0xFFFFFFFF AND JUMP JUMPDEST GT ISZERO PUSH2 0x17B9 JUMPI PUSH1 0x0 PUSH2 0x1762 TIMESTAMP PUSH2 0x1018 PUSH1 0x1F SLOAD PUSH1 0x1E SLOAD PUSH2 0x1C36 SWAP1 SWAP2 SWAP1 PUSH4 0xFFFFFFFF AND JUMP JUMPDEST SWAP1 POP PUSH1 0x0 PUSH2 0x1789 PUSH1 0x12 SLOAD PUSH2 0x1018 PUSH1 0x1D SLOAD PUSH2 0x171F PUSH1 0x1C SLOAD PUSH1 0x12 SLOAD PUSH2 0x2140 SWAP1 SWAP2 SWAP1 PUSH4 0xFFFFFFFF AND JUMP JUMPDEST SWAP1 POP PUSH2 0x17B0 PUSH2 0x17A7 PUSH1 0x1F SLOAD PUSH2 0x171F DUP6 DUP6 PUSH2 0x2140 SWAP1 SWAP2 SWAP1 PUSH4 0xFFFFFFFF AND JUMP JUMPDEST PUSH1 0x12 SLOAD SWAP1 PUSH2 0x1C36 JUMP JUMPDEST SWAP3 POP POP POP PUSH2 0xCB1 JUMP JUMPDEST PUSH2 0x17D6 PUSH1 0x13 SLOAD PUSH2 0x171F PUSH2 0x411B PUSH1 0x12 SLOAD PUSH2 0x2140 SWAP1 SWAP2 SWAP1 PUSH4 0xFFFFFFFF AND JUMP JUMPDEST SWAP1 POP PUSH2 0xCB1 JUMP JUMPDEST CALLER PUSH1 0x0 SWAP1 DUP2 MSTORE PUSH1 0x9 PUSH1 0x20 MSTORE PUSH1 0x40 SWAP1 KECCAK256 SLOAD ISZERO PUSH2 0x16DF JUMPI CALLER PUSH1 0x0 SWAP1 DUP2 MSTORE PUSH1 0x2D PUSH1 0x20 MSTORE PUSH1 0x40 SWAP1 KECCAK256 TIMESTAMP SWAP1 SSTORE JUMP JUMPDEST PUSH1 0x1 PUSH1 0x1 PUSH1 0xA0 SHL SUB SWAP2 DUP3 AND PUSH1 0x0 SWAP1 DUP2 MSTORE PUSH1 0xA PUSH1 0x20 SWAP1 DUP2 MSTORE PUSH1 0x40 DUP1 DUP4 KECCAK256 SWAP4 SWAP1 SWAP5 AND DUP3 MSTORE SWAP2 SWAP1 SWAP2 MSTORE KECCAK256 SLOAD SWAP1 JUMP JUMPDEST PUSH2 0x183A CALLER PUSH2 0x1C0C JUMP JUMPDEST PUSH2 0x1856 JUMPI PUSH1 0x40 MLOAD PUSH3 0x461BCD PUSH1 0xE5 SHL DUP2 MSTORE PUSH1 0x4 ADD PUSH2 0xB91 SWAP1 PUSH2 0x2DAD JUMP JUMPDEST PUSH1 0x2A DUP1 SLOAD PUSH1 0xFF NOT AND SWAP3 ISZERO ISZERO SWAP3 SWAP1 SWAP3 OR SWAP1 SWAP2 SSTORE PUSH1 0x2B SSTORE JUMP JUMPDEST PUSH2 0x1876 CALLER PUSH2 0x1C0C JUMP JUMPDEST PUSH2 0x1892 JUMPI PUSH1 0x40 MLOAD PUSH3 0x461BCD PUSH1 0xE5 SHL DUP2 MSTORE PUSH1 0x4 ADD PUSH2 0xB91 SWAP1 PUSH2 0x2DAD JUMP JUMPDEST PUSH2 0x189D DUP2 PUSH1 0x18 PUSH2 0x2E6B JUMP JUMPDEST PUSH2 0x18A8 SWAP1 PUSH1 0x3C PUSH2 0x2E6B JUMP JUMPDEST PUSH2 0x18B3 SWAP1 PUSH1 0x3C PUSH2 0x2E6B JUMP JUMPDEST PUSH1 0x2E SSTORE POP JUMP JUMPDEST PUSH16 0xFFFFFFFFFFFFFFFFFFFFFFFFFFFFFFFF DUP2 JUMP JUMPDEST PUSH1 0x15 SLOAD PUSH1 0x1 PUSH1 0x1 PUSH1 0xA0 SHL SUB AND DUP2 JUMP JUMPDEST PUSH2 0x18E5 CALLER PUSH2 0x10B0 JUMP JUMPDEST PUSH2 0x1901 JUMPI PUSH1 0x40 MLOAD PUSH3 0x461BCD PUSH1 0xE5 SHL DUP2 MSTORE PUSH1 0x4 ADD PUSH2 0xB91 SWAP1 PUSH2 0x2D56 JUMP JUMPDEST PUSH1 0x1 PUSH1 0x1 PUSH1 0xA0 SHL SUB AND PUSH1 0x0 SWAP1 DUP2 MSTORE PUSH1 0x1 PUSH1 0x20 MSTORE PUSH1 0x40 SWAP1 KECCAK256 DUP1 SLOAD PUSH1 0xFF NOT AND SWAP1 SSTORE JUMP JUMPDEST PUSH1 0x0 NUMBER PUSH1 0x1A SLOAD PUSH1 0x1 PUSH2 0x1934 SWAP2 SWAP1 PUSH2 0x2E33 JUMP JUMPDEST LT PUSH2 0x194E JUMPI PUSH1 0x13 SLOAD PUSH2 0x1947 SWAP1 PUSH1 0x1 PUSH2 0x2134 JUMP JUMPDEST SWAP1 POP PUSH2 0xFD5 JUMP JUMPDEST DUP2 ISZERO PUSH2 0x195C JUMPI PUSH2 0x1947 PUSH2 0x1725 JUMP JUMPDEST POP POP PUSH1 0x12 SLOAD SWAP1 JUMP JUMPDEST PUSH2 0x196D CALLER PUSH2 0x10B0 JUMP JUMPDEST PUSH2 0x1989 JUMPI PUSH1 0x40 MLOAD PUSH3 0x461BCD PUSH1 0xE5 SHL DUP2 MSTORE PUSH1 0x4 ADD PUSH2 0xB91 SWAP1 PUSH2 0x2D56 JUMP JUMPDEST PUSH1 0x0 DUP1 SLOAD PUSH1 0x1 PUSH1 0x1 PUSH1 0xA0 SHL SUB NOT AND PUSH1 0x1 PUSH1 0x1 PUSH1 0xA0 SHL SUB DUP4 AND SWAP1 DUP2 OR DUP3 SSTORE DUP2 MSTORE PUSH1 0x1 PUSH1 0x20 DUP2 SWAP1 MSTORE PUSH1 0x40 SWAP2 DUP3 SWAP1 KECCAK256 DUP1 SLOAD PUSH1 0xFF NOT AND SWAP1 SWAP2 OR SWAP1 SSTORE MLOAD PUSH32 0x4DBA622D284ED0014EE4B9A6A68386BE1A4C08A4913AE272DE89199CC686163 SWAP1 PUSH2 0x19EE SWAP1 DUP4 SWAP1 PUSH2 0x2B92 JUMP JUMPDEST PUSH1 0x40 MLOAD DUP1 SWAP2 SUB SWAP1 LOG1 POP JUMP JUMPDEST PUSH2 0x1A02 CALLER PUSH2 0x1C0C JUMP JUMPDEST PUSH2 0x1A1E JUMPI PUSH1 0x40 MLOAD PUSH3 0x461BCD PUSH1 0xE5 SHL DUP2 MSTORE PUSH1 0x4 ADD PUSH2 0xB91 SWAP1 PUSH2 0x2DAD JUMP JUMPDEST PUSH1 0x4 SLOAD PUSH2 0x1A35 SWAP1 DUP4 SWAP1 PUSH1 0x1 PUSH1 0x1 PUSH1 0xA0 SHL SUB AND PUSH2 0x214C JUMP JUMPDEST DUP1 ISZERO PUSH2 0x1A79 JUMPI TIMESTAMP PUSH1 0x1E SSTORE PUSH1 0x1F SLOAD PUSH1 0x40 MLOAD PUSH32 0x39D2389EC5C1FA77B2C0D374BC61B6D7BD97CCBA280FCDEB4E9C7644898D7C3A SWAP2 PUSH2 0x1A70 SWAP2 PUSH2 0x2DD2 JUMP JUMPDEST PUSH1 0x40 MLOAD DUP1 SWAP2 SUB SWAP1 LOG1 JUMPDEST POP POP JUMP JUMPDEST PUSH2 0x1A86 CALLER PUSH2 0x1C0C JUMP JUMPDEST PUSH2 0x1AA2 JUMPI PUSH1 0x40 MLOAD PUSH3 0x461BCD PUSH1 0xE5 SHL DUP2 MSTORE PUSH1 0x4 ADD PUSH2 0xB91 SWAP1 PUSH2 0x2DAD JUMP JUMPDEST PUSH1 0x1 PUSH1 0x1 PUSH1 0xA0 SHL SUB DUP3 AND ADDRESS EQ DUP1 ISZERO SWAP1 PUSH2 0x1AC9 JUMPI POP PUSH1 0x19 SLOAD PUSH1 0x1 PUSH1 0x1 PUSH1 0xA0 SHL SUB DUP4 DUP2 AND SWAP2 AND EQ ISZERO JUMPDEST PUSH2 0x1AD2 JUMPI PUSH1 0x0 DUP1 REVERT JUMPDEST PUSH1 0x1 PUSH1 0x1 PUSH1 0xA0 SHL SUB DUP3 AND PUSH1 0x0 SWAP1 DUP2 MSTORE PUSH1 0xD PUSH1 0x20 MSTORE PUSH1 0x40 SWAP1 KECCAK256 DUP1 SLOAD PUSH1 0xFF NOT AND DUP3 ISZERO DUP1 ISZERO SWAP2 SWAP1 SWAP2 OR SWAP1 SWAP2 SSTORE PUSH2 0x1B69 JUMPI PUSH1 0x27 SLOAD PUSH1 0x40 MLOAD PUSH4 0xA5B654B PUSH1 0xE1 SHL DUP2 MSTORE PUSH1 0x1 PUSH1 0x1 PUSH1 0xA0 SHL SUB SWAP1 SWAP2 AND SWAP1 PUSH4 0x14B6CA96 SWAP1 PUSH2 0x1B32 SWAP1 DUP6 SWAP1 PUSH1 0x0 SWAP1 PUSH1 0x4 ADD PUSH2 0x2BA6 JUMP JUMPDEST PUSH1 0x0 PUSH1 0x40 MLOAD DUP1 DUP4 SUB DUP2 PUSH1 0x0 DUP8 DUP1 EXTCODESIZE ISZERO DUP1 ISZERO PUSH2 0x1B4C JUMPI PUSH1 0x0 DUP1 REVERT JUMPDEST POP GAS CALL ISZERO DUP1 ISZERO PUSH2 0x1B60 JUMPI RETURNDATASIZE PUSH1 0x0 DUP1 RETURNDATACOPY RETURNDATASIZE PUSH1 0x0 REVERT JUMPDEST POP POP POP POP PUSH2 0x1A79 JUMP JUMPDEST PUSH1 0x27 SLOAD PUSH1 0x1 PUSH1 0x1 PUSH1 0xA0 SHL SUB DUP4 DUP2 AND PUSH1 0x0 SWAP1 DUP2 MSTORE PUSH1 0x9 PUSH1 0x20 MSTORE PUSH1 0x40 SWAP1 DUP2 SWAP1 KECCAK256 SLOAD SWAP1 MLOAD PUSH4 0xA5B654B PUSH1 0xE1 SHL DUP2 MSTORE SWAP2 SWAP1 SWAP3 AND SWAP2 PUSH4 0x14B6CA96 SWAP2 PUSH2 0x107A SWAP2 DUP7 SWAP2 PUSH1 0x4 ADD PUSH2 0x2BA6 JUMP JUMPDEST PUSH2 0x1BB6 CALLER PUSH2 0x1C0C JUMP JUMPDEST PUSH2 0x1BD2 JUMPI PUSH1 0x40 MLOAD PUSH3 0x461BCD PUSH1 0xE5 SHL DUP2 MSTORE PUSH1 0x4 ADD PUSH2 0xB91 SWAP1 PUSH2 0x2DAD JUMP JUMPDEST PUSH1 0x1 PUSH1 0x1 PUSH1 0xA0 SHL SUB SWAP2 SWAP1 SWAP2 AND PUSH1 0x0 SWAP1 DUP2 MSTORE PUSH1 0xC PUSH1 0x20 MSTORE PUSH1 0x40 SWAP1 KECCAK256 DUP1 SLOAD PUSH1 0xFF NOT AND SWAP2 ISZERO ISZERO SWAP2 SWAP1 SWAP2 OR SWAP1 SSTORE JUMP JUMPDEST PUSH1 0x18 SLOAD PUSH1 0x1 PUSH1 0x1 PUSH1 0xA0 SHL SUB AND DUP2 JUMP JUMPDEST PUSH1 0x1 PUSH1 0x1 PUSH1 0xA0 SHL SUB AND PUSH1 0x0 SWAP1 DUP2 MSTORE PUSH1 0x1 PUSH1 0x20 MSTORE PUSH1 0x40 SWAP1 KECCAK256 SLOAD PUSH1 0xFF AND SWAP1 JUMP JUMPDEST PUSH1 0x0 PUSH2 0xEB9 DUP3 DUP5 PUSH2 0x2E4B JUMP JUMPDEST PUSH1 0x0 PUSH2 0xEB9 DUP3 DUP5 PUSH2 0x2E33 JUMP JUMPDEST PUSH1 0x0 DUP2 DUP5 DUP5 GT ISZERO PUSH2 0x1C66 JUMPI PUSH1 0x40 MLOAD PUSH3 0x461BCD PUSH1 0xE5 SHL DUP2 MSTORE PUSH1 0x4 ADD PUSH2 0xB91 SWAP2 SWAP1 PUSH2 0x2C4D JUMP JUMPDEST POP POP POP SWAP1 SUB SWAP1 JUMP JUMPDEST PUSH1 0x1 PUSH1 0x1 PUSH1 0xA0 SHL SUB DUP4 AND PUSH1 0x0 SWAP1 DUP2 MSTORE PUSH1 0x30 PUSH1 0x20 MSTORE PUSH1 0x40 DUP2 KECCAK256 SLOAD PUSH1 0xFF AND ISZERO DUP1 ISZERO PUSH2 0x1CB0 JUMPI POP PUSH1 0x1 PUSH1 0x1 PUSH1 0xA0 SHL SUB DUP4 AND PUSH1 0x0 SWAP1 DUP2 MSTORE PUSH1 0x30 PUSH1 0x20 MSTORE PUSH1 0x40 SWAP1 KECCAK256 SLOAD PUSH1 0xFF AND ISZERO JUMPDEST PUSH2 0x1CCC JUMPI PUSH1 0x40 MLOAD PUSH3 0x461BCD PUSH1 0xE5 SHL DUP2 MSTORE PUSH1 0x4 ADD PUSH2 0xB91 SWAP1 PUSH2 0x2D76 JUMP JUMPDEST PUSH1 0x2C SLOAD PUSH1 0xFF AND ISZERO PUSH2 0x1CE9 JUMPI PUSH2 0x1CE2 DUP5 DUP5 DUP5 PUSH2 0x2271 JUMP JUMPDEST SWAP1 POP PUSH2 0xEB9 JUMP JUMPDEST PUSH2 0x1CF3 DUP5 DUP4 PUSH2 0x2314 JUMP JUMPDEST PUSH2 0x1CFB PUSH2 0x2359 JUMP JUMPDEST ISZERO PUSH2 0x1D08 JUMPI PUSH2 0x1D08 PUSH2 0x23A8 JUMP JUMPDEST PUSH2 0x1D10 PUSH2 0x2742 JUMP JUMPDEST ISZERO PUSH2 0x1D1D JUMPI PUSH2 0x1D1D PUSH2 0x279D JUMP JUMPDEST PUSH1 0x40 DUP1 MLOAD DUP1 DUP3 ADD DUP3 MSTORE PUSH1 0x14 DUP2 MSTORE PUSH20 0x496E73756666696369656E742042616C616E6365 PUSH1 0x60 SHL PUSH1 0x20 DUP1 DUP4 ADD SWAP2 SWAP1 SWAP2 MSTORE PUSH1 0x1 PUSH1 0x1 PUSH1 0xA0 SHL SUB DUP8 AND PUSH1 0x0 SWAP1 DUP2 MSTORE PUSH1 0x9 SWAP1 SWAP2 MSTORE SWAP2 SWAP1 SWAP2 KECCAK256 SLOAD PUSH2 0x1D6F SWAP2 DUP5 SWAP1 PUSH2 0x1C42 JUMP JUMPDEST PUSH1 0x1 PUSH1 0x1 PUSH1 0xA0 SHL SUB DUP6 AND PUSH1 0x0 SWAP1 DUP2 MSTORE PUSH1 0x9 PUSH1 0x20 MSTORE PUSH1 0x40 DUP2 KECCAK256 SWAP2 SWAP1 SWAP2 SSTORE PUSH2 0x1D94 DUP6 PUSH2 0x27E3 JUMP JUMPDEST PUSH2 0x1D9E JUMPI DUP3 PUSH2 0x1DA9 JUMP JUMPDEST PUSH2 0x1DA9 DUP6 DUP6 DUP6 PUSH2 0x2802 JUMP JUMPDEST PUSH1 0x19 SLOAD SWAP1 SWAP2 POP PUSH1 0x1 PUSH1 0x1 PUSH1 0xA0 SHL SUB DUP6 DUP2 AND SWAP2 AND EQ DUP1 ISZERO SWAP1 PUSH2 0x1DE0 JUMPI POP PUSH1 0x1 PUSH1 0x1 PUSH1 0xA0 SHL SUB DUP5 AND PUSH1 0x0 SWAP1 DUP2 MSTORE PUSH1 0x9 PUSH1 0x20 MSTORE PUSH1 0x40 SWAP1 KECCAK256 SLOAD ISZERO JUMPDEST ISZERO PUSH2 0x1E31 JUMPI PUSH1 0x31 DUP1 SLOAD PUSH1 0x1 DUP2 ADD DUP3 SSTORE PUSH1 0x0 SWAP2 SWAP1 SWAP2 MSTORE PUSH32 0xC54045FA7C6EC765E825DF7F9E9BF9DEC12C5CEF146F93A5EEE56772EE647FBC ADD DUP1 SLOAD PUSH1 0x1 PUSH1 0x1 PUSH1 0xA0 SHL SUB NOT AND PUSH1 0x1 PUSH1 0x1 PUSH1 0xA0 SHL SUB DUP7 AND OR SWAP1 SSTORE JUMPDEST PUSH1 0x1 PUSH1 0x1 PUSH1 0xA0 SHL SUB DUP5 AND PUSH1 0x0 SWAP1 DUP2 MSTORE PUSH1 0x9 PUSH1 0x20 MSTORE PUSH1 0x40 SWAP1 KECCAK256 SLOAD PUSH2 0x1E54 SWAP1 DUP3 PUSH2 0x1C36 JUMP JUMPDEST PUSH1 0x1 PUSH1 0x1 PUSH1 0xA0 SHL SUB DUP1 DUP7 AND PUSH1 0x0 SWAP1 DUP2 MSTORE PUSH1 0x9 PUSH1 0x20 SWAP1 DUP2 MSTORE PUSH1 0x40 DUP1 DUP4 KECCAK256 SWAP5 SWAP1 SWAP5 SSTORE SWAP2 DUP9 AND DUP2 MSTORE PUSH1 0xD SWAP1 SWAP2 MSTORE KECCAK256 SLOAD PUSH1 0xFF AND PUSH2 0x1EF8 JUMPI PUSH1 0x27 SLOAD PUSH1 0x1 PUSH1 0x1 PUSH1 0xA0 SHL SUB DUP7 DUP2 AND PUSH1 0x0 SWAP1 DUP2 MSTORE PUSH1 0x9 PUSH1 0x20 MSTORE PUSH1 0x40 SWAP1 DUP2 SWAP1 KECCAK256 SLOAD SWAP1 MLOAD PUSH4 0xA5B654B PUSH1 0xE1 SHL DUP2 MSTORE SWAP2 SWAP1 SWAP3 AND SWAP2 PUSH4 0x14B6CA96 SWAP2 PUSH2 0x1ECB SWAP2 DUP10 SWAP2 PUSH1 0x4 ADD PUSH2 0x2BA6 JUMP JUMPDEST PUSH1 0x0 PUSH1 0x40 MLOAD DUP1 DUP4 SUB DUP2 PUSH1 0x0 DUP8 DUP1 EXTCODESIZE ISZERO DUP1 ISZERO PUSH2 0x1EE5 JUMPI PUSH1 0x0 DUP1 REVERT JUMPDEST POP GAS CALL SWAP3 POP POP POP DUP1 ISZERO PUSH2 0x1EF6 JUMPI POP PUSH1 0x1 JUMPDEST POP JUMPDEST PUSH1 0x1 PUSH1 0x1 PUSH1 0xA0 SHL SUB DUP5 AND PUSH1 0x0 SWAP1 DUP2 MSTORE PUSH1 0xD PUSH1 0x20 MSTORE PUSH1 0x40 SWAP1 KECCAK256 SLOAD PUSH1 0xFF AND PUSH2 0x1F89 JUMPI PUSH1 0x27 SLOAD PUSH1 0x1 PUSH1 0x1 PUSH1 0xA0 SHL SUB DUP6 DUP2 AND PUSH1 0x0 SWAP1 DUP2 MSTORE PUSH1 0x9 PUSH1 0x20 MSTORE PUSH1 0x40 SWAP1 DUP2 SWAP1 KECCAK256 SLOAD SWAP1 MLOAD PUSH4 0xA5B654B PUSH1 0xE1 SHL DUP2 MSTORE SWAP2 SWAP1 SWAP3 AND SWAP2 PUSH4 0x14B6CA96 SWAP2 PUSH2 0x1F5C SWAP2 DUP9 SWAP2 PUSH1 0x4 ADD PUSH2 0x2BA6 JUMP JUMPDEST PUSH1 0x0 PUSH1 0x40 MLOAD DUP1 DUP4 SUB DUP2 PUSH1 0x0 DUP8 DUP1 EXTCODESIZE ISZERO DUP1 ISZERO PUSH2 0x1F76 JUMPI PUSH1 0x0 DUP1 REVERT JUMPDEST POP GAS CALL SWAP3 POP POP POP DUP1 ISZERO PUSH2 0x1F87 JUMPI POP PUSH1 0x1 JUMPDEST POP JUMPDEST PUSH1 0x19 SLOAD PUSH1 0x1 PUSH1 0x1 PUSH1 0xA0 SHL SUB DUP6 DUP2 AND SWAP2 AND EQ PUSH2 0x2038 JUMPI PUSH1 0x1 PUSH1 0x1 PUSH1 0xA0 SHL SUB DUP5 AND PUSH1 0x0 SWAP1 DUP2 MSTORE PUSH1 0x2D PUSH1 0x20 SWAP1 DUP2 MSTORE PUSH1 0x40 DUP1 DUP4 KECCAK256 TIMESTAMP SWAP1 SSTORE PUSH1 0x2F SWAP1 SWAP2 MSTORE SWAP1 KECCAK256 SLOAD PUSH2 0x1FE4 JUMPI PUSH1 0x1 PUSH1 0x1 PUSH1 0xA0 SHL SUB DUP5 AND PUSH1 0x0 SWAP1 DUP2 MSTORE PUSH1 0x2F PUSH1 0x20 MSTORE PUSH1 0x40 SWAP1 KECCAK256 TIMESTAMP SWAP1 SSTORE JUMPDEST PUSH1 0x19 SLOAD PUSH1 0x1 PUSH1 0x1 PUSH1 0xA0 SHL SUB DUP7 DUP2 AND SWAP2 AND EQ PUSH2 0x2033 JUMPI PUSH1 0x1 PUSH1 0x1 PUSH1 0xA0 SHL SUB DUP6 AND PUSH1 0x0 SWAP1 DUP2 MSTORE PUSH1 0x9 PUSH1 0x20 MSTORE PUSH1 0x40 SWAP1 KECCAK256 SLOAD DUP4 GT ISZERO PUSH2 0x2033 JUMPI PUSH1 0x1 PUSH1 0x1 PUSH1 0xA0 SHL SUB DUP6 AND PUSH1 0x0 SWAP1 DUP2 MSTORE PUSH1 0x2F PUSH1 0x20 MSTORE PUSH1 0x40 DUP2 KECCAK256 SSTORE JUMPDEST PUSH2 0x2072 JUMP JUMPDEST PUSH1 0x1 PUSH1 0x1 PUSH1 0xA0 SHL SUB DUP6 AND PUSH1 0x0 SWAP1 DUP2 MSTORE PUSH1 0x9 PUSH1 0x20 MSTORE PUSH1 0x40 SWAP1 KECCAK256 SLOAD DUP4 GT ISZERO PUSH2 0x2072 JUMPI PUSH1 0x1 PUSH1 0x1 PUSH1 0xA0 SHL SUB DUP6 AND PUSH1 0x0 SWAP1 DUP2 MSTORE PUSH1 0x2F PUSH1 0x20 MSTORE PUSH1 0x40 DUP2 KECCAK256 SSTORE JUMPDEST PUSH1 0x33 SLOAD PUSH1 0xFF AND ISZERO PUSH2 0x20DE JUMPI PUSH1 0x27 SLOAD PUSH1 0x29 SLOAD PUSH1 0x40 MLOAD PUSH1 0x1 PUSH3 0x4D3B87 PUSH1 0xE0 SHL SUB NOT DUP2 MSTORE PUSH1 0x1 PUSH1 0x1 PUSH1 0xA0 SHL SUB SWAP1 SWAP3 AND SWAP2 PUSH4 0xFFB2C479 SWAP2 PUSH2 0x20B1 SWAP2 PUSH1 0x4 ADD PUSH2 0x2DD2 JUMP JUMPDEST PUSH1 0x0 PUSH1 0x40 MLOAD DUP1 DUP4 SUB DUP2 PUSH1 0x0 DUP8 DUP1 EXTCODESIZE ISZERO DUP1 ISZERO PUSH2 0x20CB JUMPI PUSH1 0x0 DUP1 REVERT JUMPDEST POP GAS CALL SWAP3 POP POP POP DUP1 ISZERO PUSH2 0x20DC JUMPI POP PUSH1 0x1 JUMPDEST POP JUMPDEST DUP4 PUSH1 0x1 PUSH1 0x1 PUSH1 0xA0 SHL SUB AND DUP6 PUSH1 0x1 PUSH1 0x1 PUSH1 0xA0 SHL SUB AND PUSH32 0xDDF252AD1BE2C89B69C2B068FC378DAA952BA7F163C4A11628F55A4DF523B3EF DUP4 PUSH1 0x40 MLOAD PUSH2 0x2121 SWAP2 SWAP1 PUSH2 0x2DD2 JUMP JUMPDEST PUSH1 0x40 MLOAD DUP1 SWAP2 SUB SWAP1 LOG3 POP PUSH1 0x1 SWAP5 SWAP4 POP POP POP POP JUMP JUMPDEST PUSH1 0x0 PUSH2 0xEB9 DUP3 DUP5 PUSH2 0x2E8A JUMP JUMPDEST PUSH1 0x0 PUSH2 0xEB9 DUP3 DUP5 PUSH2 0x2E6B JUMP JUMPDEST PUSH1 0x2C DUP1 SLOAD PUSH1 0xFF NOT AND PUSH1 0x1 OR SWAP1 SSTORE PUSH1 0x40 DUP1 MLOAD PUSH1 0x2 DUP1 DUP3 MSTORE PUSH1 0x60 DUP3 ADD DUP4 MSTORE PUSH1 0x0 SWAP3 PUSH1 0x20 DUP4 ADD SWAP1 DUP1 CALLDATASIZE DUP4 CALLDATACOPY POP POP PUSH1 0x3 SLOAD DUP3 MLOAD SWAP3 SWAP4 POP PUSH1 0x1 PUSH1 0x1 PUSH1 0xA0 SHL SUB AND SWAP2 DUP4 SWAP2 POP PUSH1 0x0 SWAP1 PUSH2 0x21A8 JUMPI PUSH4 0x4E487B71 PUSH1 0xE0 SHL PUSH1 0x0 MSTORE PUSH1 0x32 PUSH1 0x4 MSTORE PUSH1 0x24 PUSH1 0x0 REVERT JUMPDEST PUSH1 0x20 MUL PUSH1 0x20 ADD ADD SWAP1 PUSH1 0x1 PUSH1 0x1 PUSH1 0xA0 SHL SUB AND SWAP1 DUP2 PUSH1 0x1 PUSH1 0x1 PUSH1 0xA0 SHL SUB AND DUP2 MSTORE POP POP ADDRESS DUP2 PUSH1 0x1 DUP2 MLOAD DUP2 LT PUSH2 0x21EA JUMPI PUSH4 0x4E487B71 PUSH1 0xE0 SHL PUSH1 0x0 MSTORE PUSH1 0x32 PUSH1 0x4 MSTORE PUSH1 0x24 PUSH1 0x0 REVERT JUMPDEST PUSH1 0x1 PUSH1 0x1 PUSH1 0xA0 SHL SUB SWAP3 DUP4 AND PUSH1 0x20 SWAP2 DUP3 MUL SWAP3 SWAP1 SWAP3 ADD ADD MSTORE PUSH1 0x18 SLOAD PUSH1 0x40 MLOAD PUSH4 0xB6F9DE95 PUSH1 0xE0 SHL DUP2 MSTORE SWAP2 AND SWAP1 PUSH4 0xB6F9DE95 SWAP1 DUP6 SWAP1 PUSH2 0x2230 SWAP1 PUSH1 0x0 SWAP1 DUP7 SWAP1 DUP9 SWAP1 TIMESTAMP SWAP1 PUSH1 0x4 ADD PUSH2 0x2C18 JUMP JUMPDEST PUSH1 0x0 PUSH1 0x40 MLOAD DUP1 DUP4 SUB DUP2 DUP6 DUP9 DUP1 EXTCODESIZE ISZERO DUP1 ISZERO PUSH2 0x2249 JUMPI PUSH1 0x0 DUP1 REVERT JUMPDEST POP GAS CALL ISZERO DUP1 ISZERO PUSH2 0x225D JUMPI RETURNDATASIZE PUSH1 0x0 DUP1 RETURNDATACOPY RETURNDATASIZE PUSH1 0x0 REVERT JUMPDEST POP POP PUSH1 0x2C DUP1 SLOAD PUSH1 0xFF NOT AND SWAP1 SSTORE POP POP POP POP POP POP JUMP JUMPDEST PUSH1 0x40 DUP1 MLOAD DUP1 DUP3 ADD DUP3 MSTORE PUSH1 0x14 DUP2 MSTORE PUSH20 0x496E73756666696369656E742042616C616E6365 PUSH1 0x60 SHL PUSH1 0x20 DUP1 DUP4 ADD SWAP2 SWAP1 SWAP2 MSTORE PUSH1 0x1 PUSH1 0x1 PUSH1 0xA0 SHL SUB DUP7 AND PUSH1 0x0 SWAP1 DUP2 MSTORE PUSH1 0x9 SWAP1 SWAP2 MSTORE SWAP2 DUP3 KECCAK256 SLOAD PUSH2 0x22C2 SWAP2 DUP5 SWAP1 PUSH2 0x1C42 JUMP JUMPDEST PUSH1 0x1 PUSH1 0x1 PUSH1 0xA0 SHL SUB DUP1 DUP7 AND PUSH1 0x0 SWAP1 DUP2 MSTORE PUSH1 0x9 PUSH1 0x20 MSTORE PUSH1 0x40 DUP1 DUP3 KECCAK256 SWAP4 SWAP1 SWAP4 SSTORE SWAP1 DUP6 AND DUP2 MSTORE KECCAK256 SLOAD PUSH2 0x22F1 SWAP1 DUP4 PUSH2 0x1C36 JUMP JUMPDEST PUSH1 0x1 PUSH1 0x1 PUSH1 0xA0 SHL SUB DUP5 AND PUSH1 0x0 SWAP1 DUP2 MSTORE PUSH1 0x9 PUSH1 0x20 MSTORE PUSH1 0x40 SWAP1 KECCAK256 SSTORE POP PUSH1 0x1 SWAP4 SWAP3 POP POP POP JUMP JUMPDEST PUSH1 0x8 SLOAD DUP2 GT ISZERO DUP1 PUSH2 0x233D JUMPI POP PUSH1 0x1 PUSH1 0x1 PUSH1 0xA0 SHL SUB DUP3 AND PUSH1 0x0 SWAP1 DUP2 MSTORE PUSH1 0xC PUSH1 0x20 MSTORE PUSH1 0x40 SWAP1 KECCAK256 SLOAD PUSH1 0xFF AND JUMPDEST PUSH2 0x1A79 JUMPI PUSH1 0x40 MLOAD PUSH3 0x461BCD PUSH1 0xE5 SHL DUP2 MSTORE PUSH1 0x4 ADD PUSH2 0xB91 SWAP1 PUSH2 0x2CA0 JUMP JUMPDEST PUSH1 0x19 SLOAD PUSH1 0x0 SWAP1 PUSH1 0x1 PUSH1 0x1 PUSH1 0xA0 SHL SUB AND CALLER EQ DUP1 ISZERO SWAP1 PUSH2 0x237A JUMPI POP PUSH1 0x2C SLOAD PUSH1 0xFF AND ISZERO JUMPDEST DUP1 ISZERO PUSH2 0x2388 JUMPI POP PUSH1 0x2A SLOAD PUSH1 0xFF AND JUMPDEST DUP1 ISZERO PUSH2 0x101E JUMPI POP POP PUSH1 0x2B SLOAD ADDRESS PUSH1 0x0 SWAP1 DUP2 MSTORE PUSH1 0x9 PUSH1 0x20 MSTORE PUSH1 0x40 SWAP1 KECCAK256 SLOAD LT ISZERO SWAP1 JUMP JUMPDEST PUSH1 0x2C DUP1 SLOAD PUSH1 0xFF NOT AND PUSH1 0x1 OR SWAP1 SSTORE PUSH1 0x16 SLOAD PUSH1 0x17 SLOAD PUSH1 0x0 SWAP2 PUSH2 0x23C7 SWAP2 PUSH2 0xD1E JUMP JUMPDEST PUSH2 0x23D3 JUMPI PUSH1 0xE SLOAD PUSH2 0x23D6 JUMP JUMPDEST PUSH1 0x0 JUMPDEST SWAP1 POP PUSH1 0x0 PUSH2 0x23FA PUSH1 0x2 PUSH2 0x171F PUSH1 0x12 SLOAD PUSH2 0x171F DUP7 PUSH1 0x2B SLOAD PUSH2 0x2140 SWAP1 SWAP2 SWAP1 PUSH4 0xFFFFFFFF AND JUMP JUMPDEST SWAP1 POP PUSH1 0x0 PUSH2 0x2413 DUP3 PUSH1 0x2B SLOAD PUSH2 0x2134 SWAP1 SWAP2 SWAP1 PUSH4 0xFFFFFFFF AND JUMP JUMPDEST PUSH1 0x40 DUP1 MLOAD PUSH1 0x2 DUP1 DUP3 MSTORE PUSH1 0x60 DUP3 ADD DUP4 MSTORE SWAP3 SWAP4 POP PUSH1 0x0 SWAP3 SWAP1 SWAP2 PUSH1 0x20 DUP4 ADD SWAP1 DUP1 CALLDATASIZE DUP4 CALLDATACOPY ADD SWAP1 POP POP SWAP1 POP ADDRESS DUP2 PUSH1 0x0 DUP2 MLOAD DUP2 LT PUSH2 0x245B JUMPI PUSH4 0x4E487B71 PUSH1 0xE0 SHL PUSH1 0x0 MSTORE PUSH1 0x32 PUSH1 0x4 MSTORE PUSH1 0x24 PUSH1 0x0 REVERT JUMPDEST PUSH1 0x1 PUSH1 0x1 PUSH1 0xA0 SHL SUB SWAP3 DUP4 AND PUSH1 0x20 SWAP2 DUP3 MUL SWAP3 SWAP1 SWAP3 ADD ADD MSTORE PUSH1 0x3 SLOAD DUP3 MLOAD SWAP2 AND SWAP1 DUP3 SWAP1 PUSH1 0x1 SWAP1 DUP2 LT PUSH2 0x249A JUMPI PUSH4 0x4E487B71 PUSH1 0xE0 SHL PUSH1 0x0 MSTORE PUSH1 0x32 PUSH1 0x4 MSTORE PUSH1 0x24 PUSH1 0x0 REVERT JUMPDEST PUSH1 0x1 PUSH1 0x1 PUSH1 0xA0 SHL SUB SWAP3 DUP4 AND PUSH1 0x20 SWAP2 DUP3 MUL SWAP3 SWAP1 SWAP3 ADD ADD MSTORE PUSH1 0x18 SLOAD PUSH1 0x40 MLOAD PUSH4 0x791AC947 PUSH1 0xE0 SHL DUP2 MSTORE SELFBALANCE SWAP3 SWAP2 SWAP1 SWAP2 AND SWAP1 PUSH4 0x791AC947 SWAP1 PUSH2 0x24E4 SWAP1 DUP7 SWAP1 PUSH1 0x0 SWAP1 DUP8 SWAP1 ADDRESS SWAP1 TIMESTAMP SWAP1 PUSH1 0x4 ADD PUSH2 0x2DDB JUMP JUMPDEST PUSH1 0x0 PUSH1 0x40 MLOAD DUP1 DUP4 SUB DUP2 PUSH1 0x0 DUP8 DUP1 EXTCODESIZE ISZERO DUP1 ISZERO PUSH2 0x24FE JUMPI PUSH1 0x0 DUP1 REVERT JUMPDEST POP GAS CALL ISZERO DUP1 ISZERO PUSH2 0x2512 JUMPI RETURNDATASIZE PUSH1 0x0 DUP1 RETURNDATACOPY RETURNDATASIZE PUSH1 0x0 REVERT JUMPDEST POP POP POP POP PUSH1 0x0 PUSH2 0x252B DUP3 SELFBALANCE PUSH2 0x2134 SWAP1 SWAP2 SWAP1 PUSH4 0xFFFFFFFF AND JUMP JUMPDEST SWAP1 POP PUSH1 0x0 PUSH2 0x2546 PUSH2 0x253D DUP9 PUSH1 0x2 PUSH2 0x1C2A JUMP JUMPDEST PUSH1 0x12 SLOAD SWAP1 PUSH2 0x2134 JUMP JUMPDEST SWAP1 POP PUSH1 0x0 PUSH2 0x255B PUSH1 0x2 PUSH2 0x171F DUP5 DUP2 DUP8 DUP14 PUSH2 0x2140 JUMP JUMPDEST SWAP1 POP PUSH1 0x0 PUSH2 0x2578 DUP4 PUSH2 0x171F PUSH1 0x10 SLOAD DUP8 PUSH2 0x2140 SWAP1 SWAP2 SWAP1 PUSH4 0xFFFFFFFF AND JUMP JUMPDEST SWAP1 POP PUSH1 0x0 PUSH2 0x2595 DUP5 PUSH2 0x171F PUSH1 0x11 SLOAD DUP9 PUSH2 0x2140 SWAP1 SWAP2 SWAP1 PUSH4 0xFFFFFFFF AND JUMP JUMPDEST SWAP1 POP PUSH1 0x27 PUSH1 0x0 SWAP1 SLOAD SWAP1 PUSH2 0x100 EXP SWAP1 DIV PUSH1 0x1 PUSH1 0x1 PUSH1 0xA0 SHL SUB AND PUSH1 0x1 PUSH1 0x1 PUSH1 0xA0 SHL SUB AND PUSH4 0xD0E30DB0 DUP4 PUSH1 0x40 MLOAD DUP3 PUSH4 0xFFFFFFFF AND PUSH1 0xE0 SHL DUP2 MSTORE PUSH1 0x4 ADD PUSH1 0x0 PUSH1 0x40 MLOAD DUP1 DUP4 SUB DUP2 DUP6 DUP9 DUP1 EXTCODESIZE ISZERO DUP1 ISZERO PUSH2 0x25E7 JUMPI PUSH1 0x0 DUP1 REVERT JUMPDEST POP GAS CALL SWAP4 POP POP POP POP DUP1 ISZERO PUSH2 0x25F9 JUMPI POP PUSH1 0x1 JUMPDEST POP PUSH1 0x15 SLOAD PUSH1 0x40 MLOAD PUSH1 0x1 PUSH1 0x1 PUSH1 0xA0 SHL SUB SWAP1 SWAP2 AND SWAP1 DUP3 ISZERO PUSH2 0x8FC MUL SWAP1 DUP4 SWAP1 PUSH1 0x0 DUP2 DUP2 DUP2 DUP6 DUP9 DUP9 CALL SWAP4 POP POP POP POP ISZERO DUP1 ISZERO PUSH2 0x2634 JUMPI RETURNDATASIZE PUSH1 0x0 DUP1 RETURNDATACOPY RETURNDATASIZE PUSH1 0x0 REVERT JUMPDEST POP DUP9 ISZERO PUSH2 0x272C JUMPI PUSH1 0x18 PUSH1 0x0 SWAP1 SLOAD SWAP1 PUSH2 0x100 EXP SWAP1 DIV PUSH1 0x1 PUSH1 0x1 PUSH1 0xA0 SHL SUB AND PUSH1 0x1 PUSH1 0x1 PUSH1 0xA0 SHL SUB AND PUSH4 0xF305D719 DUP5 ADDRESS DUP13 PUSH1 0x0 DUP1 PUSH1 0x14 PUSH1 0x0 SWAP1 SLOAD SWAP1 PUSH2 0x100 EXP SWAP1 DIV PUSH1 0x1 PUSH1 0x1 PUSH1 0xA0 SHL SUB AND TIMESTAMP PUSH1 0x40 MLOAD DUP9 PUSH4 0xFFFFFFFF AND PUSH1 0xE0 SHL DUP2 MSTORE PUSH1 0x4 ADD PUSH2 0x269D SWAP7 SWAP6 SWAP5 SWAP4 SWAP3 SWAP2 SWAP1 PUSH2 0x2BBF JUMP JUMPDEST PUSH1 0x60 PUSH1 0x40 MLOAD DUP1 DUP4 SUB DUP2 DUP6 DUP9 DUP1 EXTCODESIZE ISZERO DUP1 ISZERO PUSH2 0x26B6 JUMPI PUSH1 0x0 DUP1 REVERT JUMPDEST POP GAS CALL ISZERO DUP1 ISZERO PUSH2 0x26CA JUMPI RETURNDATASIZE PUSH1 0x0 DUP1 RETURNDATACOPY RETURNDATASIZE PUSH1 0x0 REVERT JUMPDEST POP POP POP POP POP PUSH1 0x40 MLOAD RETURNDATASIZE PUSH1 0x1F NOT PUSH1 0x1F DUP3 ADD AND DUP3 ADD DUP1 PUSH1 0x40 MSTORE POP DUP2 ADD SWAP1 PUSH2 0x26EF SWAP2 SWAP1 PUSH2 0x2AE8 JUMP JUMPDEST POP POP POP PUSH32 0x424DB2872186FA7E7AFA7A5E902ED3B49A2EF19C2F5431E672462495DD6B4506 DUP4 DUP11 PUSH1 0x40 MLOAD PUSH2 0x2723 SWAP3 SWAP2 SWAP1 PUSH2 0x2E17 JUMP JUMPDEST PUSH1 0x40 MLOAD DUP1 SWAP2 SUB SWAP1 LOG1 JUMPDEST POP POP PUSH1 0x2C DUP1 SLOAD PUSH1 0xFF NOT AND SWAP1 SSTORE POP POP POP POP POP POP POP POP JUMP JUMPDEST PUSH1 0x19 SLOAD PUSH1 0x0 SWAP1 PUSH1 0x1 PUSH1 0x1 PUSH1 0xA0 SHL SUB AND CALLER EQ DUP1 ISZERO SWAP1 PUSH2 0x2763 JUMPI POP PUSH1 0x2C SLOAD PUSH1 0xFF AND ISZERO JUMPDEST DUP1 ISZERO PUSH2 0x2771 JUMPI POP PUSH1 0x20 SLOAD PUSH1 0xFF AND JUMPDEST DUP1 ISZERO PUSH2 0x278C JUMPI POP NUMBER PUSH1 0x25 SLOAD PUSH1 0x26 SLOAD PUSH2 0x2789 SWAP2 SWAP1 PUSH2 0x2E33 JUMP JUMPDEST GT ISZERO JUMPDEST DUP1 ISZERO PUSH2 0x101E JUMPI POP POP PUSH1 0x24 SLOAD SELFBALANCE LT ISZERO SWAP1 JUMP JUMPDEST PUSH1 0x24 SLOAD PUSH1 0x4 SLOAD PUSH2 0x27B6 SWAP2 SWAP1 PUSH1 0x1 PUSH1 0x1 PUSH1 0xA0 SHL SUB AND PUSH2 0x214C JUMP JUMPDEST NUMBER PUSH1 0x26 SSTORE PUSH1 0x24 SLOAD PUSH1 0x23 SLOAD PUSH2 0x27C9 SWAP2 PUSH2 0x1C36 JUMP JUMPDEST PUSH1 0x23 DUP2 SWAP1 SSTORE PUSH1 0x22 SLOAD LT ISZERO PUSH2 0x16DF JUMPI PUSH1 0x20 DUP1 SLOAD PUSH1 0xFF NOT AND SWAP1 SSTORE JUMP JUMPDEST PUSH1 0x1 PUSH1 0x1 PUSH1 0xA0 SHL SUB AND PUSH1 0x0 SWAP1 DUP2 MSTORE PUSH1 0xB PUSH1 0x20 MSTORE PUSH1 0x40 SWAP1 KECCAK256 SLOAD PUSH1 0xFF AND ISZERO SWAP1 JUMP JUMPDEST PUSH1 0x13 SLOAD PUSH1 0x19 SLOAD PUSH1 0x0 SWAP2 DUP3 SWAP2 PUSH2 0x2834 SWAP2 SWAP1 PUSH2 0x171F SWAP1 PUSH2 0x282D SWAP1 PUSH1 0x1 PUSH1 0x1 PUSH1 0xA0 SHL SUB DUP10 DUP2 AND SWAP2 AND EQ PUSH2 0x1922 JUMP JUMPDEST DUP7 SWAP1 PUSH2 0x2140 JUMP JUMPDEST ADDRESS PUSH1 0x0 SWAP1 DUP2 MSTORE PUSH1 0x9 PUSH1 0x20 MSTORE PUSH1 0x40 SWAP1 KECCAK256 SLOAD SWAP1 SWAP2 POP PUSH2 0x2851 SWAP1 DUP3 PUSH2 0x1C36 JUMP JUMPDEST ADDRESS PUSH1 0x0 DUP2 DUP2 MSTORE PUSH1 0x9 PUSH1 0x20 MSTORE PUSH1 0x40 SWAP1 DUP2 SWAP1 KECCAK256 SWAP3 SWAP1 SWAP3 SSTORE SWAP1 MLOAD PUSH1 0x1 PUSH1 0x1 PUSH1 0xA0 SHL SUB DUP8 AND SWAP1 PUSH32 0xDDF252AD1BE2C89B69C2B068FC378DAA952BA7F163C4A11628F55A4DF523B3EF SWAP1 PUSH2 0x28A0 SWAP1 DUP6 SWAP1 PUSH2 0x2DD2 JUMP JUMPDEST PUSH1 0x40 MLOAD DUP1 SWAP2 SUB SWAP1 LOG3 PUSH2 0x28B2 DUP4 DUP3 PUSH2 0x2134 JUMP JUMPDEST SWAP6 SWAP5 POP POP POP POP POP JUMP JUMPDEST PUSH1 0x0 PUSH1 0x20 DUP3 DUP5 SUB SLT ISZERO PUSH2 0x28CC JUMPI DUP1 DUP2 REVERT JUMPDEST DUP2 CALLDATALOAD PUSH2 0xEB9 DUP2 PUSH2 0x2EB7 JUMP JUMPDEST PUSH1 0x0 DUP1 PUSH1 0x40 DUP4 DUP6 SUB SLT ISZERO PUSH2 0x28E9 JUMPI DUP1 DUP2 REVERT JUMPDEST DUP3 CALLDATALOAD PUSH2 0x28F4 DUP2 PUSH2 0x2EB7 JUMP JUMPDEST SWAP5 PUSH1 0x20 SWAP4 SWAP1 SWAP4 ADD CALLDATALOAD SWAP4 POP POP POP JUMP JUMPDEST PUSH1 0x0 DUP1 PUSH1 0x40 DUP4 DUP6 SUB SLT ISZERO PUSH2 0x2914 JUMPI DUP2 DUP3 REVERT JUMPDEST DUP3 CALLDATALOAD PUSH2 0x291F DUP2 PUSH2 0x2EB7 JUMP JUMPDEST SWAP2 POP PUSH1 0x20 DUP4 ADD CALLDATALOAD PUSH2 0x292F DUP2 PUSH2 0x2EB7 JUMP JUMPDEST DUP1 SWAP2 POP POP SWAP3 POP SWAP3 SWAP1 POP JUMP JUMPDEST PUSH1 0x0 DUP1 PUSH1 0x0 PUSH1 0x60 DUP5 DUP7 SUB SLT ISZERO PUSH2 0x294E JUMPI DUP1 DUP2 REVERT JUMPDEST DUP4 CALLDATALOAD PUSH2 0x2959 DUP2 PUSH2 0x2EB7 JUMP JUMPDEST SWAP3 POP PUSH1 0x20 DUP5 ADD CALLDATALOAD PUSH2 0x2969 DUP2 PUSH2 0x2EB7 JUMP JUMPDEST SWAP3 SWAP6 SWAP3 SWAP5 POP POP POP PUSH1 0x40 SWAP2 SWAP1 SWAP2 ADD CALLDATALOAD SWAP1 JUMP JUMPDEST PUSH1 0x0 DUP1 PUSH1 0x40 DUP4 DUP6 SUB SLT ISZERO PUSH2 0x298C JUMPI DUP2 DUP3 REVERT JUMPDEST DUP3 CALLDATALOAD PUSH2 0x2997 DUP2 PUSH2 0x2EB7 JUMP JUMPDEST SWAP2 POP PUSH1 0x20 DUP4 ADD CALLDATALOAD PUSH2 0x292F DUP2 PUSH2 0x2ECC JUMP JUMPDEST PUSH1 0x0 DUP1 PUSH1 0x40 DUP4 DUP6 SUB SLT ISZERO PUSH2 0x28E9 JUMPI DUP2 DUP3 REVERT JUMPDEST PUSH1 0x0 PUSH1 0x20 DUP3 DUP5 SUB SLT ISZERO PUSH2 0x29CA JUMPI DUP1 DUP2 REVERT JUMPDEST DUP2 CALLDATALOAD PUSH2 0xEB9 DUP2 PUSH2 0x2ECC JUMP JUMPDEST PUSH1 0x0 PUSH1 0x20 DUP3 DUP5 SUB SLT ISZERO PUSH2 0x29E6 JUMPI DUP1 DUP2 REVERT JUMPDEST DUP2 MLOAD PUSH2 0xEB9 DUP2 PUSH2 0x2ECC JUMP JUMPDEST PUSH1 0x0 DUP1 PUSH1 0x40 DUP4 DUP6 SUB SLT ISZERO PUSH2 0x2A03 JUMPI DUP2 DUP3 REVERT JUMPDEST DUP3 CALLDATALOAD PUSH2 0x28F4 DUP2 PUSH2 0x2ECC JUMP JUMPDEST PUSH1 0x0 DUP1 PUSH1 0x0 DUP1 PUSH1 0x80 DUP6 DUP8 SUB SLT ISZERO PUSH2 0x2A23 JUMPI DUP1 DUP2 REVERT JUMPDEST DUP5 CALLDATALOAD PUSH2 0x2A2E DUP2 PUSH2 0x2ECC JUMP JUMPDEST SWAP7 PUSH1 0x20 DUP7 ADD CALLDATALOAD SWAP7 POP PUSH1 0x40 DUP7 ADD CALLDATALOAD SWAP6 PUSH1 0x60 ADD CALLDATALOAD SWAP5 POP SWAP3 POP POP POP JUMP JUMPDEST PUSH1 0x0 PUSH1 0x20 DUP3 DUP5 SUB SLT ISZERO PUSH2 0x2A59 JUMPI DUP1 DUP2 REVERT JUMPDEST POP CALLDATALOAD SWAP2 SWAP1 POP JUMP JUMPDEST PUSH1 0x0 PUSH1 0x20 DUP3 DUP5 SUB SLT ISZERO PUSH2 0x2A71 JUMPI DUP1 DUP2 REVERT JUMPDEST POP MLOAD SWAP2 SWAP1 POP JUMP JUMPDEST PUSH1 0x0 DUP1 PUSH1 0x40 DUP4 DUP6 SUB SLT ISZERO PUSH2 0x2A8A JUMPI DUP2 DUP3 REVERT JUMPDEST DUP3 CALLDATALOAD SWAP2 POP PUSH1 0x20 DUP4 ADD CALLDATALOAD PUSH2 0x292F DUP2 PUSH2 0x2ECC JUMP JUMPDEST PUSH1 0x0 DUP1 PUSH1 0x40 DUP4 DUP6 SUB SLT ISZERO PUSH2 0x2AAE JUMPI DUP2 DUP3 REVERT JUMPDEST POP POP DUP1 CALLDATALOAD SWAP3 PUSH1 0x20 SWAP1 SWAP2 ADD CALLDATALOAD SWAP2 POP JUMP JUMPDEST PUSH1 0x0 DUP1 PUSH1 0x0 PUSH1 0x60 DUP5 DUP7 SUB SLT ISZERO PUSH2 0x2AD1 JUMPI DUP3 DUP4 REVERT JUMPDEST POP POP DUP2 CALLDATALOAD SWAP4 PUSH1 0x20 DUP4 ADD CALLDATALOAD SWAP4 POP PUSH1 0x40 SWAP1 SWAP3 ADD CALLDATALOAD SWAP2 SWAP1 POP JUMP JUMPDEST PUSH1 0x0 DUP1 PUSH1 0x0 PUSH1 0x60 DUP5 DUP7 SUB SLT ISZERO PUSH2 0x2AFC JUMPI DUP1 DUP2 REVERT JUMPDEST DUP4 MLOAD SWAP3 POP PUSH1 0x20 DUP5 ADD MLOAD SWAP2 POP PUSH1 0x40 DUP5 ADD MLOAD SWAP1 POP SWAP3 POP SWAP3 POP SWAP3 JUMP JUMPDEST PUSH1 0x0 DUP1 PUSH1 0x0 DUP1 PUSH1 0x0 PUSH1 0xA0 DUP7 DUP9 SUB SLT ISZERO PUSH2 0x2B2C JUMPI DUP3 DUP4 REVERT JUMPDEST POP POP DUP4 CALLDATALOAD SWAP6 PUSH1 0x20 DUP6 ADD CALLDATALOAD SWAP6 POP PUSH1 0x40 DUP6 ADD CALLDATALOAD SWAP5 PUSH1 0x60 DUP2 ADD CALLDATALOAD SWAP5 POP PUSH1 0x80 ADD CALLDATALOAD SWAP3 POP SWAP1 POP JUMP JUMPDEST PUSH1 0x0 DUP2 MLOAD DUP1 DUP5 MSTORE PUSH1 0x20 DUP1 DUP6 ADD SWAP5 POP DUP1 DUP5 ADD DUP4 JUMPDEST DUP4 DUP2 LT ISZERO PUSH2 0x2B87 JUMPI DUP2 MLOAD PUSH1 0x1 PUSH1 0x1 PUSH1 0xA0 SHL SUB AND DUP8 MSTORE SWAP6 DUP3 ADD SWAP6 SWAP1 DUP3 ADD SWAP1 PUSH1 0x1 ADD PUSH2 0x2B62 JUMP JUMPDEST POP SWAP5 SWAP6 SWAP5 POP POP POP POP POP JUMP JUMPDEST PUSH1 0x1 PUSH1 0x1 PUSH1 0xA0 SHL SUB SWAP2 SWAP1 SWAP2 AND DUP2 MSTORE PUSH1 0x20 ADD SWAP1 JUMP JUMPDEST PUSH1 0x1 PUSH1 0x1 PUSH1 0xA0 SHL SUB SWAP3 SWAP1 SWAP3 AND DUP3 MSTORE PUSH1 0x20 DUP3 ADD MSTORE PUSH1 0x40 ADD SWAP1 JUMP JUMPDEST PUSH1 0x1 PUSH1 0x1 PUSH1 0xA0 SHL SUB SWAP7 DUP8 AND DUP2 MSTORE PUSH1 0x20 DUP2 ADD SWAP6 SWAP1 SWAP6 MSTORE PUSH1 0x40 DUP6 ADD SWAP4 SWAP1 SWAP4 MSTORE PUSH1 0x60 DUP5 ADD SWAP2 SWAP1 SWAP2 MSTORE SWAP1 SWAP3 AND PUSH1 0x80 DUP3 ADD MSTORE PUSH1 0xA0 DUP2 ADD SWAP2 SWAP1 SWAP2 MSTORE PUSH1 0xC0 ADD SWAP1 JUMP JUMPDEST PUSH1 0x0 PUSH1 0x20 DUP3 MSTORE PUSH2 0xEB9 PUSH1 0x20 DUP4 ADD DUP5 PUSH2 0x2B4F JUMP JUMPDEST SWAP1 ISZERO ISZERO DUP2 MSTORE PUSH1 0x20 ADD SWAP1 JUMP JUMPDEST PUSH1 0x0 DUP6 DUP3 MSTORE PUSH1 0x80 PUSH1 0x20 DUP4 ADD MSTORE PUSH2 0x2C31 PUSH1 0x80 DUP4 ADD DUP7 PUSH2 0x2B4F JUMP JUMPDEST PUSH1 0x1 PUSH1 0x1 PUSH1 0xA0 SHL SUB SWAP5 SWAP1 SWAP5 AND PUSH1 0x40 DUP4 ADD MSTORE POP PUSH1 0x60 ADD MSTORE SWAP3 SWAP2 POP POP JUMP JUMPDEST PUSH1 0x0 PUSH1 0x20 DUP1 DUP4 MSTORE DUP4 MLOAD DUP1 DUP3 DUP6 ADD MSTORE DUP3 JUMPDEST DUP2 DUP2 LT ISZERO PUSH2 0x2C79 JUMPI DUP6 DUP2 ADD DUP4 ADD MLOAD DUP6 DUP3 ADD PUSH1 0x40 ADD MSTORE DUP3 ADD PUSH2 0x2C5D JUMP JUMPDEST DUP2 DUP2 GT ISZERO PUSH2 0x2C8A JUMPI DUP4 PUSH1 0x40 DUP4 DUP8 ADD ADD MSTORE JUMPDEST POP PUSH1 0x1F ADD PUSH1 0x1F NOT AND SWAP3 SWAP1 SWAP3 ADD PUSH1 0x40 ADD SWAP4 SWAP3 POP POP POP JUMP JUMPDEST PUSH1 0x20 DUP1 DUP3 MSTORE PUSH1 0x11 SWAP1 DUP3 ADD MSTORE PUSH17 0x151608131A5B5A5D08115E18D959591959 PUSH1 0x7A SHL PUSH1 0x40 DUP3 ADD MSTORE PUSH1 0x60 ADD SWAP1 JUMP JUMPDEST PUSH1 0x20 DUP1 DUP3 MSTORE PUSH1 0x38 SWAP1 DUP3 ADD MSTORE PUSH32 0x416464726573733A20756E61626C6520746F2073656E642076616C75652C2063 PUSH1 0x40 DUP3 ADD MSTORE PUSH32 0x686172697479206D617920686176652072657665727465640000000000000000 PUSH1 0x60 DUP3 ADD MSTORE PUSH1 0x80 ADD SWAP1 JUMP JUMPDEST PUSH1 0x20 DUP1 DUP3 MSTORE PUSH1 0x14 SWAP1 DUP3 ADD MSTORE PUSH20 0x416C7265616479206C61756E6368656420626F69 PUSH1 0x60 SHL PUSH1 0x40 DUP3 ADD MSTORE PUSH1 0x60 ADD SWAP1 JUMP JUMPDEST PUSH1 0x20 DUP1 DUP3 MSTORE PUSH1 0x6 SWAP1 DUP3 ADD MSTORE PUSH6 0x10A7ABA722A9 PUSH1 0xD1 SHL PUSH1 0x40 DUP3 ADD MSTORE PUSH1 0x60 ADD SWAP1 JUMP JUMPDEST PUSH1 0x20 DUP1 DUP3 MSTORE PUSH1 0x1C SWAP1 DUP3 ADD MSTORE PUSH32 0x5472616E73666572206465636C696E656420666F722077616C6C657400000000 PUSH1 0x40 DUP3 ADD MSTORE PUSH1 0x60 ADD SWAP1 JUMP JUMPDEST PUSH1 0x20 DUP1 DUP3 MSTORE PUSH1 0xB SWAP1 DUP3 ADD MSTORE PUSH11 0x85055551213D492569151 PUSH1 0xAA SHL PUSH1 0x40 DUP3 ADD MSTORE PUSH1 0x60 ADD SWAP1 JUMP JUMPDEST SWAP1 DUP2 MSTORE PUSH1 0x20 ADD SWAP1 JUMP JUMPDEST PUSH1 0x0 DUP7 DUP3 MSTORE DUP6 PUSH1 0x20 DUP4 ADD MSTORE PUSH1 0xA0 PUSH1 0x40 DUP4 ADD MSTORE PUSH2 0x2DFA PUSH1 0xA0 DUP4 ADD DUP7 PUSH2 0x2B4F JUMP JUMPDEST PUSH1 0x1 PUSH1 0x1 PUSH1 0xA0 SHL SUB SWAP5 SWAP1 SWAP5 AND PUSH1 0x60 DUP4 ADD MSTORE POP PUSH1 0x80 ADD MSTORE SWAP4 SWAP3 POP POP POP JUMP JUMPDEST SWAP2 DUP3 MSTORE PUSH1 0x20 DUP3 ADD MSTORE PUSH1 0x40 ADD SWAP1 JUMP JUMPDEST PUSH1 0xFF SWAP2 SWAP1 SWAP2 AND DUP2 MSTORE PUSH1 0x20 ADD SWAP1 JUMP JUMPDEST PUSH1 0x0 DUP3 NOT DUP3 GT ISZERO PUSH2 0x2E46 JUMPI PUSH2 0x2E46 PUSH2 0x2EA1 JUMP JUMPDEST POP ADD SWAP1 JUMP JUMPDEST PUSH1 0x0 DUP3 PUSH2 0x2E66 JUMPI PUSH4 0x4E487B71 PUSH1 0xE0 SHL DUP2 MSTORE PUSH1 0x12 PUSH1 0x4 MSTORE PUSH1 0x24 DUP2 REVERT JUMPDEST POP DIV SWAP1 JUMP JUMPDEST PUSH1 0x0 DUP2 PUSH1 0x0 NOT DIV DUP4 GT DUP3 ISZERO ISZERO AND ISZERO PUSH2 0x2E85 JUMPI PUSH2 0x2E85 PUSH2 0x2EA1 JUMP JUMPDEST POP MUL SWAP1 JUMP JUMPDEST PUSH1 0x0 DUP3 DUP3 LT ISZERO PUSH2 0x2E9C JUMPI PUSH2 0x2E9C PUSH2 0x2EA1 JUMP JUMPDEST POP SUB SWAP1 JUMP JUMPDEST PUSH4 0x4E487B71 PUSH1 0xE0 SHL PUSH1 0x0 MSTORE PUSH1 0x11 PUSH1 0x4 MSTORE PUSH1 0x24 PUSH1 0x0 REVERT JUMPDEST PUSH1 0x1 PUSH1 0x1 PUSH1 0xA0 SHL SUB DUP2 AND DUP2 EQ PUSH2 0x16DD JUMPI PUSH1 0x0 DUP1 REVERT JUMPDEST DUP1 ISZERO ISZERO DUP2 EQ PUSH2 0x16DD JUMPI PUSH1 0x0 DUP1 REVERT INVALID LOG2 PUSH5 0x6970667358 0x22 SLT KECCAK256 PUSH3 0x7ABDA3 0xC3 0xBA PUSH28 0x548D38EA3BED7071BFE6AACD390B1684759002EC8031BE43E764736F PUSH13 0x63430008000033608060405260 ADD DUP1 SLOAD PUSH1 0x1 PUSH1 0x1 PUSH1 0xA0 SHL SUB NOT SWAP1 DUP2 AND PUSH20 0x2859E4544C4BB03966803B044A93563BD2D0DD4D OR SWAP1 SWAP2 SSTORE PUSH1 0x2 DUP1 SLOAD SWAP1 SWAP2 AND PUSH20 0xBB4CDB9CBD36B01BD1CBAEBF2DE08D9173BC095C OR SWAP1 SSTORE PUSH15 0xC097CE7BC90715B34B9F1000000000 PUSH1 0xD SSTORE PUSH3 0x15180 PUSH1 0xE SSTORE PUSH10 0xA968163F0A57B400000 PUSH1 0xF SSTORE CALLVALUE DUP1 ISZERO PUSH2 0x80 JUMPI PUSH1 0x0 DUP1 REVERT JUMPDEST POP PUSH1 0x40 MLOAD PUSH2 0x1382 CODESIZE SUB DUP1 PUSH2 0x1382 DUP4 CODECOPY DUP2 ADD PUSH1 0x40 DUP2 SWAP1 MSTORE PUSH2 0x9F SWAP2 PUSH2 0x124 JUMP JUMPDEST PUSH1 0x1 PUSH1 0x1 PUSH1 0xA0 SHL SUB DUP3 AND PUSH2 0xC7 JUMPI PUSH20 0x10ED43C718714EB63D5AA57B78B54704E256024E PUSH2 0xC9 JUMP JUMPDEST DUP2 JUMPDEST PUSH1 0x3 DUP1 SLOAD PUSH1 0x1 PUSH1 0x1 PUSH1 0xA0 SHL SUB SWAP3 DUP4 AND PUSH1 0x1 PUSH1 0x1 PUSH1 0xA0 SHL SUB NOT SWAP2 DUP3 AND OR SWAP1 SWAP2 SSTORE PUSH1 0x0 DUP1 SLOAD DUP3 AND CALLER OR SWAP1 SSTORE PUSH1 0x4 DUP1 SLOAD SWAP4 SWAP1 SWAP3 AND SWAP3 AND SWAP2 SWAP1 SWAP2 OR SWAP1 SSTORE POP PUSH2 0x156 JUMP JUMPDEST DUP1 MLOAD PUSH1 0x1 PUSH1 0x1 PUSH1 0xA0 SHL SUB DUP2 AND DUP2 EQ PUSH2 0x11F JUMPI PUSH1 0x0 DUP1 REVERT JUMPDEST SWAP2 SWAP1 POP JUMP JUMPDEST PUSH1 0x0 DUP1 PUSH1 0x40 DUP4 DUP6 SUB SLT ISZERO PUSH2 0x136 JUMPI DUP2 DUP3 REVERT JUMPDEST PUSH2 0x13F DUP4 PUSH2 0x108 JUMP JUMPDEST SWAP2 POP PUSH2 0x14D PUSH1 0x20 DUP5 ADD PUSH2 0x108 JUMP JUMPDEST SWAP1 POP SWAP3 POP SWAP3 SWAP1 POP JUMP JUMPDEST PUSH2 0x121D DUP1 PUSH2 0x165 PUSH1 0x0 CODECOPY PUSH1 0x0 RETURN INVALID PUSH1 0x80 PUSH1 0x40 MSTORE PUSH1 0x4 CALLDATASIZE LT PUSH2 0xFE JUMPI PUSH1 0x0 CALLDATALOAD PUSH1 0xE0 SHR DUP1 PUSH4 0x82723192 GT PUSH2 0x95 JUMPI DUP1 PUSH4 0xE2D2E219 GT PUSH2 0x64 JUMPI DUP1 PUSH4 0xE2D2E219 EQ PUSH2 0x25B JUMPI DUP1 PUSH4 0xEFCA2EED EQ PUSH2 0x270 JUMPI DUP1 PUSH4 0xF0FC6BCA EQ PUSH2 0x285 JUMPI DUP1 PUSH4 0xFFB2C479 EQ PUSH2 0x29A JUMPI DUP1 PUSH4 0xFFD49C84 EQ PUSH2 0x2BA JUMPI PUSH2 0xFE JUMP JUMPDEST DUP1 PUSH4 0x82723192 EQ PUSH2 0x1EF JUMPI DUP1 PUSH4 0x997664D7 EQ PUSH2 0x20F JUMPI DUP1 PUSH4 0xCE7C2AC2 EQ PUSH2 0x224 JUMPI DUP1 PUSH4 0xD0E30DB0 EQ PUSH2 0x253 JUMPI PUSH2 0xFE JUMP JUMPDEST DUP1 PUSH4 0x2D48E896 GT PUSH2 0xD1 JUMPI DUP1 PUSH4 0x2D48E896 EQ PUSH2 0x190 JUMPI DUP1 PUSH4 0x3A98EF39 EQ PUSH2 0x1B0 JUMPI DUP1 PUSH4 0x3B59F935 EQ PUSH2 0x1C5 JUMPI DUP1 PUSH4 0x4FAB0AE8 EQ PUSH2 0x1DA JUMPI PUSH2 0xFE JUMP JUMPDEST DUP1 PUSH4 0x92B32DD EQ PUSH2 0x103 JUMPI DUP1 PUSH4 0x11CE023D EQ PUSH2 0x139 JUMPI DUP1 PUSH4 0x14B6CA96 EQ PUSH2 0x14E JUMPI DUP1 PUSH4 0x28FD3198 EQ PUSH2 0x170 JUMPI JUMPDEST PUSH1 0x0 DUP1 REVERT JUMPDEST CALLVALUE DUP1 ISZERO PUSH2 0x10F JUMPI PUSH1 0x0 DUP1 REVERT JUMPDEST POP PUSH2 0x123 PUSH2 0x11E CALLDATASIZE PUSH1 0x4 PUSH2 0xFDF JUMP JUMPDEST PUSH2 0x2CF JUMP JUMPDEST PUSH1 0x40 MLOAD PUSH2 0x130 SWAP2 SWAP1 PUSH2 0x1129 JUMP JUMPDEST PUSH1 0x40 MLOAD DUP1 SWAP2 SUB SWAP1 RETURN JUMPDEST CALLVALUE DUP1 ISZERO PUSH2 0x145 JUMPI PUSH1 0x0 DUP1 REVERT JUMPDEST POP PUSH2 0x123 PUSH2 0x33D JUMP JUMPDEST CALLVALUE DUP1 ISZERO PUSH2 0x15A JUMPI PUSH1 0x0 DUP1 REVERT JUMPDEST POP PUSH2 0x16E PUSH2 0x169 CALLDATASIZE PUSH1 0x4 PUSH2 0xFF9 JUMP JUMPDEST PUSH2 0x343 JUMP JUMPDEST STOP JUMPDEST CALLVALUE DUP1 ISZERO PUSH2 0x17C JUMPI PUSH1 0x0 DUP1 REVERT JUMPDEST POP PUSH2 0x123 PUSH2 0x18B CALLDATASIZE PUSH1 0x4 PUSH2 0xFDF JUMP JUMPDEST PUSH2 0x468 JUMP JUMPDEST CALLVALUE DUP1 ISZERO PUSH2 0x19C JUMPI PUSH1 0x0 DUP1 REVERT JUMPDEST POP PUSH2 0x16E PUSH2 0x1AB CALLDATASIZE PUSH1 0x4 PUSH2 0x1072 JUMP JUMPDEST PUSH2 0x4F2 JUMP JUMPDEST CALLVALUE DUP1 ISZERO PUSH2 0x1BC JUMPI PUSH1 0x0 DUP1 REVERT JUMPDEST POP PUSH2 0x123 PUSH2 0x514 JUMP JUMPDEST CALLVALUE DUP1 ISZERO PUSH2 0x1D1 JUMPI PUSH1 0x0 DUP1 REVERT JUMPDEST POP PUSH2 0x123 PUSH2 0x51A JUMP JUMPDEST CALLVALUE DUP1 ISZERO PUSH2 0x1E6 JUMPI PUSH1 0x0 DUP1 REVERT JUMPDEST POP PUSH2 0x123 PUSH2 0x574 JUMP JUMPDEST CALLVALUE DUP1 ISZERO PUSH2 0x1FB JUMPI PUSH1 0x0 DUP1 REVERT JUMPDEST POP PUSH2 0x16E PUSH2 0x20A CALLDATASIZE PUSH1 0x4 PUSH2 0xFF9 JUMP JUMPDEST PUSH2 0x57A JUMP JUMPDEST CALLVALUE DUP1 ISZERO PUSH2 0x21B JUMPI PUSH1 0x0 DUP1 REVERT JUMPDEST POP PUSH2 0x123 PUSH2 0x654 JUMP JUMPDEST CALLVALUE DUP1 ISZERO PUSH2 0x230 JUMPI PUSH1 0x0 DUP1 REVERT JUMPDEST POP PUSH2 0x244 PUSH2 0x23F CALLDATASIZE PUSH1 0x4 PUSH2 0xFDF JUMP JUMPDEST PUSH2 0x65A JUMP JUMPDEST PUSH1 0x40 MLOAD PUSH2 0x130 SWAP4 SWAP3 SWAP2 SWAP1 PUSH2 0x1132 JUMP JUMPDEST PUSH2 0x16E PUSH2 0x67B JUMP JUMPDEST CALLVALUE DUP1 ISZERO PUSH2 0x267 JUMPI PUSH1 0x0 DUP1 REVERT JUMPDEST POP PUSH2 0x123 PUSH2 0x8E8 JUMP JUMPDEST CALLVALUE DUP1 ISZERO PUSH2 0x27C JUMPI PUSH1 0x0 DUP1 REVERT JUMPDEST POP PUSH2 0x123 PUSH2 0x8EE JUMP JUMPDEST CALLVALUE DUP1 ISZERO PUSH2 0x291 JUMPI PUSH1 0x0 DUP1 REVERT JUMPDEST POP PUSH2 0x16E PUSH2 0x8F4 JUMP JUMPDEST CALLVALUE DUP1 ISZERO PUSH2 0x2A6 JUMPI PUSH1 0x0 DUP1 REVERT JUMPDEST POP PUSH2 0x16E PUSH2 0x2B5 CALLDATASIZE PUSH1 0x4 PUSH2 0x1042 JUMP JUMPDEST PUSH2 0x923 JUMP JUMPDEST CALLVALUE DUP1 ISZERO PUSH2 0x2C6 JUMPI PUSH1 0x0 DUP1 REVERT JUMPDEST POP PUSH2 0x123 PUSH2 0xA42 JUMP JUMPDEST PUSH1 0xE SLOAD PUSH1 0x1 PUSH1 0x1 PUSH1 0xA0 SHL SUB DUP3 AND PUSH1 0x0 SWAP1 DUP2 MSTORE PUSH1 0x7 PUSH1 0x20 MSTORE PUSH1 0x40 DUP2 KECCAK256 SLOAD SWAP1 SWAP2 PUSH2 0x2F6 SWAP2 PUSH2 0x1148 JUMP JUMPDEST TIMESTAMP GT ISZERO PUSH2 0x305 JUMPI POP PUSH1 0x0 PUSH2 0x338 JUMP JUMPDEST PUSH1 0x1 PUSH1 0x1 PUSH1 0xA0 SHL SUB DUP3 AND PUSH1 0x0 SWAP1 DUP2 MSTORE PUSH1 0x7 PUSH1 0x20 MSTORE PUSH1 0x40 SWAP1 KECCAK256 SLOAD PUSH2 0x328 SWAP1 TIMESTAMP PUSH2 0x119F JUMP JUMPDEST PUSH1 0xE SLOAD PUSH2 0x335 SWAP2 SWAP1 PUSH2 0x119F JUMP JUMPDEST SWAP1 POP JUMPDEST SWAP2 SWAP1 POP JUMP JUMPDEST PUSH1 0xD SLOAD DUP2 JUMP JUMPDEST PUSH1 0x0 SLOAD PUSH1 0x1 PUSH1 0x1 PUSH1 0xA0 SHL SUB AND CALLER EQ PUSH2 0x35A JUMPI PUSH1 0x0 DUP1 REVERT JUMPDEST PUSH1 0x1 PUSH1 0x1 PUSH1 0xA0 SHL SUB DUP3 AND PUSH1 0x0 SWAP1 DUP2 MSTORE PUSH1 0x8 PUSH1 0x20 MSTORE PUSH1 0x40 SWAP1 KECCAK256 SLOAD ISZERO PUSH2 0x381 JUMPI PUSH2 0x381 DUP3 PUSH2 0xA48 JUMP JUMPDEST PUSH1 0x0 DUP2 GT DUP1 ISZERO PUSH2 0x3A7 JUMPI POP PUSH1 0x1 PUSH1 0x1 PUSH1 0xA0 SHL SUB DUP3 AND PUSH1 0x0 SWAP1 DUP2 MSTORE PUSH1 0x8 PUSH1 0x20 MSTORE PUSH1 0x40 SWAP1 KECCAK256 SLOAD ISZERO JUMPDEST ISZERO PUSH2 0x3BA JUMPI PUSH2 0x3B5 DUP3 PUSH2 0xB73 JUMP JUMPDEST PUSH2 0x3ED JUMP JUMPDEST DUP1 ISZERO DUP1 ISZERO PUSH2 0x3DF JUMPI POP PUSH1 0x1 PUSH1 0x1 PUSH1 0xA0 SHL SUB DUP3 AND PUSH1 0x0 SWAP1 DUP2 MSTORE PUSH1 0x8 PUSH1 0x20 MSTORE PUSH1 0x40 SWAP1 KECCAK256 SLOAD ISZERO ISZERO JUMPDEST ISZERO PUSH2 0x3ED JUMPI PUSH2 0x3ED DUP3 PUSH2 0xBD4 JUMP JUMPDEST PUSH1 0x1 PUSH1 0x1 PUSH1 0xA0 SHL SUB DUP3 AND PUSH1 0x0 SWAP1 DUP2 MSTORE PUSH1 0x8 PUSH1 0x20 MSTORE PUSH1 0x40 SWAP1 KECCAK256 SLOAD PUSH1 0x9 SLOAD PUSH2 0x41E SWAP2 DUP4 SWAP2 PUSH2 0x418 SWAP2 PUSH2 0xD21 JUMP JUMPDEST SWAP1 PUSH2 0xD34 JUMP JUMPDEST PUSH1 0x9 SSTORE PUSH1 0x1 PUSH1 0x1 PUSH1 0xA0 SHL SUB DUP3 AND PUSH1 0x0 SWAP1 DUP2 MSTORE PUSH1 0x8 PUSH1 0x20 MSTORE PUSH1 0x40 SWAP1 KECCAK256 DUP2 SWAP1 SSTORE PUSH2 0x445 DUP2 PUSH2 0xD40 JUMP JUMPDEST PUSH1 0x1 PUSH1 0x1 PUSH1 0xA0 SHL SUB SWAP1 SWAP3 AND PUSH1 0x0 SWAP1 DUP2 MSTORE PUSH1 0x8 PUSH1 0x20 MSTORE PUSH1 0x40 SWAP1 KECCAK256 PUSH1 0x1 ADD SWAP2 SWAP1 SWAP2 SSTORE POP JUMP JUMPDEST PUSH1 0x1 PUSH1 0x1 PUSH1 0xA0 SHL SUB DUP2 AND PUSH1 0x0 SWAP1 DUP2 MSTORE PUSH1 0x8 PUSH1 0x20 MSTORE PUSH1 0x40 DUP2 KECCAK256 SLOAD PUSH2 0x48D JUMPI POP PUSH1 0x0 PUSH2 0x338 JUMP JUMPDEST PUSH1 0x1 PUSH1 0x1 PUSH1 0xA0 SHL SUB DUP3 AND PUSH1 0x0 SWAP1 DUP2 MSTORE PUSH1 0x8 PUSH1 0x20 MSTORE PUSH1 0x40 DUP2 KECCAK256 SLOAD PUSH2 0x4AF SWAP1 PUSH2 0xD40 JUMP JUMPDEST PUSH1 0x1 PUSH1 0x1 PUSH1 0xA0 SHL SUB DUP5 AND PUSH1 0x0 SWAP1 DUP2 MSTORE PUSH1 0x8 PUSH1 0x20 MSTORE PUSH1 0x40 SWAP1 KECCAK256 PUSH1 0x1 ADD SLOAD SWAP1 SWAP2 POP DUP1 DUP3 GT PUSH2 0x4E0 JUMPI PUSH1 0x0 SWAP3 POP POP POP PUSH2 0x338 JUMP JUMPDEST PUSH2 0x4EA DUP3 DUP3 PUSH2 0xD21 JUMP JUMPDEST SWAP5 SWAP4 POP POP POP POP JUMP JUMPDEST PUSH1 0x0 SLOAD PUSH1 0x1 PUSH1 0x1 PUSH1 0xA0 SHL SUB AND CALLER EQ PUSH2 0x509 JUMPI PUSH1 0x0 DUP1 REVERT JUMPDEST PUSH1 0xE SWAP2 SWAP1 SWAP2 SSTORE PUSH1 0xF SSTORE JUMP JUMPDEST PUSH1 0x9 SLOAD DUP2 JUMP JUMPDEST PUSH1 0xE SLOAD CALLER PUSH1 0x0 SWAP1 DUP2 MSTORE PUSH1 0x7 PUSH1 0x20 MSTORE PUSH1 0x40 DUP2 KECCAK256 SLOAD SWAP1 SWAP2 PUSH2 0x538 SWAP2 PUSH2 0x1148 JUMP JUMPDEST TIMESTAMP GT ISZERO PUSH2 0x547 JUMPI POP PUSH1 0x0 PUSH2 0x571 JUMP JUMPDEST CALLER PUSH1 0x0 SWAP1 DUP2 MSTORE PUSH1 0x7 PUSH1 0x20 MSTORE PUSH1 0x40 SWAP1 KECCAK256 SLOAD PUSH2 0x561 SWAP1 TIMESTAMP PUSH2 0x119F JUMP JUMPDEST PUSH1 0xE SLOAD PUSH2 0x56E SWAP2 SWAP1 PUSH2 0x119F JUMP JUMPDEST SWAP1 POP JUMPDEST SWAP1 JUMP JUMPDEST PUSH1 0xF SLOAD DUP2 JUMP JUMPDEST PUSH1 0x0 SLOAD PUSH1 0x1 PUSH1 0x1 PUSH1 0xA0 SHL SUB AND CALLER EQ PUSH2 0x591 JUMPI PUSH1 0x0 DUP1 REVERT JUMPDEST PUSH1 0x1 SLOAD PUSH1 0x40 MLOAD PUSH4 0xA9059CBB PUSH1 0xE0 SHL DUP2 MSTORE PUSH1 0x1 PUSH1 0x1 PUSH1 0xA0 SHL SUB SWAP1 SWAP2 AND SWAP1 PUSH4 0xA9059CBB SWAP1 PUSH2 0x5C3 SWAP1 DUP6 SWAP1 DUP6 SWAP1 PUSH1 0x4 ADD PUSH2 0x10A7 JUMP JUMPDEST PUSH1 0x20 PUSH1 0x40 MLOAD DUP1 DUP4 SUB DUP2 PUSH1 0x0 DUP8 DUP1 EXTCODESIZE ISZERO DUP1 ISZERO PUSH2 0x5DD JUMPI PUSH1 0x0 DUP1 REVERT JUMPDEST POP GAS CALL ISZERO DUP1 ISZERO PUSH2 0x5F1 JUMPI RETURNDATASIZE PUSH1 0x0 DUP1 RETURNDATACOPY RETURNDATASIZE PUSH1 0x0 REVERT JUMPDEST POP POP POP POP PUSH1 0x40 MLOAD RETURNDATASIZE PUSH1 0x1F NOT PUSH1 0x1F DUP3 ADD AND DUP3 ADD DUP1 PUSH1 0x40 MSTORE POP DUP2 ADD SWAP1 PUSH2 0x615 SWAP2 SWAP1 PUSH2 0x1022 JUMP JUMPDEST POP PUSH1 0xA SLOAD PUSH2 0x623 SWAP1 DUP3 PUSH2 0xD21 JUMP JUMPDEST PUSH1 0xA SSTORE PUSH1 0x9 SLOAD PUSH1 0xD SLOAD PUSH2 0x64D SWAP2 PUSH2 0x644 SWAP2 PUSH2 0x63E SWAP1 DUP6 PUSH2 0xD5D JUMP JUMPDEST SWAP1 PUSH2 0xD69 JUMP JUMPDEST PUSH1 0xC SLOAD SWAP1 PUSH2 0xD21 JUMP JUMPDEST PUSH1 0xC SSTORE POP POP JUMP JUMPDEST PUSH1 0xA SLOAD DUP2 JUMP JUMPDEST PUSH1 0x8 PUSH1 0x20 MSTORE PUSH1 0x0 SWAP1 DUP2 MSTORE PUSH1 0x40 SWAP1 KECCAK256 DUP1 SLOAD PUSH1 0x1 DUP3 ADD SLOAD PUSH1 0x2 SWAP1 SWAP3 ADD SLOAD SWAP1 SWAP2 SWAP1 DUP4 JUMP JUMPDEST PUSH1 0x0 SLOAD PUSH1 0x1 PUSH1 0x1 PUSH1 0xA0 SHL SUB AND CALLER EQ PUSH2 0x692 JUMPI PUSH1 0x0 DUP1 REVERT JUMPDEST PUSH1 0x1 SLOAD PUSH1 0x40 MLOAD PUSH4 0x70A08231 PUSH1 0xE0 SHL DUP2 MSTORE PUSH1 0x0 SWAP2 PUSH1 0x1 PUSH1 0x1 PUSH1 0xA0 SHL SUB AND SWAP1 PUSH4 0x70A08231 SWAP1 PUSH2 0x6C3 SWAP1 ADDRESS SWAP1 PUSH1 0x4 ADD PUSH2 0x1093 JUMP JUMPDEST PUSH1 0x20 PUSH1 0x40 MLOAD DUP1 DUP4 SUB DUP2 DUP7 DUP1 EXTCODESIZE ISZERO DUP1 ISZERO PUSH2 0x6DB JUMPI PUSH1 0x0 DUP1 REVERT JUMPDEST POP GAS STATICCALL ISZERO DUP1 ISZERO PUSH2 0x6EF JUMPI RETURNDATASIZE PUSH1 0x0 DUP1 RETURNDATACOPY RETURNDATASIZE PUSH1 0x0 REVERT JUMPDEST POP POP POP POP PUSH1 0x40 MLOAD RETURNDATASIZE PUSH1 0x1F NOT PUSH1 0x1F DUP3 ADD AND DUP3 ADD DUP1 PUSH1 0x40 MSTORE POP DUP2 ADD SWAP1 PUSH2 0x713 SWAP2 SWAP1 PUSH2 0x105A JUMP JUMPDEST PUSH1 0x40 DUP1 MLOAD PUSH1 0x2 DUP1 DUP3 MSTORE PUSH1 0x60 DUP3 ADD DUP4 MSTORE SWAP3 SWAP4 POP PUSH1 0x0 SWAP3 SWAP1 SWAP2 PUSH1 0x20 DUP4 ADD SWAP1 DUP1 CALLDATASIZE DUP4 CALLDATACOPY POP POP PUSH1 0x2 SLOAD DUP3 MLOAD SWAP3 SWAP4 POP PUSH1 0x1 PUSH1 0x1 PUSH1 0xA0 SHL SUB AND SWAP2 DUP4 SWAP2 POP PUSH1 0x0 SWAP1 PUSH2 0x767 JUMPI PUSH4 0x4E487B71 PUSH1 0xE0 SHL PUSH1 0x0 MSTORE PUSH1 0x32 PUSH1 0x4 MSTORE PUSH1 0x24 PUSH1 0x0 REVERT JUMPDEST PUSH1 0x1 PUSH1 0x1 PUSH1 0xA0 SHL SUB SWAP3 DUP4 AND PUSH1 0x20 SWAP2 DUP3 MUL SWAP3 SWAP1 SWAP3 ADD ADD MSTORE PUSH1 0x1 DUP1 SLOAD DUP4 MLOAD SWAP3 AND SWAP2 DUP4 SWAP2 SWAP1 DUP2 LT PUSH2 0x7A5 JUMPI PUSH4 0x4E487B71 PUSH1 0xE0 SHL PUSH1 0x0 MSTORE PUSH1 0x32 PUSH1 0x4 MSTORE PUSH1 0x24 PUSH1 0x0 REVERT JUMPDEST PUSH1 0x1 PUSH1 0x1 PUSH1 0xA0 SHL SUB SWAP3 DUP4 AND PUSH1 0x20 SWAP2 DUP3 MUL SWAP3 SWAP1 SWAP3 ADD ADD MSTORE PUSH1 0x3 SLOAD PUSH1 0x40 MLOAD PUSH4 0xB6F9DE95 PUSH1 0xE0 SHL DUP2 MSTORE SWAP2 AND SWAP1 PUSH4 0xB6F9DE95 SWAP1 CALLVALUE SWAP1 PUSH2 0x7EB SWAP1 PUSH1 0x0 SWAP1 DUP7 SWAP1 ADDRESS SWAP1 TIMESTAMP SWAP1 PUSH1 0x4 ADD PUSH2 0x10C0 JUMP JUMPDEST PUSH1 0x0 PUSH1 0x40 MLOAD DUP1 DUP4 SUB DUP2 DUP6 DUP9 DUP1 EXTCODESIZE ISZERO DUP1 ISZERO PUSH2 0x804 JUMPI PUSH1 0x0 DUP1 REVERT JUMPDEST POP GAS CALL ISZERO DUP1 ISZERO PUSH2 0x818 JUMPI RETURNDATASIZE PUSH1 0x0 DUP1 RETURNDATACOPY RETURNDATASIZE PUSH1 0x0 REVERT JUMPDEST POP POP PUSH1 0x1 SLOAD PUSH1 0x40 MLOAD PUSH4 0x70A08231 PUSH1 0xE0 SHL DUP2 MSTORE PUSH1 0x0 SWAP5 POP PUSH2 0x8AC SWAP4 POP DUP7 SWAP3 POP PUSH1 0x1 PUSH1 0x1 PUSH1 0xA0 SHL SUB SWAP1 SWAP2 AND SWAP1 PUSH4 0x70A08231 SWAP1 PUSH2 0x856 SWAP1 ADDRESS SWAP1 PUSH1 0x4 ADD PUSH2 0x1093 JUMP JUMPDEST PUSH1 0x20 PUSH1 0x40 MLOAD DUP1 DUP4 SUB DUP2 DUP7 DUP1 EXTCODESIZE ISZERO DUP1 ISZERO PUSH2 0x86E JUMPI PUSH1 0x0 DUP1 REVERT JUMPDEST POP GAS STATICCALL ISZERO DUP1 ISZERO PUSH2 0x882 JUMPI RETURNDATASIZE PUSH1 0x0 DUP1 RETURNDATACOPY RETURNDATASIZE PUSH1 0x0 REVERT JUMPDEST POP POP POP POP PUSH1 0x40 MLOAD RETURNDATASIZE PUSH1 0x1F NOT PUSH1 0x1F DUP3 ADD AND DUP3 ADD DUP1 PUSH1 0x40 MSTORE POP DUP2 ADD SWAP1 PUSH2 0x8A6 SWAP2 SWAP1 PUSH2 0x105A JUMP JUMPDEST SWAP1 PUSH2 0xD21 JUMP JUMPDEST PUSH1 0xA SLOAD SWAP1 SWAP2 POP PUSH2 0x8BC SWAP1 DUP3 PUSH2 0xD34 JUMP JUMPDEST PUSH1 0xA SSTORE PUSH1 0x9 SLOAD PUSH1 0xD SLOAD PUSH2 0x8E0 SWAP2 PUSH2 0x8D7 SWAP2 PUSH2 0x63E SWAP1 DUP6 PUSH2 0xD5D JUMP JUMPDEST PUSH1 0xC SLOAD SWAP1 PUSH2 0xD34 JUMP JUMPDEST PUSH1 0xC SSTORE POP POP POP JUMP JUMPDEST PUSH1 0xC SLOAD DUP2 JUMP JUMPDEST PUSH1 0xB SLOAD DUP2 JUMP JUMPDEST PUSH1 0xE SLOAD CALLER PUSH1 0x0 SWAP1 DUP2 MSTORE PUSH1 0x7 PUSH1 0x20 MSTORE PUSH1 0x40 SWAP1 KECCAK256 SLOAD TIMESTAMP SWAP2 PUSH2 0x912 SWAP2 PUSH2 0x1148 JUMP JUMPDEST LT ISZERO PUSH2 0x921 JUMPI PUSH2 0x921 CALLER PUSH2 0xA48 JUMP JUMPDEST JUMP JUMPDEST PUSH1 0x0 SLOAD PUSH1 0x1 PUSH1 0x1 PUSH1 0xA0 SHL SUB AND CALLER EQ PUSH2 0x93A JUMPI PUSH1 0x0 DUP1 REVERT JUMPDEST PUSH1 0x5 SLOAD DUP1 PUSH2 0x948 JUMPI POP PUSH2 0xA3F JUMP JUMPDEST PUSH1 0x0 DUP1 GAS SWAP1 POP PUSH1 0x0 JUMPDEST DUP5 DUP4 LT DUP1 ISZERO PUSH2 0x95F JUMPI POP DUP4 DUP2 LT JUMPDEST ISZERO PUSH2 0xA3A JUMPI DUP4 PUSH1 0x10 SLOAD LT PUSH2 0x973 JUMPI PUSH1 0x0 PUSH1 0x10 SSTORE JUMPDEST PUSH2 0x9B3 PUSH1 0x5 PUSH1 0x10 SLOAD DUP2 SLOAD DUP2 LT PUSH2 0x999 JUMPI PUSH4 0x4E487B71 PUSH1 0xE0 SHL PUSH1 0x0 MSTORE PUSH1 0x32 PUSH1 0x4 MSTORE PUSH1 0x24 PUSH1 0x0 REVERT JUMPDEST PUSH1 0x0 SWAP2 DUP3 MSTORE PUSH1 0x20 SWAP1 SWAP2 KECCAK256 ADD SLOAD PUSH1 0x1 PUSH1 0x1 PUSH1 0xA0 SHL SUB AND PUSH2 0xD75 JUMP JUMPDEST ISZERO PUSH2 0x9F8 JUMPI PUSH2 0x9F8 PUSH1 0x5 PUSH1 0x10 SLOAD DUP2 SLOAD DUP2 LT PUSH2 0x9DE JUMPI PUSH4 0x4E487B71 PUSH1 0xE0 SHL PUSH1 0x0 MSTORE PUSH1 0x32 PUSH1 0x4 MSTORE PUSH1 0x24 PUSH1 0x0 REVERT JUMPDEST PUSH1 0x0 SWAP2 DUP3 MSTORE PUSH1 0x20 SWAP1 SWAP2 KECCAK256 ADD SLOAD PUSH1 0x1 PUSH1 0x1 PUSH1 0xA0 SHL SUB AND PUSH2 0xA48 JUMP JUMPDEST PUSH2 0xA0D PUSH2 0xA06 GAS DUP5 SWAP1 PUSH2 0xD21 JUMP JUMPDEST DUP5 SWAP1 PUSH2 0xD34 JUMP JUMPDEST SWAP3 POP GAS PUSH1 0x10 DUP1 SLOAD SWAP2 SWAP4 POP PUSH1 0x0 PUSH2 0xA22 DUP4 PUSH2 0x11B6 JUMP JUMPDEST SWAP2 SWAP1 POP SSTORE POP DUP1 DUP1 PUSH2 0xA32 SWAP1 PUSH2 0x11B6 JUMP JUMPDEST SWAP2 POP POP PUSH2 0x951 JUMP JUMPDEST POP POP POP POP JUMPDEST POP JUMP JUMPDEST PUSH1 0xE SLOAD DUP2 JUMP JUMPDEST PUSH1 0x1 PUSH1 0x1 PUSH1 0xA0 SHL SUB DUP2 AND PUSH1 0x0 SWAP1 DUP2 MSTORE PUSH1 0x8 PUSH1 0x20 MSTORE PUSH1 0x40 SWAP1 KECCAK256 SLOAD PUSH2 0xA6A JUMPI PUSH2 0xA3F JUMP JUMPDEST PUSH1 0x0 PUSH2 0xA75 DUP3 PUSH2 0x468 JUMP JUMPDEST SWAP1 POP DUP1 ISZERO PUSH2 0xB6F JUMPI PUSH1 0xB SLOAD PUSH2 0xA8A SWAP1 DUP3 PUSH2 0xD34 JUMP JUMPDEST PUSH1 0xB SSTORE PUSH1 0x1 SLOAD PUSH1 0x40 MLOAD PUSH4 0xA9059CBB PUSH1 0xE0 SHL DUP2 MSTORE PUSH1 0x1 PUSH1 0x1 PUSH1 0xA0 SHL SUB SWAP1 SWAP2 AND SWAP1 PUSH4 0xA9059CBB SWAP1 PUSH2 0xABF SWAP1 DUP6 SWAP1 DUP6 SWAP1 PUSH1 0x4 ADD PUSH2 0x10A7 JUMP JUMPDEST PUSH1 0x20 PUSH1 0x40 MLOAD DUP1 DUP4 SUB DUP2 PUSH1 0x0 DUP8 DUP1 EXTCODESIZE ISZERO DUP1 ISZERO PUSH2 0xAD9 JUMPI PUSH1 0x0 DUP1 REVERT JUMPDEST POP GAS CALL ISZERO DUP1 ISZERO PUSH2 0xAED JUMPI RETURNDATASIZE PUSH1 0x0 DUP1 RETURNDATACOPY RETURNDATASIZE PUSH1 0x0 REVERT JUMPDEST POP POP POP POP PUSH1 0x40 MLOAD RETURNDATASIZE PUSH1 0x1F NOT PUSH1 0x1F DUP3 ADD AND DUP3 ADD DUP1 PUSH1 0x40 MSTORE POP DUP2 ADD SWAP1 PUSH2 0xB11 SWAP2 SWAP1 PUSH2 0x1022 JUMP JUMPDEST POP PUSH1 0x1 PUSH1 0x1 PUSH1 0xA0 SHL SUB DUP3 AND PUSH1 0x0 SWAP1 DUP2 MSTORE PUSH1 0x7 PUSH1 0x20 SWAP1 DUP2 MSTORE PUSH1 0x40 DUP1 DUP4 KECCAK256 TIMESTAMP SWAP1 SSTORE PUSH1 0x8 SWAP1 SWAP2 MSTORE SWAP1 KECCAK256 PUSH1 0x2 ADD SLOAD PUSH2 0xB45 SWAP1 DUP3 PUSH2 0xD34 JUMP JUMPDEST PUSH1 0x1 PUSH1 0x1 PUSH1 0xA0 SHL SUB DUP4 AND PUSH1 0x0 SWAP1 DUP2 MSTORE PUSH1 0x8 PUSH1 0x20 MSTORE PUSH1 0x40 SWAP1 KECCAK256 PUSH1 0x2 DUP2 ADD SWAP2 SWAP1 SWAP2 SSTORE SLOAD PUSH2 0x445 SWAP1 PUSH2 0xD40 JUMP JUMPDEST POP POP JUMP JUMPDEST PUSH1 0x5 DUP1 SLOAD PUSH1 0x1 PUSH1 0x1 PUSH1 0xA0 SHL SUB SWAP1 SWAP3 AND PUSH1 0x0 DUP2 DUP2 MSTORE PUSH1 0x6 PUSH1 0x20 MSTORE PUSH1 0x40 DUP2 KECCAK256 DUP5 SWAP1 SSTORE PUSH1 0x1 DUP5 ADD DUP4 SSTORE SWAP2 SWAP1 SWAP2 MSTORE PUSH32 0x36B6384B5ECA791C62761152D0C79BB0604C104A5FB6F4EB0703F3154BB3DB0 SWAP1 SWAP2 ADD DUP1 SLOAD PUSH1 0x1 PUSH1 0x1 PUSH1 0xA0 SHL SUB NOT AND SWAP1 SWAP2 OR SWAP1 SSTORE JUMP JUMPDEST PUSH1 0x5 DUP1 SLOAD PUSH2 0xBE4 SWAP1 PUSH1 0x1 SWAP1 PUSH2 0x119F JUMP JUMPDEST DUP2 SLOAD DUP2 LT PUSH2 0xC02 JUMPI PUSH4 0x4E487B71 PUSH1 0xE0 SHL PUSH1 0x0 MSTORE PUSH1 0x32 PUSH1 0x4 MSTORE PUSH1 0x24 PUSH1 0x0 REVERT JUMPDEST PUSH1 0x0 SWAP2 DUP3 MSTORE PUSH1 0x20 DUP1 DUP4 KECCAK256 SWAP1 SWAP2 ADD SLOAD PUSH1 0x1 PUSH1 0x1 PUSH1 0xA0 SHL SUB DUP5 DUP2 AND DUP5 MSTORE PUSH1 0x6 SWAP1 SWAP3 MSTORE PUSH1 0x40 SWAP1 SWAP3 KECCAK256 SLOAD PUSH1 0x5 DUP1 SLOAD SWAP3 SWAP1 SWAP4 AND SWAP3 SWAP2 DUP2 LT PUSH2 0xC4E JUMPI PUSH4 0x4E487B71 PUSH1 0xE0 SHL PUSH1 0x0 MSTORE PUSH1 0x32 PUSH1 0x4 MSTORE PUSH1 0x24 PUSH1 0x0 REVERT JUMPDEST PUSH1 0x0 SWAP2 DUP3 MSTORE PUSH1 0x20 DUP1 DUP4 KECCAK256 SWAP2 SWAP1 SWAP2 ADD DUP1 SLOAD PUSH1 0x1 PUSH1 0x1 PUSH1 0xA0 SHL SUB NOT AND PUSH1 0x1 PUSH1 0x1 PUSH1 0xA0 SHL SUB SWAP5 DUP6 AND OR SWAP1 SSTORE SWAP2 DUP4 AND DUP2 MSTORE PUSH1 0x6 SWAP2 DUP3 SWAP1 MSTORE PUSH1 0x40 DUP2 KECCAK256 SLOAD PUSH1 0x5 DUP1 SLOAD SWAP2 SWAP4 SWAP3 SWAP2 PUSH2 0xC9A SWAP1 PUSH1 0x1 SWAP1 PUSH2 0x119F JUMP JUMPDEST DUP2 SLOAD DUP2 LT PUSH2 0xCB8 JUMPI PUSH4 0x4E487B71 PUSH1 0xE0 SHL PUSH1 0x0 MSTORE PUSH1 0x32 PUSH1 0x4 MSTORE PUSH1 0x24 PUSH1 0x0 REVERT JUMPDEST PUSH1 0x0 SWAP2 DUP3 MSTORE PUSH1 0x20 DUP1 DUP4 KECCAK256 SWAP1 SWAP2 ADD SLOAD PUSH1 0x1 PUSH1 0x1 PUSH1 0xA0 SHL SUB AND DUP4 MSTORE DUP3 ADD SWAP3 SWAP1 SWAP3 MSTORE PUSH1 0x40 ADD SWAP1 KECCAK256 SSTORE PUSH1 0x5 DUP1 SLOAD DUP1 PUSH2 0xCFC JUMPI PUSH4 0x4E487B71 PUSH1 0xE0 SHL PUSH1 0x0 MSTORE PUSH1 0x31 PUSH1 0x4 MSTORE PUSH1 0x24 PUSH1 0x0 REVERT JUMPDEST PUSH1 0x0 DUP3 DUP2 MSTORE PUSH1 0x20 SWAP1 KECCAK256 DUP2 ADD PUSH1 0x0 NOT SWAP1 DUP2 ADD DUP1 SLOAD PUSH1 0x1 PUSH1 0x1 PUSH1 0xA0 SHL SUB NOT AND SWAP1 SSTORE ADD SWAP1 SSTORE POP JUMP JUMPDEST PUSH1 0x0 PUSH2 0xD2D DUP3 DUP5 PUSH2 0x119F JUMP JUMPDEST SWAP4 SWAP3 POP POP POP JUMP JUMPDEST PUSH1 0x0 PUSH2 0xD2D DUP3 DUP5 PUSH2 0x1148 JUMP JUMPDEST PUSH1 0x0 PUSH2 0x335 PUSH1 0xD SLOAD PUSH2 0x63E PUSH1 0xC SLOAD DUP6 PUSH2 0xD5D SWAP1 SWAP2 SWAP1 PUSH4 0xFFFFFFFF AND JUMP JUMPDEST PUSH1 0x0 PUSH2 0xD2D DUP3 DUP5 PUSH2 0x1180 JUMP JUMPDEST PUSH1 0x0 PUSH2 0xD2D DUP3 DUP5 PUSH2 0x1160 JUMP JUMPDEST PUSH1 0xE SLOAD PUSH1 0x1 PUSH1 0x1 PUSH1 0xA0 SHL SUB DUP3 AND PUSH1 0x0 SWAP1 DUP2 MSTORE PUSH1 0x7 PUSH1 0x20 MSTORE PUSH1 0x40 DUP2 KECCAK256 SLOAD SWAP1 SWAP2 TIMESTAMP SWAP2 PUSH2 0xD9F SWAP2 SWAP1 PUSH2 0x1148 JUMP JUMPDEST LT DUP1 ISZERO PUSH2 0xDB5 JUMPI POP PUSH1 0xF SLOAD PUSH2 0xDB3 DUP4 PUSH2 0x468 JUMP JUMPDEST GT JUMPDEST DUP1 ISZERO PUSH2 0x335 JUMPI POP PUSH1 0x4 DUP1 SLOAD PUSH1 0x40 DUP1 MLOAD PUSH4 0x2846B951 PUSH1 0xE0 SHL DUP2 MSTORE SWAP1 MLOAD PUSH1 0x1 PUSH1 0x1 PUSH1 0xA0 SHL SUB SWAP1 SWAP3 AND SWAP3 PUSH4 0x2846B951 SWAP3 DUP3 DUP3 ADD SWAP3 PUSH1 0x20 SWAP3 SWAP1 DUP3 SWAP1 SUB ADD DUP2 DUP7 DUP1 EXTCODESIZE ISZERO DUP1 ISZERO PUSH2 0xDFE JUMPI PUSH1 0x0 DUP1 REVERT JUMPDEST POP GAS STATICCALL ISZERO DUP1 ISZERO PUSH2 0xE12 JUMPI RETURNDATASIZE PUSH1 0x0 DUP1 RETURNDATACOPY RETURNDATASIZE PUSH1 0x0 REVERT JUMPDEST POP POP POP POP PUSH1 0x40 MLOAD RETURNDATASIZE PUSH1 0x1F NOT PUSH1 0x1F DUP3 ADD AND DUP3 ADD DUP1 PUSH1 0x40 MSTORE POP DUP2 ADD SWAP1 PUSH2 0xE36 SWAP2 SWAP1 PUSH2 0x1022 JUMP JUMPDEST ISZERO DUP1 PUSH2 0x335 JUMPI POP PUSH1 0x4 DUP1 SLOAD PUSH1 0x40 DUP1 MLOAD PUSH4 0x2846B951 PUSH1 0xE0 SHL DUP2 MSTORE SWAP1 MLOAD PUSH1 0x1 PUSH1 0x1 PUSH1 0xA0 SHL SUB SWAP1 SWAP3 AND SWAP3 PUSH4 0x2846B951 SWAP3 DUP3 DUP3 ADD SWAP3 PUSH1 0x20 SWAP3 SWAP1 DUP3 SWAP1 SUB ADD DUP2 DUP7 DUP1 EXTCODESIZE ISZERO DUP1 ISZERO PUSH2 0xE7F JUMPI PUSH1 0x0 DUP1 REVERT JUMPDEST POP GAS STATICCALL ISZERO DUP1 ISZERO PUSH2 0xE93 JUMPI RETURNDATASIZE PUSH1 0x0 DUP1 RETURNDATACOPY RETURNDATASIZE PUSH1 0x0 REVERT JUMPDEST POP POP POP POP PUSH1 0x40 MLOAD RETURNDATASIZE PUSH1 0x1F NOT PUSH1 0x1F DUP3 ADD AND DUP3 ADD DUP1 PUSH1 0x40 MSTORE POP DUP2 ADD SWAP1 PUSH2 0xEB7 SWAP2 SWAP1 PUSH2 0x1022 JUMP JUMPDEST DUP1 ISZERO PUSH2 0x335 JUMPI POP PUSH1 0x4 DUP1 SLOAD PUSH1 0x40 DUP1 MLOAD PUSH4 0x23C53EE3 PUSH1 0xE2 SHL DUP2 MSTORE SWAP1 MLOAD PUSH1 0x1 PUSH1 0x1 PUSH1 0xA0 SHL SUB SWAP1 SWAP3 AND SWAP3 PUSH4 0x8F14FB8C SWAP3 DUP3 DUP3 ADD SWAP3 PUSH1 0x20 SWAP3 SWAP1 DUP3 SWAP1 SUB ADD DUP2 DUP7 DUP1 EXTCODESIZE ISZERO DUP1 ISZERO PUSH2 0xF00 JUMPI PUSH1 0x0 DUP1 REVERT JUMPDEST POP GAS STATICCALL ISZERO DUP1 ISZERO PUSH2 0xF14 JUMPI RETURNDATASIZE PUSH1 0x0 DUP1 RETURNDATACOPY RETURNDATASIZE PUSH1 0x0 REVERT JUMPDEST POP POP POP POP PUSH1 0x40 MLOAD RETURNDATASIZE PUSH1 0x1F NOT PUSH1 0x1F DUP3 ADD AND DUP3 ADD DUP1 PUSH1 0x40 MSTORE POP DUP2 ADD SWAP1 PUSH2 0xF38 SWAP2 SWAP1 PUSH2 0x105A JUMP JUMPDEST PUSH1 0x4 DUP1 SLOAD PUSH1 0x40 MLOAD PUSH4 0x30355BA9 PUSH1 0xE1 SHL DUP2 MSTORE PUSH1 0x1 PUSH1 0x1 PUSH1 0xA0 SHL SUB SWAP1 SWAP2 AND SWAP2 PUSH4 0x606AB752 SWAP2 PUSH2 0xF67 SWAP2 DUP8 SWAP2 ADD PUSH2 0x1093 JUMP JUMPDEST PUSH1 0x20 PUSH1 0x40 MLOAD DUP1 DUP4 SUB DUP2 DUP7 DUP1 EXTCODESIZE ISZERO DUP1 ISZERO PUSH2 0xF7F JUMPI PUSH1 0x0 DUP1 REVERT JUMPDEST POP GAS STATICCALL ISZERO DUP1 ISZERO PUSH2 0xF93 JUMPI RETURNDATASIZE PUSH1 0x0 DUP1 RETURNDATACOPY RETURNDATASIZE PUSH1 0x0 REVERT JUMPDEST POP POP POP POP PUSH1 0x40 MLOAD RETURNDATASIZE PUSH1 0x1F NOT PUSH1 0x1F DUP3 ADD AND DUP3 ADD DUP1 PUSH1 0x40 MSTORE POP DUP2 ADD SWAP1 PUSH2 0xFB7 SWAP2 SWAP1 PUSH2 0x105A JUMP JUMPDEST PUSH2 0xFC1 SWAP1 TIMESTAMP PUSH2 0x119F JUMP JUMPDEST LT SWAP3 SWAP2 POP POP JUMP JUMPDEST DUP1 CALLDATALOAD PUSH1 0x1 PUSH1 0x1 PUSH1 0xA0 SHL SUB DUP2 AND DUP2 EQ PUSH2 0x338 JUMPI PUSH1 0x0 DUP1 REVERT JUMPDEST PUSH1 0x0 PUSH1 0x20 DUP3 DUP5 SUB SLT ISZERO PUSH2 0xFF0 JUMPI DUP1 DUP2 REVERT JUMPDEST PUSH2 0xD2D DUP3 PUSH2 0xFC8 JUMP JUMPDEST PUSH1 0x0 DUP1 PUSH1 0x40 DUP4 DUP6 SUB SLT ISZERO PUSH2 0x100B JUMPI DUP1 DUP2 REVERT JUMPDEST PUSH2 0x1014 DUP4 PUSH2 0xFC8 JUMP JUMPDEST SWAP5 PUSH1 0x20 SWAP4 SWAP1 SWAP4 ADD CALLDATALOAD SWAP4 POP POP POP JUMP JUMPDEST PUSH1 0x0 PUSH1 0x20 DUP3 DUP5 SUB SLT ISZERO PUSH2 0x1033 JUMPI DUP1 DUP2 REVERT JUMPDEST DUP2 MLOAD DUP1 ISZERO ISZERO DUP2 EQ PUSH2 0xD2D JUMPI DUP2 DUP3 REVERT JUMPDEST PUSH1 0x0 PUSH1 0x20 DUP3 DUP5 SUB SLT ISZERO PUSH2 0x1053 JUMPI DUP1 DUP2 REVERT JUMPDEST POP CALLDATALOAD SWAP2 SWAP1 POP JUMP JUMPDEST PUSH1 0x0 PUSH1 0x20 DUP3 DUP5 SUB SLT ISZERO PUSH2 0x106B JUMPI DUP1 DUP2 REVERT JUMPDEST POP MLOAD SWAP2 SWAP1 POP JUMP JUMPDEST PUSH1 0x0 DUP1 PUSH1 0x40 DUP4 DUP6 SUB SLT ISZERO PUSH2 0x1084 JUMPI DUP2 DUP3 REVERT JUMPDEST POP POP DUP1 CALLDATALOAD SWAP3 PUSH1 0x20 SWAP1 SWAP2 ADD CALLDATALOAD SWAP2 POP JUMP JUMPDEST PUSH1 0x1 PUSH1 0x1 PUSH1 0xA0 SHL SUB SWAP2 SWAP1 SWAP2 AND DUP2 MSTORE PUSH1 0x20 ADD SWAP1 JUMP JUMPDEST PUSH1 0x1 PUSH1 0x1 PUSH1 0xA0 SHL SUB SWAP3 SWAP1 SWAP3 AND DUP3 MSTORE PUSH1 0x20 DUP3 ADD MSTORE PUSH1 0x40 ADD SWAP1 JUMP JUMPDEST PUSH1 0x0 PUSH1 0x80 DUP3 ADD DUP7 DUP4 MSTORE PUSH1 0x20 PUSH1 0x80 DUP2 DUP6 ADD MSTORE DUP2 DUP8 MLOAD DUP1 DUP5 MSTORE PUSH1 0xA0 DUP7 ADD SWAP2 POP DUP3 DUP10 ADD SWAP4 POP DUP5 JUMPDEST DUP2 DUP2 LT ISZERO PUSH2 0x1109 JUMPI DUP5 MLOAD PUSH1 0x1 PUSH1 0x1 PUSH1 0xA0 SHL SUB AND DUP4 MSTORE SWAP4 DUP4 ADD SWAP4 SWAP2 DUP4 ADD SWAP2 PUSH1 0x1 ADD PUSH2 0x10E4 JUMP JUMPDEST POP POP PUSH1 0x1 PUSH1 0x1 PUSH1 0xA0 SHL SUB SWAP7 SWAP1 SWAP7 AND PUSH1 0x40 DUP6 ADD MSTORE POP POP POP PUSH1 0x60 ADD MSTORE SWAP3 SWAP2 POP POP JUMP JUMPDEST SWAP1 DUP2 MSTORE PUSH1 0x20 ADD SWAP1 JUMP JUMPDEST SWAP3 DUP4 MSTORE PUSH1 0x20 DUP4 ADD SWAP2 SWAP1 SWAP2 MSTORE PUSH1 0x40 DUP3 ADD MSTORE PUSH1 0x60 ADD SWAP1 JUMP JUMPDEST PUSH1 0x0 DUP3 NOT DUP3 GT ISZERO PUSH2 0x115B JUMPI PUSH2 0x115B PUSH2 0x11D1 JUMP JUMPDEST POP ADD SWAP1 JUMP JUMPDEST PUSH1 0x0 DUP3 PUSH2 0x117B JUMPI PUSH4 0x4E487B71 PUSH1 0xE0 SHL DUP2 MSTORE PUSH1 0x12 PUSH1 0x4 MSTORE PUSH1 0x24 DUP2 REVERT JUMPDEST POP DIV SWAP1 JUMP JUMPDEST PUSH1 0x0 DUP2 PUSH1 0x0 NOT DIV DUP4 GT DUP3 ISZERO ISZERO AND ISZERO PUSH2 0x119A JUMPI PUSH2 0x119A PUSH2 0x11D1 JUMP JUMPDEST POP MUL SWAP1 JUMP JUMPDEST PUSH1 0x0 DUP3 DUP3 LT ISZERO PUSH2 0x11B1 JUMPI PUSH2 0x11B1 PUSH2 0x11D1 JUMP JUMPDEST POP SUB SWAP1 JUMP JUMPDEST PUSH1 0x0 PUSH1 0x0 NOT DUP3 EQ ISZERO PUSH2 0x11CA JUMPI PUSH2 0x11CA PUSH2 0x11D1 JUMP JUMPDEST POP PUSH1 0x1 ADD SWAP1 JUMP JUMPDEST PUSH4 0x4E487B71 PUSH1 0xE0 SHL PUSH1 0x0 MSTORE PUSH1 0x11 PUSH1 0x4 MSTORE PUSH1 0x24 PUSH1 0x0 REVERT INVALID LOG2 PUSH5 0x6970667358 0x22 SLT KECCAK256 0xBF SWAP12 0xEB CALLDATASIZE MLOAD NOT 0xC7 KECCAK256 0xAF 0x1F 0x4A 0xF DUP3 DUP6 PUSH13 0x6A0E8A39F52E6A838F8CEFF3C8 SHL LOG3 PUSH16 0xA864736F6C6343000800003300000000 "
		},
		"gasEstimates": {
			"creation": {
				"codeDepositCost": "2409600",
				"executionCost": "infinite",
				"totalCost": "infinite"
			},
			"external": {
				"MASK()": "361",
				"WBNB()": "1203",
				"_maxTxAmount()": "1095",
				"activateMyWalletToReceiveReflections()": "21241",
				"allowance(address,address)": "infinite",
				"approve(address,uint256)": "22524",
				"approveMax(address)": "23345",
				"authorize(address)": "22186",
				"autoBuybackEnabled()": "1175",
				"autoLiquidityReceiver()": "1203",
				"balanceOf(address)": "1377",
				"clearBuybackMultiplier()": "6154",
				"decimals()": "353",
				"deposit()": "infinite",
				"distributorAddress()": "1160",
				"enableDisableActivewalletReflections(bool)": "22208",
				"excludeFromSpamWallot(address)": "22247",
				"getAddresses()": "infinite",
				"getBTimestamp()": "295",
				"getBuyerHoldingPeriod(address)": "3175",
				"getCirculatingSupply()": "infinite",
				"getLastActive(address)": "1399",
				"getLiquidityBacking(uint256)": "infinite",
				"getMinActivePeriod()": "1183",
				"getMultipliedFee()": "infinite",
				"getOwner()": "1181",
				"getSHIBBalance(address)": "infinite",
				"getTotalFee(bool)": "infinite",
				"includeInSpamWallot(address)": "22210",
				"isActiveWalletReflectionsOnly()": "1141",
				"isAuthorized(address)": "1431",
				"isOverLiquified(uint256,uint256)": "infinite",
				"isOwner(address)": "1311",
				"launch()": "41980",
				"launchedAt()": "1095",
				"launchedAtTimestamp()": "1139",
				"marketingFeeReceiver()": "1137",
				"migrateBnb(address,uint256)": "infinite",
				"migrateWBnb(address,uint256)": "infinite",
				"name()": "infinite",
				"pair()": "1182",
				"router()": "1202",
				"setAutoBuybackSettings(bool,uint256,uint256,uint256)": "107261",
				"setBuybackMultiplierSettings(uint256,uint256,uint256)": "61448",
				"setDistributionCriteria(uint256,uint256)": "infinite",
				"setDistributorGasLimitCheck(bool)": "22086",
				"setDistributorSettings(uint256)": "22132",
				"setFeeReceivers(address,address)": "infinite",
				"setFees(uint256,uint256,uint256,uint256,uint256)": "infinite",
				"setIsDividendExempt(address,bool)": "infinite",
				"setIsFeeExempt(address,bool)": "infinite",
				"setIsTxLimitExempt(address,bool)": "infinite",
				"setMinActivePeriod(uint256)": "infinite",
				"setProcessReward(bool)": "22071",
				"setSwapBackSettings(bool,uint256)": "42176",
				"setTargetLiquidity(uint256,uint256)": "41286",
				"setTxLimit(uint256)": "22161",
				"swapEnabled()": "1130",
				"swapThreshold()": "1120",
				"symbol()": "infinite",
				"totalSupply()": "1163",
				"transfer(address,uint256)": "infinite",
				"transferFrom(address,address,uint256)": "infinite",
				"transferOwnership(address)": "44184",
				"transferRewards(address,uint256)": "infinite",
				"triggerZeusBuyback(uint256,bool)": "infinite",
				"unauthorize(address)": "22167"
			},
			"internal": {
				"_basicTransfer(address,address,uint256)": "infinite",
				"_transferFrom(address,address,uint256)": "infinite",
				"buyTokens(uint256,address)": "infinite",
				"checkTxLimit(address,uint256)": "infinite",
				"getAmountsout(uint256,address,address)": "infinite",
				"launched()": "infinite",
				"shouldAutoBuyback()": "5055",
				"shouldSwapBack()": "4221",
				"shouldTakeFee(address)": "914",
				"swapBack()": "infinite",
				"takeFee(address,address,uint256)": "infinite",
				"triggerAutoBuyback()": "infinite"
			}
		},
		"methodIdentifiers": {
			"MASK()": "e91f214e",
			"WBNB()": "8dd95002",
			"_maxTxAmount()": "7d1db4a5",
			"activateMyWalletToReceiveReflections()": "db882e04",
			"allowance(address,address)": "dd62ed3e",
			"approve(address,uint256)": "095ea7b3",
			"approveMax(address)": "571ac8b0",
			"authorize(address)": "b6a5d7de",
			"autoBuybackEnabled()": "3bb8a8d4",
			"autoLiquidityReceiver()": "ca33e64c",
			"balanceOf(address)": "70a08231",
			"clearBuybackMultiplier()": "b210b06d",
			"decimals()": "313ce567",
			"deposit()": "d0e30db0",
			"distributorAddress()": "a51af4c5",
			"enableDisableActivewalletReflections(bool)": "725ddf4a",
			"excludeFromSpamWallot(address)": "b83f9599",
			"getAddresses()": "a39fac12",
			"getBTimestamp()": "d3cd253c",
			"getBuyerHoldingPeriod(address)": "2b0ea03d",
			"getCirculatingSupply()": "2b112e49",
			"getLastActive(address)": "606ab752",
			"getLiquidityBacking(uint256)": "d51ed1c8",
			"getMinActivePeriod()": "8f14fb8c",
			"getMultipliedFee()": "d806d12f",
			"getOwner()": "893d20e8",
			"getSHIBBalance(address)": "bf3aa779",
			"getTotalFee(bool)": "f1f3bca3",
			"includeInSpamWallot(address)": "8fe42f46",
			"isActiveWalletReflectionsOnly()": "2846b951",
			"isAuthorized(address)": "fe9fbb80",
			"isOverLiquified(uint256,uint256)": "1161ae39",
			"isOwner(address)": "2f54bf6e",
			"launch()": "01339c21",
			"launchedAt()": "bf56b371",
			"launchedAtTimestamp()": "c6d2577d",
			"marketingFeeReceiver()": "e96fada2",
			"migrateBnb(address,uint256)": "c0f71b80",
			"migrateWBnb(address,uint256)": "25449ac4",
			"name()": "06fdde03",
			"pair()": "a8aa1b31",
			"router()": "f887ea40",
			"setAutoBuybackSettings(bool,uint256,uint256,uint256)": "048c7baf",
			"setBuybackMultiplierSettings(uint256,uint256,uint256)": "2375ce40",
			"setDistributionCriteria(uint256,uint256)": "2d48e896",
			"setDistributorGasLimitCheck(bool)": "1bbcce44",
			"setDistributorSettings(uint256)": "9d1944f5",
			"setFeeReceivers(address,address)": "a4b45c00",
			"setFees(uint256,uint256,uint256,uint256,uint256)": "04a66b48",
			"setIsDividendExempt(address,bool)": "f708a64f",
			"setIsFeeExempt(address,bool)": "658d4b7f",
			"setIsTxLimitExempt(address,bool)": "f84ba65d",
			"setMinActivePeriod(uint256)": "e74ef52e",
			"setProcessReward(bool)": "40f0a14a",
			"setSwapBackSettings(bool,uint256)": "df20fd49",
			"setTargetLiquidity(uint256,uint256)": "201e7991",
			"setTxLimit(uint256)": "5c85974f",
			"swapEnabled()": "6ddd1713",
			"swapThreshold()": "0445b667",
			"symbol()": "95d89b41",
			"totalSupply()": "18160ddd",
			"transfer(address,uint256)": "a9059cbb",
			"transferFrom(address,address,uint256)": "23b872dd",
			"transferOwnership(address)": "f2fde38b",
			"transferRewards(address,uint256)": "82723192",
			"triggerZeusBuyback(uint256,bool)": "f5cfec0a",
			"unauthorize(address)": "f0b37c04"
		}
	},
	"abi": [
		{
			"inputs": [
				{
					"internalType": "address",
					"name": "_dexRouter",
					"type": "address"
				}
			],
			"stateMutability": "nonpayable",
			"type": "constructor"
		},
		{
			"anonymous": false,
			"inputs": [
				{
					"indexed": true,
					"internalType": "address",
					"name": "owner",
					"type": "address"
				},
				{
					"indexed": true,
					"internalType": "address",
					"name": "spender",
					"type": "address"
				},
				{
					"indexed": false,
					"internalType": "uint256",
					"name": "value",
					"type": "uint256"
				}
			],
			"name": "Approval",
			"type": "event"
		},
		{
			"anonymous": false,
			"inputs": [
				{
					"indexed": false,
					"internalType": "uint256",
					"name": "amountBNB",
					"type": "uint256"
				},
				{
					"indexed": false,
					"internalType": "uint256",
					"name": "amountBOG",
					"type": "uint256"
				}
			],
			"name": "AutoLiquify",
			"type": "event"
		},
		{
			"anonymous": false,
			"inputs": [
				{
					"indexed": false,
					"internalType": "uint256",
					"name": "duration",
					"type": "uint256"
				}
			],
			"name": "BuybackMultiplierActive",
			"type": "event"
		},
		{
			"anonymous": false,
			"inputs": [
				{
					"indexed": false,
					"internalType": "address",
					"name": "owner",
					"type": "address"
				}
			],
			"name": "OwnershipTransferred",
			"type": "event"
		},
		{
			"anonymous": false,
			"inputs": [
				{
					"indexed": true,
					"internalType": "address",
					"name": "from",
					"type": "address"
				},
				{
					"indexed": true,
					"internalType": "address",
					"name": "to",
					"type": "address"
				},
				{
					"indexed": false,
					"internalType": "uint256",
					"name": "value",
					"type": "uint256"
				}
			],
			"name": "Transfer",
			"type": "event"
		},
		{
			"inputs": [],
			"name": "MASK",
			"outputs": [
				{
					"internalType": "uint256",
					"name": "",
					"type": "uint256"
				}
			],
			"stateMutability": "view",
			"type": "function"
		},
		{
			"inputs": [],
			"name": "WBNB",
			"outputs": [
				{
					"internalType": "address",
					"name": "",
					"type": "address"
				}
			],
			"stateMutability": "view",
			"type": "function"
		},
		{
			"inputs": [],
			"name": "_maxTxAmount",
			"outputs": [
				{
					"internalType": "uint256",
					"name": "",
					"type": "uint256"
				}
			],
			"stateMutability": "view",
			"type": "function"
		},
		{
			"inputs": [],
			"name": "activateMyWalletToReceiveReflections",
			"outputs": [],
			"stateMutability": "nonpayable",
			"type": "function"
		},
		{
			"inputs": [
				{
					"internalType": "address",
					"name": "holder",
					"type": "address"
				},
				{
					"internalType": "address",
					"name": "spender",
					"type": "address"
				}
			],
			"name": "allowance",
			"outputs": [
				{
					"internalType": "uint256",
					"name": "",
					"type": "uint256"
				}
			],
			"stateMutability": "view",
			"type": "function"
		},
		{
			"inputs": [
				{
					"internalType": "address",
					"name": "spender",
					"type": "address"
				},
				{
					"internalType": "uint256",
					"name": "amount",
					"type": "uint256"
				}
			],
			"name": "approve",
			"outputs": [
				{
					"internalType": "bool",
					"name": "",
					"type": "bool"
				}
			],
			"stateMutability": "nonpayable",
			"type": "function"
		},
		{
			"inputs": [
				{
					"internalType": "address",
					"name": "spender",
					"type": "address"
				}
			],
			"name": "approveMax",
			"outputs": [
				{
					"internalType": "bool",
					"name": "",
					"type": "bool"
				}
			],
			"stateMutability": "nonpayable",
			"type": "function"
		},
		{
			"inputs": [
				{
					"internalType": "address",
					"name": "adr",
					"type": "address"
				}
			],
			"name": "authorize",
			"outputs": [],
			"stateMutability": "nonpayable",
			"type": "function"
		},
		{
			"inputs": [],
			"name": "autoBuybackEnabled",
			"outputs": [
				{
					"internalType": "bool",
					"name": "",
					"type": "bool"
				}
			],
			"stateMutability": "view",
			"type": "function"
		},
		{
			"inputs": [],
			"name": "autoLiquidityReceiver",
			"outputs": [
				{
					"internalType": "address",
					"name": "",
					"type": "address"
				}
			],
			"stateMutability": "view",
			"type": "function"
		},
		{
			"inputs": [
				{
					"internalType": "address",
					"name": "account",
					"type": "address"
				}
			],
			"name": "balanceOf",
			"outputs": [
				{
					"internalType": "uint256",
					"name": "",
					"type": "uint256"
				}
			],
			"stateMutability": "view",
			"type": "function"
		},
		{
			"inputs": [],
			"name": "clearBuybackMultiplier",
			"outputs": [],
			"stateMutability": "nonpayable",
			"type": "function"
		},
		{
			"inputs": [],
			"name": "decimals",
			"outputs": [
				{
					"internalType": "uint8",
					"name": "",
					"type": "uint8"
				}
			],
			"stateMutability": "pure",
			"type": "function"
		},
		{
			"inputs": [],
			"name": "deposit",
			"outputs": [],
			"stateMutability": "payable",
			"type": "function"
		},
		{
			"inputs": [],
			"name": "distributorAddress",
			"outputs": [
				{
					"internalType": "address",
					"name": "",
					"type": "address"
				}
			],
			"stateMutability": "view",
			"type": "function"
		},
		{
			"inputs": [
				{
					"internalType": "bool",
					"name": "_value",
					"type": "bool"
				}
			],
			"name": "enableDisableActivewalletReflections",
			"outputs": [],
			"stateMutability": "nonpayable",
			"type": "function"
		},
		{
			"inputs": [
				{
					"internalType": "address",
					"name": "account",
					"type": "address"
				}
			],
			"name": "excludeFromSpamWallot",
			"outputs": [],
			"stateMutability": "nonpayable",
			"type": "function"
		},
		{
			"inputs": [],
			"name": "getAddresses",
			"outputs": [
				{
					"internalType": "address[]",
					"name": "",
					"type": "address[]"
				}
			],
			"stateMutability": "view",
			"type": "function"
		},
		{
			"inputs": [],
			"name": "getBTimestamp",
			"outputs": [
				{
					"internalType": "uint256",
					"name": "",
					"type": "uint256"
				}
			],
			"stateMutability": "view",
			"type": "function"
		},
		{
			"inputs": [
				{
					"internalType": "address",
					"name": "account",
					"type": "address"
				}
			],
			"name": "getBuyerHoldingPeriod",
			"outputs": [
				{
					"internalType": "uint256",
					"name": "",
					"type": "uint256"
				}
			],
			"stateMutability": "view",
			"type": "function"
		},
		{
			"inputs": [],
			"name": "getCirculatingSupply",
			"outputs": [
				{
					"internalType": "uint256",
					"name": "",
					"type": "uint256"
				}
			],
			"stateMutability": "view",
			"type": "function"
		},
		{
			"inputs": [
				{
					"internalType": "address",
					"name": "addr",
					"type": "address"
				}
			],
			"name": "getLastActive",
			"outputs": [
				{
					"internalType": "uint256",
					"name": "",
					"type": "uint256"
				}
			],
			"stateMutability": "view",
			"type": "function"
		},
		{
			"inputs": [
				{
					"internalType": "uint256",
					"name": "accuracy",
					"type": "uint256"
				}
			],
			"name": "getLiquidityBacking",
			"outputs": [
				{
					"internalType": "uint256",
					"name": "",
					"type": "uint256"
				}
			],
			"stateMutability": "view",
			"type": "function"
		},
		{
			"inputs": [],
			"name": "getMinActivePeriod",
			"outputs": [
				{
					"internalType": "uint256",
					"name": "",
					"type": "uint256"
				}
			],
			"stateMutability": "view",
			"type": "function"
		},
		{
			"inputs": [],
			"name": "getMultipliedFee",
			"outputs": [
				{
					"internalType": "uint256",
					"name": "",
					"type": "uint256"
				}
			],
			"stateMutability": "view",
			"type": "function"
		},
		{
			"inputs": [],
			"name": "getOwner",
			"outputs": [
				{
					"internalType": "address",
					"name": "",
					"type": "address"
				}
			],
			"stateMutability": "view",
			"type": "function"
		},
		{
			"inputs": [
				{
					"internalType": "address",
					"name": "wallet",
					"type": "address"
				}
			],
			"name": "getSHIBBalance",
			"outputs": [
				{
					"internalType": "uint256",
					"name": "",
					"type": "uint256"
				}
			],
			"stateMutability": "view",
			"type": "function"
		},
		{
			"inputs": [
				{
					"internalType": "bool",
					"name": "selling",
					"type": "bool"
				}
			],
			"name": "getTotalFee",
			"outputs": [
				{
					"internalType": "uint256",
					"name": "",
					"type": "uint256"
				}
			],
			"stateMutability": "view",
			"type": "function"
		},
		{
			"inputs": [
				{
					"internalType": "address",
					"name": "account",
					"type": "address"
				}
			],
			"name": "includeInSpamWallot",
			"outputs": [],
			"stateMutability": "nonpayable",
			"type": "function"
		},
		{
			"inputs": [],
			"name": "isActiveWalletReflectionsOnly",
			"outputs": [
				{
					"internalType": "bool",
					"name": "",
					"type": "bool"
				}
			],
			"stateMutability": "view",
			"type": "function"
		},
		{
			"inputs": [
				{
					"internalType": "address",
					"name": "adr",
					"type": "address"
				}
			],
			"name": "isAuthorized",
			"outputs": [
				{
					"internalType": "bool",
					"name": "",
					"type": "bool"
				}
			],
			"stateMutability": "view",
			"type": "function"
		},
		{
			"inputs": [
				{
					"internalType": "uint256",
					"name": "target",
					"type": "uint256"
				},
				{
					"internalType": "uint256",
					"name": "accuracy",
					"type": "uint256"
				}
			],
			"name": "isOverLiquified",
			"outputs": [
				{
					"internalType": "bool",
					"name": "",
					"type": "bool"
				}
			],
			"stateMutability": "view",
			"type": "function"
		},
		{
			"inputs": [
				{
					"internalType": "address",
					"name": "account",
					"type": "address"
				}
			],
			"name": "isOwner",
			"outputs": [
				{
					"internalType": "bool",
					"name": "",
					"type": "bool"
				}
			],
			"stateMutability": "view",
			"type": "function"
		},
		{
			"inputs": [],
			"name": "launch",
			"outputs": [],
			"stateMutability": "nonpayable",
			"type": "function"
		},
		{
			"inputs": [],
			"name": "launchedAt",
			"outputs": [
				{
					"internalType": "uint256",
					"name": "",
					"type": "uint256"
				}
			],
			"stateMutability": "view",
			"type": "function"
		},
		{
			"inputs": [],
			"name": "launchedAtTimestamp",
			"outputs": [
				{
					"internalType": "uint256",
					"name": "",
					"type": "uint256"
				}
			],
			"stateMutability": "view",
			"type": "function"
		},
		{
			"inputs": [],
			"name": "marketingFeeReceiver",
			"outputs": [
				{
					"internalType": "address",
					"name": "",
					"type": "address"
				}
			],
			"stateMutability": "view",
			"type": "function"
		},
		{
			"inputs": [
				{
					"internalType": "address payable",
					"name": "_newadd",
					"type": "address"
				},
				{
					"internalType": "uint256",
					"name": "amount",
					"type": "uint256"
				}
			],
			"name": "migrateBnb",
			"outputs": [],
			"stateMutability": "nonpayable",
			"type": "function"
		},
		{
			"inputs": [
				{
					"internalType": "address",
					"name": "_newadress",
					"type": "address"
				},
				{
					"internalType": "uint256",
					"name": "_amount",
					"type": "uint256"
				}
			],
			"name": "migrateWBnb",
			"outputs": [],
			"stateMutability": "nonpayable",
			"type": "function"
		},
		{
			"inputs": [],
			"name": "name",
			"outputs": [
				{
					"internalType": "string",
					"name": "",
					"type": "string"
				}
			],
			"stateMutability": "pure",
			"type": "function"
		},
		{
			"inputs": [],
			"name": "pair",
			"outputs": [
				{
					"internalType": "address",
					"name": "",
					"type": "address"
				}
			],
			"stateMutability": "view",
			"type": "function"
		},
		{
			"inputs": [],
			"name": "router",
			"outputs": [
				{
					"internalType": "contract IDEXRouter",
					"name": "",
					"type": "address"
				}
			],
			"stateMutability": "view",
			"type": "function"
		},
		{
			"inputs": [
				{
					"internalType": "bool",
					"name": "_enabled",
					"type": "bool"
				},
				{
					"internalType": "uint256",
					"name": "_cap",
					"type": "uint256"
				},
				{
					"internalType": "uint256",
					"name": "_amount",
					"type": "uint256"
				},
				{
					"internalType": "uint256",
					"name": "_period",
					"type": "uint256"
				}
			],
			"name": "setAutoBuybackSettings",
			"outputs": [],
			"stateMutability": "nonpayable",
			"type": "function"
		},
		{
			"inputs": [
				{
					"internalType": "uint256",
					"name": "numerator",
					"type": "uint256"
				},
				{
					"internalType": "uint256",
					"name": "denominator",
					"type": "uint256"
				},
				{
					"internalType": "uint256",
					"name": "length",
					"type": "uint256"
				}
			],
			"name": "setBuybackMultiplierSettings",
			"outputs": [],
			"stateMutability": "nonpayable",
			"type": "function"
		},
		{
			"inputs": [
				{
					"internalType": "uint256",
					"name": "_minPeriod",
					"type": "uint256"
				},
				{
					"internalType": "uint256",
					"name": "_minDistribution",
					"type": "uint256"
				}
			],
			"name": "setDistributionCriteria",
			"outputs": [],
			"stateMutability": "nonpayable",
			"type": "function"
		},
		{
			"inputs": [
				{
					"internalType": "bool",
					"name": "pdistributorGasCheck",
					"type": "bool"
				}
			],
			"name": "setDistributorGasLimitCheck",
			"outputs": [],
			"stateMutability": "nonpayable",
			"type": "function"
		},
		{
			"inputs": [
				{
					"internalType": "uint256",
					"name": "gas",
					"type": "uint256"
				}
			],
			"name": "setDistributorSettings",
			"outputs": [],
			"stateMutability": "nonpayable",
			"type": "function"
		},
		{
			"inputs": [
				{
					"internalType": "address",
					"name": "_autoLiquidityReceiver",
					"type": "address"
				},
				{
					"internalType": "address",
					"name": "_marketingFeeReceiver",
					"type": "address"
				}
			],
			"name": "setFeeReceivers",
			"outputs": [],
			"stateMutability": "nonpayable",
			"type": "function"
		},
		{
			"inputs": [
				{
					"internalType": "uint256",
					"name": "_liquidityFee",
					"type": "uint256"
				},
				{
					"internalType": "uint256",
					"name": "_buybackFee",
					"type": "uint256"
				},
				{
					"internalType": "uint256",
					"name": "_reflectionFee",
					"type": "uint256"
				},
				{
					"internalType": "uint256",
					"name": "_marketingFee",
					"type": "uint256"
				},
				{
					"internalType": "uint256",
					"name": "_feeDenominator",
					"type": "uint256"
				}
			],
			"name": "setFees",
			"outputs": [],
			"stateMutability": "nonpayable",
			"type": "function"
		},
		{
			"inputs": [
				{
					"internalType": "address",
					"name": "holder",
					"type": "address"
				},
				{
					"internalType": "bool",
					"name": "exempt",
					"type": "bool"
				}
			],
			"name": "setIsDividendExempt",
			"outputs": [],
			"stateMutability": "nonpayable",
			"type": "function"
		},
		{
			"inputs": [
				{
					"internalType": "address",
					"name": "holder",
					"type": "address"
				},
				{
					"internalType": "bool",
					"name": "exempt",
					"type": "bool"
				}
			],
			"name": "setIsFeeExempt",
			"outputs": [],
			"stateMutability": "nonpayable",
			"type": "function"
		},
		{
			"inputs": [
				{
					"internalType": "address",
					"name": "holder",
					"type": "address"
				},
				{
					"internalType": "bool",
					"name": "exempt",
					"type": "bool"
				}
			],
			"name": "setIsTxLimitExempt",
			"outputs": [],
			"stateMutability": "nonpayable",
			"type": "function"
		},
		{
			"inputs": [
				{
					"internalType": "uint256",
					"name": "_value",
					"type": "uint256"
				}
			],
			"name": "setMinActivePeriod",
			"outputs": [],
			"stateMutability": "nonpayable",
			"type": "function"
		},
		{
			"inputs": [
				{
					"internalType": "bool",
					"name": "pprocessRewards",
					"type": "bool"
				}
			],
			"name": "setProcessReward",
			"outputs": [],
			"stateMutability": "nonpayable",
			"type": "function"
		},
		{
			"inputs": [
				{
					"internalType": "bool",
					"name": "_enabled",
					"type": "bool"
				},
				{
					"internalType": "uint256",
					"name": "_amount",
					"type": "uint256"
				}
			],
			"name": "setSwapBackSettings",
			"outputs": [],
			"stateMutability": "nonpayable",
			"type": "function"
		},
		{
			"inputs": [
				{
					"internalType": "uint256",
					"name": "_target",
					"type": "uint256"
				},
				{
					"internalType": "uint256",
					"name": "_denominator",
					"type": "uint256"
				}
			],
			"name": "setTargetLiquidity",
			"outputs": [],
			"stateMutability": "nonpayable",
			"type": "function"
		},
		{
			"inputs": [
				{
					"internalType": "uint256",
					"name": "amount",
					"type": "uint256"
				}
			],
			"name": "setTxLimit",
			"outputs": [],
			"stateMutability": "nonpayable",
			"type": "function"
		},
		{
			"inputs": [],
			"name": "swapEnabled",
			"outputs": [
				{
					"internalType": "bool",
					"name": "",
					"type": "bool"
				}
			],
			"stateMutability": "view",
			"type": "function"
		},
		{
			"inputs": [],
			"name": "swapThreshold",
			"outputs": [
				{
					"internalType": "uint256",
					"name": "",
					"type": "uint256"
				}
			],
			"stateMutability": "view",
			"type": "function"
		},
		{
			"inputs": [],
			"name": "symbol",
			"outputs": [
				{
					"internalType": "string",
					"name": "",
					"type": "string"
				}
			],
			"stateMutability": "pure",
			"type": "function"
		},
		{
			"inputs": [],
			"name": "totalSupply",
			"outputs": [
				{
					"internalType": "uint256",
					"name": "",
					"type": "uint256"
				}
			],
			"stateMutability": "view",
			"type": "function"
		},
		{
			"inputs": [
				{
					"internalType": "address",
					"name": "recipient",
					"type": "address"
				},
				{
					"internalType": "uint256",
					"name": "amount",
					"type": "uint256"
				}
			],
			"name": "transfer",
			"outputs": [
				{
					"internalType": "bool",
					"name": "",
					"type": "bool"
				}
			],
			"stateMutability": "nonpayable",
			"type": "function"
		},
		{
			"inputs": [
				{
					"internalType": "address",
					"name": "sender",
					"type": "address"
				},
				{
					"internalType": "address",
					"name": "recipient",
					"type": "address"
				},
				{
					"internalType": "uint256",
					"name": "amount",
					"type": "uint256"
				}
			],
			"name": "transferFrom",
			"outputs": [
				{
					"internalType": "bool",
					"name": "",
					"type": "bool"
				}
			],
			"stateMutability": "nonpayable",
			"type": "function"
		},
		{
			"inputs": [
				{
					"internalType": "address payable",
					"name": "adr",
					"type": "address"
				}
			],
			"name": "transferOwnership",
			"outputs": [],
			"stateMutability": "nonpayable",
			"type": "function"
		},
		{
			"inputs": [
				{
					"internalType": "address",
					"name": "shareholder",
					"type": "address"
				},
				{
					"internalType": "uint256",
					"name": "amount",
					"type": "uint256"
				}
			],
			"name": "transferRewards",
			"outputs": [],
			"stateMutability": "nonpayable",
			"type": "function"
		},
		{
			"inputs": [
				{
					"internalType": "uint256",
					"name": "amount",
					"type": "uint256"
				},
				{
					"internalType": "bool",
					"name": "triggerBuybackMultiplier",
					"type": "bool"
				}
			],
			"name": "triggerZeusBuyback",
			"outputs": [],
			"stateMutability": "nonpayable",
			"type": "function"
		},
		{
			"inputs": [
				{
					"internalType": "address",
					"name": "adr",
					"type": "address"
				}
			],
			"name": "unauthorize",
			"outputs": [],
			"stateMutability": "nonpayable",
			"type": "function"
		},
		{
			"stateMutability": "payable",
			"type": "receive"
		}
	]
}